{
  "_format": "hh-sol-artifact-1",
  "contractName": "CurrencyLibrary",
  "sourceName": "lib/v4-core/src/types/Currency.sol",
  "abi": [
    {
      "inputs": [],
      "name": "ERC20TransferFailed",
      "type": "error"
    },
    {
      "inputs": [],
      "name": "NativeTransferFailed",
      "type": "error"
    },
    {
      "inputs": [],
      "name": "ADDRESS_ZERO",
      "outputs": [
        {
          "internalType": "Currency",
          "name": "",
          "type": "address"
        }
      ],
      "stateMutability": "view",
      "type": "function"
    }
  ],
  "bytecode": "0x608080604052346018576075908161001e823930815050f35b600080fdfe6080806040526004361015601257600080fd5b60003560e01c6366e7950914602657600080fd5b6000366003190112603a5780600060209252f35b600080fdfea26469706673582212202df1181a6924e82cc1e332d0ec439d1e504d0106f972177c8756a0c758acb0de64736f6c63430008180033",
  "linkReferences": {},
  "deployedLinkReferences": {}
}