{
  "_format": "hh-sol-artifact-1",
  "contractName": "MockPoolManager",
  "sourceName": "contracts/MockPoolManager.sol",
  "abi": [
    {
      "inputs": [],
      "name": "AlreadyUnlocked",
      "type": "error"
    },
    {
      "inputs": [
        {
          "internalType": "address",
          "name": "currency0",
          "type": "address"
        },
        {
          "internalType": "address",
          "name": "currency1",
          "type": "address"
        }
      ],
      "name": "CurrenciesOutOfOrderOrEqual",
      "type": "error"
    },
    {
      "inputs": [],
      "name": "CurrencyNotSettled",
      "type": "error"
    },
    {
      "inputs": [],
      "name": "InvalidCaller",
      "type": "error"
    },
    {
      "inputs": [],
      "name": "ManagerLocked",
      "type": "error"
    },
    {
      "inputs": [],
      "name": "MustClearExactPositiveDelta",
      "type": "error"
    },
    {
      "inputs": [],
      "name": "NonzeroNativeValue",
      "type": "error"
    },
    {
      "inputs": [],
      "name": "PoolNotInitialized",
      "type": "error"
    },
    {
      "inputs": [],
      "name": "ProtocolFeeCurrencySynced",
      "type": "error"
    },
    {
      "inputs": [
        {
          "internalType": "uint24",
          "name": "fee",
          "type": "uint24"
        }
      ],
      "name": "ProtocolFeeTooLarge",
      "type": "error"
    },
    {
      "inputs": [],
      "name": "SwapAmountCannotBeZero",
      "type": "error"
    },
    {
      "inputs": [
        {
          "internalType": "int24",
          "name": "tickSpacing",
          "type": "int24"
        }
      ],
      "name": "TickSpacingTooLarge",
      "type": "error"
    },
    {
      "inputs": [
        {
          "internalType": "int24",
          "name": "tickSpacing",
          "type": "int24"
        }
      ],
      "name": "TickSpacingTooSmall",
      "type": "error"
    },
    {
      "inputs": [],
      "name": "UnauthorizedDynamicLPFeeUpdate",
      "type": "error"
    },
    {
      "anonymous": false,
      "inputs": [
        {
          "indexed": true,
          "internalType": "address",
          "name": "owner",
          "type": "address"
        },
        {
          "indexed": true,
          "internalType": "address",
          "name": "spender",
          "type": "address"
        },
        {
          "indexed": true,
          "internalType": "uint256",
          "name": "id",
          "type": "uint256"
        },
        {
          "indexed": false,
          "internalType": "uint256",
          "name": "amount",
          "type": "uint256"
        }
      ],
      "name": "Approval",
      "type": "event"
    },
    {
      "anonymous": false,
      "inputs": [
        {
          "indexed": true,
          "internalType": "PoolId",
          "name": "id",
          "type": "bytes32"
        },
        {
          "indexed": true,
          "internalType": "address",
          "name": "sender",
          "type": "address"
        },
        {
          "indexed": false,
          "internalType": "uint256",
          "name": "amount0",
          "type": "uint256"
        },
        {
          "indexed": false,
          "internalType": "uint256",
          "name": "amount1",
          "type": "uint256"
        }
      ],
      "name": "Donate",
      "type": "event"
    },
    {
      "anonymous": false,
      "inputs": [
        {
          "indexed": true,
          "internalType": "PoolId",
          "name": "id",
          "type": "bytes32"
        },
        {
          "indexed": true,
          "internalType": "Currency",
          "name": "currency0",
          "type": "address"
        },
        {
          "indexed": true,
          "internalType": "Currency",
          "name": "currency1",
          "type": "address"
        },
        {
          "indexed": false,
          "internalType": "uint24",
          "name": "fee",
          "type": "uint24"
        },
        {
          "indexed": false,
          "internalType": "int24",
          "name": "tickSpacing",
          "type": "int24"
        },
        {
          "indexed": false,
          "internalType": "contract IHooks",
          "name": "hooks",
          "type": "address"
        },
        {
          "indexed": false,
          "internalType": "uint160",
          "name": "sqrtPriceX96",
          "type": "uint160"
        },
        {
          "indexed": false,
          "internalType": "int24",
          "name": "tick",
          "type": "int24"
        }
      ],
      "name": "Initialize",
      "type": "event"
    },
    {
      "anonymous": false,
      "inputs": [
        {
          "indexed": true,
          "internalType": "PoolId",
          "name": "id",
          "type": "bytes32"
        },
        {
          "indexed": true,
          "internalType": "address",
          "name": "sender",
          "type": "address"
        },
        {
          "indexed": false,
          "internalType": "int24",
          "name": "tickLower",
          "type": "int24"
        },
        {
          "indexed": false,
          "internalType": "int24",
          "name": "tickUpper",
          "type": "int24"
        },
        {
          "indexed": false,
          "internalType": "int256",
          "name": "liquidityDelta",
          "type": "int256"
        },
        {
          "indexed": false,
          "internalType": "bytes32",
          "name": "salt",
          "type": "bytes32"
        }
      ],
      "name": "ModifyLiquidity",
      "type": "event"
    },
    {
      "anonymous": false,
      "inputs": [
        {
          "indexed": true,
          "internalType": "address",
          "name": "owner",
          "type": "address"
        },
        {
          "indexed": true,
          "internalType": "address",
          "name": "operator",
          "type": "address"
        },
        {
          "indexed": false,
          "internalType": "bool",
          "name": "approved",
          "type": "bool"
        }
      ],
      "name": "OperatorSet",
      "type": "event"
    },
    {
      "anonymous": false,
      "inputs": [
        {
          "indexed": true,
          "internalType": "address",
          "name": "protocolFeeController",
          "type": "address"
        }
      ],
      "name": "ProtocolFeeControllerUpdated",
      "type": "event"
    },
    {
      "anonymous": false,
      "inputs": [
        {
          "indexed": true,
          "internalType": "PoolId",
          "name": "id",
          "type": "bytes32"
        },
        {
          "indexed": false,
          "internalType": "uint24",
          "name": "protocolFee",
          "type": "uint24"
        }
      ],
      "name": "ProtocolFeeUpdated",
      "type": "event"
    },
    {
      "anonymous": false,
      "inputs": [
        {
          "indexed": true,
          "internalType": "PoolId",
          "name": "id",
          "type": "bytes32"
        },
        {
          "indexed": true,
          "internalType": "address",
          "name": "sender",
          "type": "address"
        },
        {
          "indexed": false,
          "internalType": "int128",
          "name": "amount0",
          "type": "int128"
        },
        {
          "indexed": false,
          "internalType": "int128",
          "name": "amount1",
          "type": "int128"
        },
        {
          "indexed": false,
          "internalType": "uint160",
          "name": "sqrtPriceX96",
          "type": "uint160"
        },
        {
          "indexed": false,
          "internalType": "uint128",
          "name": "liquidity",
          "type": "uint128"
        },
        {
          "indexed": false,
          "internalType": "int24",
          "name": "tick",
          "type": "int24"
        },
        {
          "indexed": false,
          "internalType": "uint24",
          "name": "fee",
          "type": "uint24"
        }
      ],
      "name": "Swap",
      "type": "event"
    },
    {
      "anonymous": false,
      "inputs": [
        {
          "indexed": false,
          "internalType": "address",
          "name": "caller",
          "type": "address"
        },
        {
          "indexed": true,
          "internalType": "address",
          "name": "from",
          "type": "address"
        },
        {
          "indexed": true,
          "internalType": "address",
          "name": "to",
          "type": "address"
        },
        {
          "indexed": true,
          "internalType": "uint256",
          "name": "id",
          "type": "uint256"
        },
        {
          "indexed": false,
          "internalType": "uint256",
          "name": "amount",
          "type": "uint256"
        }
      ],
      "name": "Transfer",
      "type": "event"
    },
    {
      "inputs": [
        {
          "internalType": "address",
          "name": "owner",
          "type": "address"
        },
        {
          "internalType": "address",
          "name": "spender",
          "type": "address"
        },
        {
          "internalType": "uint256",
          "name": "id",
          "type": "uint256"
        }
      ],
      "name": "allowance",
      "outputs": [
        {
          "internalType": "uint256",
          "name": "",
          "type": "uint256"
        }
      ],
      "stateMutability": "pure",
      "type": "function"
    },
    {
      "inputs": [
        {
          "internalType": "address",
          "name": "spender",
          "type": "address"
        },
        {
          "internalType": "uint256",
          "name": "id",
          "type": "uint256"
        },
        {
          "internalType": "uint256",
          "name": "amount",
          "type": "uint256"
        }
      ],
      "name": "approve",
      "outputs": [
        {
          "internalType": "bool",
          "name": "",
          "type": "bool"
        }
      ],
      "stateMutability": "pure",
      "type": "function"
    },
    {
      "inputs": [
        {
          "internalType": "address",
          "name": "account",
          "type": "address"
        },
        {
          "internalType": "uint256",
          "name": "id",
          "type": "uint256"
        }
      ],
      "name": "balanceOf",
      "outputs": [
        {
          "internalType": "uint256",
          "name": "",
          "type": "uint256"
        }
      ],
      "stateMutability": "pure",
      "type": "function"
    },
    {
      "inputs": [
        {
          "internalType": "address",
          "name": "from",
          "type": "address"
        },
        {
          "internalType": "uint256",
          "name": "id",
          "type": "uint256"
        },
        {
          "internalType": "uint256",
          "name": "amount",
          "type": "uint256"
        }
      ],
      "name": "burn",
      "outputs": [],
      "stateMutability": "nonpayable",
      "type": "function"
    },
    {
      "inputs": [
        {
          "internalType": "Currency",
          "name": "currency",
          "type": "address"
        },
        {
          "internalType": "uint256",
          "name": "amount",
          "type": "uint256"
        }
      ],
      "name": "clear",
      "outputs": [],
      "stateMutability": "nonpayable",
      "type": "function"
    },
    {
      "inputs": [
        {
          "internalType": "address",
          "name": "recipient",
          "type": "address"
        },
        {
          "internalType": "Currency",
          "name": "currency",
          "type": "address"
        },
        {
          "internalType": "uint256",
          "name": "amount",
          "type": "uint256"
        }
      ],
      "name": "collectProtocolFees",
      "outputs": [
        {
          "internalType": "uint256",
          "name": "",
          "type": "uint256"
        }
      ],
      "stateMutability": "pure",
      "type": "function"
    },
    {
      "inputs": [
        {
          "components": [
            {
              "internalType": "Currency",
              "name": "currency0",
              "type": "address"
            },
            {
              "internalType": "Currency",
              "name": "currency1",
              "type": "address"
            },
            {
              "internalType": "uint24",
              "name": "fee",
              "type": "uint24"
            },
            {
              "internalType": "int24",
              "name": "tickSpacing",
              "type": "int24"
            },
            {
              "internalType": "contract IHooks",
              "name": "hooks",
              "type": "address"
            }
          ],
          "internalType": "struct PoolKey",
          "name": "key",
          "type": "tuple"
        },
        {
          "internalType": "uint256",
          "name": "amount0",
          "type": "uint256"
        },
        {
          "internalType": "uint256",
          "name": "amount1",
          "type": "uint256"
        },
        {
          "internalType": "bytes",
          "name": "hookData",
          "type": "bytes"
        }
      ],
      "name": "donate",
      "outputs": [
        {
          "internalType": "BalanceDelta",
          "name": "",
          "type": "int256"
        }
      ],
      "stateMutability": "nonpayable",
      "type": "function"
    },
    {
      "inputs": [
        {
          "internalType": "bytes32",
          "name": "slot",
          "type": "bytes32"
        }
      ],
      "name": "extsload",
      "outputs": [
        {
          "internalType": "bytes32",
          "name": "",
          "type": "bytes32"
        }
      ],
      "stateMutability": "pure",
      "type": "function"
    },
    {
      "inputs": [
        {
          "internalType": "bytes32",
          "name": "startSlot",
          "type": "bytes32"
        },
        {
          "internalType": "uint256",
          "name": "nSlots",
          "type": "uint256"
        }
      ],
      "name": "extsload",
      "outputs": [
        {
          "internalType": "bytes32[]",
          "name": "",
          "type": "bytes32[]"
        }
      ],
      "stateMutability": "pure",
      "type": "function"
    },
    {
      "inputs": [
        {
          "internalType": "bytes32[]",
          "name": "slots",
          "type": "bytes32[]"
        }
      ],
      "name": "extsload",
      "outputs": [
        {
          "internalType": "bytes32[]",
          "name": "",
          "type": "bytes32[]"
        }
      ],
      "stateMutability": "pure",
      "type": "function"
    },
    {
      "inputs": [
        {
          "internalType": "bytes32[]",
          "name": "slots",
          "type": "bytes32[]"
        }
      ],
      "name": "exttload",
      "outputs": [
        {
          "internalType": "bytes32[]",
          "name": "",
          "type": "bytes32[]"
        }
      ],
      "stateMutability": "pure",
      "type": "function"
    },
    {
      "inputs": [
        {
          "internalType": "bytes32",
          "name": "slot",
          "type": "bytes32"
        }
      ],
      "name": "exttload",
      "outputs": [
        {
          "internalType": "bytes32",
          "name": "",
          "type": "bytes32"
        }
      ],
      "stateMutability": "pure",
      "type": "function"
    },
    {
      "inputs": [
        {
          "components": [
            {
              "internalType": "Currency",
              "name": "currency0",
              "type": "address"
            },
            {
              "internalType": "Currency",
              "name": "currency1",
              "type": "address"
            },
            {
              "internalType": "uint24",
              "name": "fee",
              "type": "uint24"
            },
            {
              "internalType": "int24",
              "name": "tickSpacing",
              "type": "int24"
            },
            {
              "internalType": "contract IHooks",
              "name": "hooks",
              "type": "address"
            }
          ],
          "internalType": "struct PoolKey",
          "name": "key",
          "type": "tuple"
        },
        {
          "internalType": "uint160",
          "name": "sqrtPriceX96",
          "type": "uint160"
        }
      ],
      "name": "initialize",
      "outputs": [
        {
          "internalType": "int24",
          "name": "",
          "type": "int24"
        }
      ],
      "stateMutability": "nonpayable",
      "type": "function"
    },
    {
      "inputs": [
        {
          "internalType": "address",
          "name": "owner",
          "type": "address"
        },
        {
          "internalType": "address",
          "name": "operator",
          "type": "address"
        }
      ],
      "name": "isOperator",
      "outputs": [
        {
          "internalType": "bool",
          "name": "",
          "type": "bool"
        }
      ],
      "stateMutability": "pure",
      "type": "function"
    },
    {
      "inputs": [
        {
          "internalType": "bytes",
          "name": "_data",
          "type": "bytes"
        }
      ],
      "name": "lock",
      "outputs": [
        {
          "internalType": "bytes",
          "name": "",
          "type": "bytes"
        }
      ],
      "stateMutability": "pure",
      "type": "function"
    },
    {
      "inputs": [
        {
          "internalType": "address",
          "name": "to",
          "type": "address"
        },
        {
          "internalType": "uint256",
          "name": "id",
          "type": "uint256"
        },
        {
          "internalType": "uint256",
          "name": "amount",
          "type": "uint256"
        }
      ],
      "name": "mint",
      "outputs": [],
      "stateMutability": "nonpayable",
      "type": "function"
    },
    {
      "inputs": [
        {
          "components": [
            {
              "internalType": "Currency",
              "name": "currency0",
              "type": "address"
            },
            {
              "internalType": "Currency",
              "name": "currency1",
              "type": "address"
            },
            {
              "internalType": "uint24",
              "name": "fee",
              "type": "uint24"
            },
            {
              "internalType": "int24",
              "name": "tickSpacing",
              "type": "int24"
            },
            {
              "internalType": "contract IHooks",
              "name": "hooks",
              "type": "address"
            }
          ],
          "internalType": "struct PoolKey",
          "name": "key",
          "type": "tuple"
        },
        {
          "components": [
            {
              "internalType": "int24",
              "name": "tickLower",
              "type": "int24"
            },
            {
              "internalType": "int24",
              "name": "tickUpper",
              "type": "int24"
            },
            {
              "internalType": "int256",
              "name": "liquidityDelta",
              "type": "int256"
            },
            {
              "internalType": "bytes32",
              "name": "salt",
              "type": "bytes32"
            }
          ],
          "internalType": "struct IPoolManager.ModifyLiquidityParams",
          "name": "params",
          "type": "tuple"
        },
        {
          "internalType": "bytes",
          "name": "hookData",
          "type": "bytes"
        }
      ],
      "name": "modifyLiquidity",
      "outputs": [
        {
          "internalType": "BalanceDelta",
          "name": "",
          "type": "int256"
        },
        {
          "internalType": "BalanceDelta",
          "name": "",
          "type": "int256"
        }
      ],
      "stateMutability": "nonpayable",
      "type": "function"
    },
    {
      "inputs": [],
      "name": "protocolFeeController",
      "outputs": [
        {
          "internalType": "address",
          "name": "",
          "type": "address"
        }
      ],
      "stateMutability": "pure",
      "type": "function"
    },
    {
      "inputs": [
        {
          "internalType": "Currency",
          "name": "currency",
          "type": "address"
        }
      ],
      "name": "protocolFeesAccrued",
      "outputs": [
        {
          "internalType": "uint256",
          "name": "",
          "type": "uint256"
        }
      ],
      "stateMutability": "pure",
      "type": "function"
    },
    {
      "inputs": [
        {
          "internalType": "address",
          "name": "operator",
          "type": "address"
        },
        {
          "internalType": "bool",
          "name": "approved",
          "type": "bool"
        }
      ],
      "name": "setOperator",
      "outputs": [
        {
          "internalType": "bool",
          "name": "",
          "type": "bool"
        }
      ],
      "stateMutability": "pure",
      "type": "function"
    },
    {
      "inputs": [
        {
          "components": [
            {
              "internalType": "Currency",
              "name": "currency0",
              "type": "address"
            },
            {
              "internalType": "Currency",
              "name": "currency1",
              "type": "address"
            },
            {
              "internalType": "uint24",
              "name": "fee",
              "type": "uint24"
            },
            {
              "internalType": "int24",
              "name": "tickSpacing",
              "type": "int24"
            },
            {
              "internalType": "contract IHooks",
              "name": "hooks",
              "type": "address"
            }
          ],
          "internalType": "struct PoolKey",
          "name": "key",
          "type": "tuple"
        },
        {
          "internalType": "uint24",
          "name": "newProtocolFee",
          "type": "uint24"
        }
      ],
      "name": "setProtocolFee",
      "outputs": [],
      "stateMutability": "nonpayable",
      "type": "function"
    },
    {
      "inputs": [
        {
          "internalType": "address",
          "name": "controller",
          "type": "address"
        }
      ],
      "name": "setProtocolFeeController",
      "outputs": [],
      "stateMutability": "nonpayable",
      "type": "function"
    },
    {
      "inputs": [],
      "name": "settle",
      "outputs": [
        {
          "internalType": "uint256",
          "name": "",
          "type": "uint256"
        }
      ],
      "stateMutability": "payable",
      "type": "function"
    },
    {
      "inputs": [
        {
          "internalType": "address",
          "name": "recipient",
          "type": "address"
        }
      ],
      "name": "settleFor",
      "outputs": [
        {
          "internalType": "uint256",
          "name": "",
          "type": "uint256"
        }
      ],
      "stateMutability": "payable",
      "type": "function"
    },
    {
      "inputs": [
        {
          "components": [
            {
              "internalType": "Currency",
              "name": "currency0",
              "type": "address"
            },
            {
              "internalType": "Currency",
              "name": "currency1",
              "type": "address"
            },
            {
              "internalType": "uint24",
              "name": "fee",
              "type": "uint24"
            },
            {
              "internalType": "int24",
              "name": "tickSpacing",
              "type": "int24"
            },
            {
              "internalType": "contract IHooks",
              "name": "hooks",
              "type": "address"
            }
          ],
          "internalType": "struct PoolKey",
          "name": "key",
          "type": "tuple"
        },
        {
          "components": [
            {
              "internalType": "bool",
              "name": "zeroForOne",
              "type": "bool"
            },
            {
              "internalType": "int256",
              "name": "amountSpecified",
              "type": "int256"
            },
            {
              "internalType": "uint160",
              "name": "sqrtPriceLimitX96",
              "type": "uint160"
            }
          ],
          "internalType": "struct IPoolManager.SwapParams",
          "name": "params",
          "type": "tuple"
        },
        {
          "internalType": "bytes",
          "name": "hookData",
          "type": "bytes"
        }
      ],
      "name": "swap",
      "outputs": [
        {
          "internalType": "BalanceDelta",
          "name": "",
          "type": "int256"
        }
      ],
      "stateMutability": "nonpayable",
      "type": "function"
    },
    {
      "inputs": [
        {
          "internalType": "Currency",
          "name": "currency",
          "type": "address"
        }
      ],
      "name": "sync",
      "outputs": [],
      "stateMutability": "nonpayable",
      "type": "function"
    },
    {
      "inputs": [
        {
          "internalType": "Currency",
          "name": "currency",
          "type": "address"
        },
        {
          "internalType": "address",
          "name": "to",
          "type": "address"
        },
        {
          "internalType": "uint256",
          "name": "amount",
          "type": "uint256"
        }
      ],
      "name": "take",
      "outputs": [],
      "stateMutability": "nonpayable",
      "type": "function"
    },
    {
      "inputs": [
        {
          "internalType": "address",
          "name": "to",
          "type": "address"
        },
        {
          "internalType": "uint256",
          "name": "id",
          "type": "uint256"
        },
        {
          "internalType": "uint256",
          "name": "amount",
          "type": "uint256"
        }
      ],
      "name": "transfer",
      "outputs": [
        {
          "internalType": "bool",
          "name": "",
          "type": "bool"
        }
      ],
      "stateMutability": "pure",
      "type": "function"
    },
    {
      "inputs": [
        {
          "internalType": "address",
          "name": "from",
          "type": "address"
        },
        {
          "internalType": "address",
          "name": "to",
          "type": "address"
        },
        {
          "internalType": "uint256",
          "name": "id",
          "type": "uint256"
        },
        {
          "internalType": "uint256",
          "name": "amount",
          "type": "uint256"
        }
      ],
      "name": "transferFrom",
      "outputs": [
        {
          "internalType": "bool",
          "name": "",
          "type": "bool"
        }
      ],
      "stateMutability": "pure",
      "type": "function"
    },
    {
      "inputs": [
        {
          "internalType": "bytes",
          "name": "data",
          "type": "bytes"
        }
      ],
      "name": "unlock",
      "outputs": [
        {
          "internalType": "bytes",
          "name": "",
          "type": "bytes"
        }
      ],
      "stateMutability": "nonpayable",
      "type": "function"
    },
    {
      "inputs": [
        {
          "components": [
            {
              "internalType": "Currency",
              "name": "currency0",
              "type": "address"
            },
            {
              "internalType": "Currency",
              "name": "currency1",
              "type": "address"
            },
            {
              "internalType": "uint24",
              "name": "fee",
              "type": "uint24"
            },
            {
              "internalType": "int24",
              "name": "tickSpacing",
              "type": "int24"
            },
            {
              "internalType": "contract IHooks",
              "name": "hooks",
              "type": "address"
            }
          ],
          "internalType": "struct PoolKey",
          "name": "key",
          "type": "tuple"
        },
        {
          "internalType": "uint24",
          "name": "newDynamicLPFee",
          "type": "uint24"
        }
      ],
      "name": "updateDynamicLPFee",
      "outputs": [],
      "stateMutability": "nonpayable",
      "type": "function"
    },
    {
      "inputs": [
        {
          "internalType": "address",
          "name": "_hookAddress",
          "type": "address"
        }
      ],
      "name": "validateHookAddress",
      "outputs": [
        {
          "internalType": "bool",
          "name": "",
          "type": "bool"
        }
      ],
      "stateMutability": "pure",
      "type": "function"
    }
  ],
  "bytecode": "0x60808060405234610016576108b4908161001c8239f35b600080fdfe608060408181526004918236101561001657600080fd5b600092833560e01c918262fdd58e1461057457508163095bcdb61461049e5781630b0d9c091461055157816311da60b41461053b578163156e29f61461052c5781631e2eaeaf1461027e578163234266d7146104ed5781632d7713891461030557816335fd631a146104bd5781633dd45adb146104a3578163426a84931461049e57816348c8949114610361578163527596511461037f578163558a72971461046e578163598af9e7146103425781635a6bcfda146103bc5781636276cbbe146103845781637e87ce7d1461037f57816380f0b44c1461036657816381548319146103615781638161b8741461034257816397e8cd4e146103235781639bf6645f1461029e578163a584119414610305578163b630571a146102d1578163b6363cf2146102a3578163dbd035ff1461029e578163f02de3b214610283578163f135baaa1461027e578163f3cd914c146101cd57508063f5298aca146101b55763fe99049a1461018457600080fd5b346101b15760803660031901126101b1576020906101a0610596565b506101a96105b1565b505160018152f35b5080fd5b82346101ca576101c4366105c7565b50505080f35b80fd5b8383346101b1576101203660031901126101b1576101ea3661065f565b5060603660a31901126101b157805167ffffffffffffffff90606081018281118282101761026b57835260a435801515810361026757815260c435602082015260e435906001600160a01b038216820361026757830152610104359081116102635760209361025b913691016106e9565b505051908152f35b8280fd5b8480fd5b634e487b7160e01b855260418652602485fd5b61060d565b5050346101b157816003193601126101b15751908152602090f35b610819565b5050346101b157806003193601126101b157906020916102c1610596565b506102ca6105b1565b5051908152f35b5050346101b15760203660031901126101b1576020906bffffffffffffffffffffffff6102fc610596565b16159051908152f35b83346101ca5760203660031901126101ca5761031f610596565b5080f35b5050346101b15760203660031901126101b157906020916102ca610596565b5050346101b15760603660031901126101b157906020916102c1610596565b610753565b5050346101b1573660031901126101ca5761031f610596565b6107ee565b5050346101b15760c03660031901126101b1576103a03661065f565b5060a4356001600160a01b038116036101b15751908152602090f35b839150346101b1576101403660031901126101b1576103da3661065f565b5060803660a31901126101b157825167ffffffffffffffff90608081018281118282101761045b57855260a4358060020b810361026757815260c4358060020b810361026757602082015260e43585820152606061010435910152610124359081116102635761044c913691016106e9565b50508151908082526020820152f35b634e487b7160e01b855260418452602485fd5b5050346101b157806003193601126101b157610488610596565b50602435801515036101b1576020905160018152f35b6105f1565b505060203660031901126101b157906020916102ca610596565b5050346101b157806003193601126101b157906104e9916104dc610629565b9182525191829182610717565b0390f35b8383346101b1576101003660031901126101b15761050a3661065f565b5060e43567ffffffffffffffff81116102635760209361025b913691016106e9565b83346101ca576101c4366105c7565b5050816003193601126101b15751908152602090f35b83346101ca5760603660031901126101ca5761056b610596565b5061031f6105b1565b84908434610263573660031901126101b157602091610591610596565b508152f35b600435906001600160a01b03821682036105ac57565b600080fd5b602435906001600160a01b03821682036105ac57565b60609060031901126105ac576004356001600160a01b03811681036105ac57906024359060443590565b346105ac576105ff366105c7565b505050602060405160018152f35b346105ac5760203660031901126105ac57602060405160008152f35b604051906020820182811067ffffffffffffffff82111761064957604052565b634e487b7160e01b600052604160045260246000fd5b60a09060031901126105ac576040519060a0820182811067ffffffffffffffff821117610649576040526001600160a01b038260043582811681036105ac57815260243582811681036105ac57602082015260443562ffffff811681036105ac5760408201526064358060020b81036105ac57606082015260843591821682036105ac5760800152565b9181601f840112156105ac5782359167ffffffffffffffff83116105ac57602083818601950101116105ac57565b602090602060408183019282815285518094520193019160005b82811061073f575050505090565b835185529381019392810192600101610731565b346105ac576020806003193601126105ac5767ffffffffffffffff6004358181116105ac576107869036906004016106e9565b505060408051909183820190811182821017610649578293919352600083528151928184928352815191828285015260005b8381106107d8575050600083830185015250601f01601f19168101030190f35b81810183015187820187015286945082016107b8565b346105ac5760c03660031901126105ac576108083661065f565b5060a43562ffffff8116036105ac57005b346105ac5760203660031901126105ac5767ffffffffffffffff6004358181116105ac57366023820112156105ac5780600401359182116105ac57602490369260051b0101116105ac576104e961086e610629565b600081526040519182918261071756fea2646970667358221220d58b8b88b384489d7b93941eeedb4fbc7dc55d6386c56fa754bc6b95765c53cb64736f6c63430008180033",
  "linkReferences": {},
  "deployedLinkReferences": {}
}