{"lib/v4-core/src/types/Currency.sol":{"CurrencyLibrary":{"abi":[{"inputs":[],"name":"ERC20TransferFailed","type":"error"},{"inputs":[],"name":"NativeTransferFailed","type":"error"},{"inputs":[],"name":"ADDRESS_ZERO","outputs":[{"internalType":"Currency","name":"","type":"address"}],"stateMutability":"view","type":"function"}],"evm":{"bytecode":{"linkReferences":{},"object":"608080604052346018576075908161001e823930815050f35b600080fdfe6080806040526004361015601257600080fd5b60003560e01c6366e7950914602657600080fd5b6000366003190112603a5780600060209252f35b600080fdfea26469706673582212206049c78304a33c847c725ce64ad72e28a4dcc6998db3579a9d129326a4d342f664736f6c63430008180033","opcodes":"PUSH1 0x80 DUP1 PUSH1 0x40 MSTORE CALLVALUE PUSH1 0x18 JUMPI PUSH1 0x75 SWAP1 DUP2 PUSH2 0x1E DUP3 CODECOPY ADDRESS DUP2 POP POP RETURN JUMPDEST PUSH1 0x0 DUP1 REVERT INVALID PUSH1 0x80 DUP1 PUSH1 0x40 MSTORE PUSH1 0x4 CALLDATASIZE LT ISZERO PUSH1 0x12 JUMPI PUSH1 0x0 DUP1 REVERT JUMPDEST PUSH1 0x0 CALLDATALOAD PUSH1 0xE0 SHR PUSH4 0x66E79509 EQ PUSH1 0x26 JUMPI PUSH1 0x0 DUP1 REVERT JUMPDEST PUSH1 0x0 CALLDATASIZE PUSH1 0x3 NOT ADD SLT PUSH1 0x3A JUMPI DUP1 PUSH1 0x0 PUSH1 0x20 SWAP3 MSTORE RETURN JUMPDEST PUSH1 0x0 DUP1 REVERT INVALID LOG2 PUSH5 0x6970667358 0x22 SLT KECCAK256 PUSH1 0x49 0xC7 DUP4 DIV LOG3 EXTCODECOPY DUP5 PUSH29 0x725CE64AD72E28A4DCC6998DB3579A9D129326A4D342F664736F6C6343 STOP ADDMOD XOR STOP CALLER "},"methodIdentifiers":{"ADDRESS_ZERO()":"66e79509"}}}}}