{"lib/v4-core/src/types/BalanceDelta.sol":{"BalanceDeltaLibrary":{"abi":[{"inputs":[],"name":"ZERO_DELTA","outputs":[{"internalType":"BalanceDelta","name":"","type":"int256"}],"stateMutability":"view","type":"function"}],"evm":{"bytecode":{"linkReferences":{},"object":"608080604052346018576075908161001e823930815050f35b600080fdfe6080806040526004361015601257600080fd5b60003560e01c6391cb466914602657600080fd5b6000366003190112603a5780600060209252f35b600080fdfea2646970667358221220f24690c9db3986531e85ec4cc12bd877d5ec6efd6d3fb303c168fca152da91c664736f6c63430008180033","opcodes":"PUSH1 0x80 DUP1 PUSH1 0x40 MSTORE CALLVALUE PUSH1 0x18 JUMPI PUSH1 0x75 SWAP1 DUP2 PUSH2 0x1E DUP3 CODECOPY ADDRESS DUP2 POP POP RETURN JUMPDEST PUSH1 0x0 DUP1 REVERT INVALID PUSH1 0x80 DUP1 PUSH1 0x40 MSTORE PUSH1 0x4 CALLDATASIZE LT ISZERO PUSH1 0x12 JUMPI PUSH1 0x0 DUP1 REVERT JUMPDEST PUSH1 0x0 CALLDATALOAD PUSH1 0xE0 SHR PUSH4 0x91CB4669 EQ PUSH1 0x26 JUMPI PUSH1 0x0 DUP1 REVERT JUMPDEST PUSH1 0x0 CALLDATASIZE PUSH1 0x3 NOT ADD SLT PUSH1 0x3A JUMPI DUP1 PUSH1 0x0 PUSH1 0x20 SWAP3 MSTORE RETURN JUMPDEST PUSH1 0x0 DUP1 REVERT INVALID LOG2 PUSH5 0x6970667358 0x22 SLT KECCAK256 CALLCODE CHAINID SWAP1 0xC9 0xDB CODECOPY DUP7 MSTORE8 0x1E DUP6 0xEC 0x4C 0xC1 0x2B 0xD8 PUSH24 0xD5EC6EFD6D3FB303C168FCA152DA91C664736F6C63430008 XOR STOP CALLER "},"methodIdentifiers":{"ZERO_DELTA()":"91cb4669"}}}}}