{"lib/v4-core/src/libraries/LPFeeLibrary.sol":{"LPFeeLibrary":{"abi":[{"inputs":[{"internalType":"uint24","name":"fee","type":"uint24"}],"name":"LPFeeTooLarge","type":"error"},{"inputs":[],"name":"DYNAMIC_FEE_FLAG","outputs":[{"internalType":"uint24","name":"","type":"uint24"}],"stateMutability":"view","type":"function"},{"inputs":[],"name":"MAX_LP_FEE","outputs":[{"internalType":"uint24","name":"","type":"uint24"}],"stateMutability":"view","type":"function"},{"inputs":[],"name":"OVERRIDE_FEE_FLAG","outputs":[{"internalType":"uint24","name":"","type":"uint24"}],"stateMutability":"view","type":"function"},{"inputs":[],"name":"REMOVE_OVERRIDE_MASK","outputs":[{"internalType":"uint24","name":"","type":"uint24"}],"stateMutability":"view","type":"function"}],"evm":{"bytecode":{"linkReferences":{},"object":"608080604052346100195760e3908161001f823930815050f35b600080fdfe6080806040526004361015601257600080fd5b600090813560e01c9081633b01d64d146092575080633fc48eba14607a5780636f95ebcf1460625763f26ef49d14604857600080fd5b80600319360112605f576020604051628000008152f35b80fd5b5080600319360112605f57602060405162bfffff8152f35b5080600319360112605f576020604051620f42408152f35b90508160031936011260a957806240000060209252f35b5080fdfea2646970667358221220059157b441ea3a471f71bf348b745c7d5730c75544dd6a4859bcb6875c9e7b9264736f6c63430008180033","opcodes":"PUSH1 0x80 DUP1 PUSH1 0x40 MSTORE CALLVALUE PUSH2 0x19 JUMPI PUSH1 0xE3 SWAP1 DUP2 PUSH2 0x1F DUP3 CODECOPY ADDRESS DUP2 POP POP RETURN JUMPDEST PUSH1 0x0 DUP1 REVERT INVALID PUSH1 0x80 DUP1 PUSH1 0x40 MSTORE PUSH1 0x4 CALLDATASIZE LT ISZERO PUSH1 0x12 JUMPI PUSH1 0x0 DUP1 REVERT JUMPDEST PUSH1 0x0 SWAP1 DUP2 CALLDATALOAD PUSH1 0xE0 SHR SWAP1 DUP2 PUSH4 0x3B01D64D EQ PUSH1 0x92 JUMPI POP DUP1 PUSH4 0x3FC48EBA EQ PUSH1 0x7A JUMPI DUP1 PUSH4 0x6F95EBCF EQ PUSH1 0x62 JUMPI PUSH4 0xF26EF49D EQ PUSH1 0x48 JUMPI PUSH1 0x0 DUP1 REVERT JUMPDEST DUP1 PUSH1 0x3 NOT CALLDATASIZE ADD SLT PUSH1 0x5F JUMPI PUSH1 0x20 PUSH1 0x40 MLOAD PUSH3 0x800000 DUP2 MSTORE RETURN JUMPDEST DUP1 REVERT JUMPDEST POP DUP1 PUSH1 0x3 NOT CALLDATASIZE ADD SLT PUSH1 0x5F JUMPI PUSH1 0x20 PUSH1 0x40 MLOAD PUSH3 0xBFFFFF DUP2 MSTORE RETURN JUMPDEST POP DUP1 PUSH1 0x3 NOT CALLDATASIZE ADD SLT PUSH1 0x5F JUMPI PUSH1 0x20 PUSH1 0x40 MLOAD PUSH3 0xF4240 DUP2 MSTORE RETURN JUMPDEST SWAP1 POP DUP2 PUSH1 0x3 NOT CALLDATASIZE ADD SLT PUSH1 0xA9 JUMPI DUP1 PUSH3 0x400000 PUSH1 0x20 SWAP3 MSTORE RETURN JUMPDEST POP DUP1 REVERT INVALID LOG2 PUSH5 0x6970667358 0x22 SLT KECCAK256 SDIV SWAP2 JUMPI 0xB4 COINBASE 0xEA GASPRICE SELFBALANCE 0x1F PUSH18 0xBF348B745C7D5730C75544DD6A4859BCB687 TLOAD SWAP15 PUSH28 0x9264736F6C6343000818003300000000000000000000000000000000 "},"methodIdentifiers":{"DYNAMIC_FEE_FLAG()":"f26ef49d","MAX_LP_FEE()":"3fc48eba","OVERRIDE_FEE_FLAG()":"3b01d64d","REMOVE_OVERRIDE_MASK()":"6f95ebcf"}}}}}