{"contracts/Create2Factory.sol":{"Create2Factory":{"abi":[{"anonymous":false,"inputs":[{"indexed":false,"internalType":"address","name":"addr","type":"address"},{"indexed":false,"internalType":"uint256","name":"salt","type":"uint256"}],"name":"Deployed","type":"event"},{"inputs":[{"internalType":"bytes32","name":"salt","type":"bytes32"},{"internalType":"bytes","name":"bytecode","type":"bytes"}],"name":"computeAddress","outputs":[{"internalType":"address","name":"","type":"address"}],"stateMutability":"view","type":"function"},{"inputs":[{"internalType":"bytes32","name":"salt","type":"bytes32"},{"internalType":"bytes","name":"bytecode","type":"bytes"}],"name":"deploy","outputs":[{"internalType":"address","name":"","type":"address"}],"stateMutability":"nonpayable","type":"function"}],"evm":{"bytecode":{"linkReferences":{},"object":"608080604052346100165761021d908161001c8239f35b600080fdfe6080604052600436101561001257600080fd5b60003560e01c8063ca9ffe94146100375763cdcb760a1461003257600080fd5b610185565b346100b1576100ad61009361004b3661010f565b602081519101209060405191602083019160ff60f81b83523060601b60218501526035840152605583015260558252610083826100cc565b905190206001600160a01b031690565b6040516001600160a01b0390911681529081906020820190565b0390f35b600080fd5b634e487b7160e01b600052604160045260246000fd5b6080810190811067ffffffffffffffff8211176100e857604052565b6100b6565b90601f8019910116810190811067ffffffffffffffff8211176100e857604052565b9060406003198301126100b1576004359167ffffffffffffffff6024358181116100b157826023820112156100b15780600401359182116100e85760405192610162601f8401601f1916602001856100ed565b828452602483830101116100b15781600092602460209301838601378301015290565b346100b1576101933661010f565b805182916020016000f590813b156100b1577fb03c53b28e78a88e31607a27e1fa48234dce28d5d9d9ec7b295aeb02e674a1e1604060209381519060018060a01b03169384825285820152a1604051908152f3fea2646970667358221220bf57aaa4de15678bec6b8ed5b9d4ab40b69fdd72dc53ce2b02f5f0a22e79871764736f6c63430008180033","opcodes":"PUSH1 0x80 DUP1 PUSH1 0x40 MSTORE CALLVALUE PUSH2 0x16 JUMPI PUSH2 0x21D SWAP1 DUP2 PUSH2 0x1C DUP3 CODECOPY RETURN JUMPDEST PUSH1 0x0 DUP1 REVERT INVALID PUSH1 0x80 PUSH1 0x40 MSTORE PUSH1 0x4 CALLDATASIZE LT ISZERO PUSH2 0x12 JUMPI PUSH1 0x0 DUP1 REVERT JUMPDEST PUSH1 0x0 CALLDATALOAD PUSH1 0xE0 SHR DUP1 PUSH4 0xCA9FFE94 EQ PUSH2 0x37 JUMPI PUSH4 0xCDCB760A EQ PUSH2 0x32 JUMPI PUSH1 0x0 DUP1 REVERT JUMPDEST PUSH2 0x185 JUMP JUMPDEST CALLVALUE PUSH2 0xB1 JUMPI PUSH2 0xAD PUSH2 0x93 PUSH2 0x4B CALLDATASIZE PUSH2 0x10F JUMP JUMPDEST PUSH1 0x20 DUP2 MLOAD SWAP2 ADD KECCAK256 SWAP1 PUSH1 0x40 MLOAD SWAP2 PUSH1 0x20 DUP4 ADD SWAP2 PUSH1 0xFF PUSH1 0xF8 SHL DUP4 MSTORE ADDRESS PUSH1 0x60 SHL PUSH1 0x21 DUP6 ADD MSTORE PUSH1 0x35 DUP5 ADD MSTORE PUSH1 0x55 DUP4 ADD MSTORE PUSH1 0x55 DUP3 MSTORE PUSH2 0x83 DUP3 PUSH2 0xCC JUMP JUMPDEST SWAP1 MLOAD SWAP1 KECCAK256 PUSH1 0x1 PUSH1 0x1 PUSH1 0xA0 SHL SUB AND SWAP1 JUMP JUMPDEST PUSH1 0x40 MLOAD PUSH1 0x1 PUSH1 0x1 PUSH1 0xA0 SHL SUB SWAP1 SWAP2 AND DUP2 MSTORE SWAP1 DUP2 SWAP1 PUSH1 0x20 DUP3 ADD SWAP1 JUMP JUMPDEST SUB SWAP1 RETURN JUMPDEST PUSH1 0x0 DUP1 REVERT JUMPDEST PUSH4 0x4E487B71 PUSH1 0xE0 SHL PUSH1 0x0 MSTORE PUSH1 0x41 PUSH1 0x4 MSTORE PUSH1 0x24 PUSH1 0x0 REVERT JUMPDEST PUSH1 0x80 DUP2 ADD SWAP1 DUP2 LT PUSH8 0xFFFFFFFFFFFFFFFF DUP3 GT OR PUSH2 0xE8 JUMPI PUSH1 0x40 MSTORE JUMP JUMPDEST PUSH2 0xB6 JUMP JUMPDEST SWAP1 PUSH1 0x1F DUP1 NOT SWAP2 ADD AND DUP2 ADD SWAP1 DUP2 LT PUSH8 0xFFFFFFFFFFFFFFFF DUP3 GT OR PUSH2 0xE8 JUMPI PUSH1 0x40 MSTORE JUMP JUMPDEST SWAP1 PUSH1 0x40 PUSH1 0x3 NOT DUP4 ADD SLT PUSH2 0xB1 JUMPI PUSH1 0x4 CALLDATALOAD SWAP2 PUSH8 0xFFFFFFFFFFFFFFFF PUSH1 0x24 CALLDATALOAD DUP2 DUP2 GT PUSH2 0xB1 JUMPI DUP3 PUSH1 0x23 DUP3 ADD SLT ISZERO PUSH2 0xB1 JUMPI DUP1 PUSH1 0x4 ADD CALLDATALOAD SWAP2 DUP3 GT PUSH2 0xE8 JUMPI PUSH1 0x40 MLOAD SWAP3 PUSH2 0x162 PUSH1 0x1F DUP5 ADD PUSH1 0x1F NOT AND PUSH1 0x20 ADD DUP6 PUSH2 0xED JUMP JUMPDEST DUP3 DUP5 MSTORE PUSH1 0x24 DUP4 DUP4 ADD ADD GT PUSH2 0xB1 JUMPI DUP2 PUSH1 0x0 SWAP3 PUSH1 0x24 PUSH1 0x20 SWAP4 ADD DUP4 DUP7 ADD CALLDATACOPY DUP4 ADD ADD MSTORE SWAP1 JUMP JUMPDEST CALLVALUE PUSH2 0xB1 JUMPI PUSH2 0x193 CALLDATASIZE PUSH2 0x10F JUMP JUMPDEST DUP1 MLOAD DUP3 SWAP2 PUSH1 0x20 ADD PUSH1 0x0 CREATE2 SWAP1 DUP2 EXTCODESIZE ISZERO PUSH2 0xB1 JUMPI PUSH32 0xB03C53B28E78A88E31607A27E1FA48234DCE28D5D9D9EC7B295AEB02E674A1E1 PUSH1 0x40 PUSH1 0x20 SWAP4 DUP2 MLOAD SWAP1 PUSH1 0x1 DUP1 PUSH1 0xA0 SHL SUB AND SWAP4 DUP5 DUP3 MSTORE DUP6 DUP3 ADD MSTORE LOG1 PUSH1 0x40 MLOAD SWAP1 DUP2 MSTORE RETURN INVALID LOG2 PUSH5 0x6970667358 0x22 SLT KECCAK256 0xBF JUMPI 0xAA LOG4 0xDE ISZERO PUSH8 0x8BEC6B8ED5B9D4AB BLOCKHASH 0xB6 SWAP16 0xDD PUSH19 0xDC53CE2B02F5F0A22E79871764736F6C634300 ADDMOD XOR STOP CALLER "},"methodIdentifiers":{"computeAddress(bytes32,bytes)":"ca9ffe94","deploy(bytes32,bytes)":"cdcb760a"}}}}}