{"contracts/MockPoolManager.sol":{"MockPoolManager":{"abi":[{"inputs":[],"name":"AlreadyUnlocked","type":"error"},{"inputs":[{"internalType":"address","name":"currency0","type":"address"},{"internalType":"address","name":"currency1","type":"address"}],"name":"CurrenciesOutOfOrderOrEqual","type":"error"},{"inputs":[],"name":"CurrencyNotSettled","type":"error"},{"inputs":[],"name":"InvalidCaller","type":"error"},{"inputs":[],"name":"ManagerLocked","type":"error"},{"inputs":[],"name":"MustClearExactPositiveDelta","type":"error"},{"inputs":[],"name":"NonzeroNativeValue","type":"error"},{"inputs":[],"name":"PoolNotInitialized","type":"error"},{"inputs":[],"name":"ProtocolFeeCurrencySynced","type":"error"},{"inputs":[{"internalType":"uint24","name":"fee","type":"uint24"}],"name":"ProtocolFeeTooLarge","type":"error"},{"inputs":[],"name":"SwapAmountCannotBeZero","type":"error"},{"inputs":[{"internalType":"int24","name":"tickSpacing","type":"int24"}],"name":"TickSpacingTooLarge","type":"error"},{"inputs":[{"internalType":"int24","name":"tickSpacing","type":"int24"}],"name":"TickSpacingTooSmall","type":"error"},{"inputs":[],"name":"UnauthorizedDynamicLPFeeUpdate","type":"error"},{"anonymous":false,"inputs":[{"indexed":true,"internalType":"address","name":"owner","type":"address"},{"indexed":true,"internalType":"address","name":"spender","type":"address"},{"indexed":true,"internalType":"uint256","name":"id","type":"uint256"},{"indexed":false,"internalType":"uint256","name":"amount","type":"uint256"}],"name":"Approval","type":"event"},{"anonymous":false,"inputs":[{"indexed":true,"internalType":"PoolId","name":"id","type":"bytes32"},{"indexed":true,"internalType":"address","name":"sender","type":"address"},{"indexed":false,"internalType":"uint256","name":"amount0","type":"uint256"},{"indexed":false,"internalType":"uint256","name":"amount1","type":"uint256"}],"name":"Donate","type":"event"},{"anonymous":false,"inputs":[{"indexed":true,"internalType":"PoolId","name":"id","type":"bytes32"},{"indexed":true,"internalType":"Currency","name":"currency0","type":"address"},{"indexed":true,"internalType":"Currency","name":"currency1","type":"address"},{"indexed":false,"internalType":"uint24","name":"fee","type":"uint24"},{"indexed":false,"internalType":"int24","name":"tickSpacing","type":"int24"},{"indexed":false,"internalType":"contract IHooks","name":"hooks","type":"address"},{"indexed":false,"internalType":"uint160","name":"sqrtPriceX96","type":"uint160"},{"indexed":false,"internalType":"int24","name":"tick","type":"int24"}],"name":"Initialize","type":"event"},{"anonymous":false,"inputs":[{"indexed":true,"internalType":"PoolId","name":"id","type":"bytes32"},{"indexed":true,"internalType":"address","name":"sender","type":"address"},{"indexed":false,"internalType":"int24","name":"tickLower","type":"int24"},{"indexed":false,"internalType":"int24","name":"tickUpper","type":"int24"},{"indexed":false,"internalType":"int256","name":"liquidityDelta","type":"int256"},{"indexed":false,"internalType":"bytes32","name":"salt","type":"bytes32"}],"name":"ModifyLiquidity","type":"event"},{"anonymous":false,"inputs":[{"indexed":true,"internalType":"address","name":"owner","type":"address"},{"indexed":true,"internalType":"address","name":"operator","type":"address"},{"indexed":false,"internalType":"bool","name":"approved","type":"bool"}],"name":"OperatorSet","type":"event"},{"anonymous":false,"inputs":[{"indexed":true,"internalType":"address","name":"protocolFeeController","type":"address"}],"name":"ProtocolFeeControllerUpdated","type":"event"},{"anonymous":false,"inputs":[{"indexed":true,"internalType":"PoolId","name":"id","type":"bytes32"},{"indexed":false,"internalType":"uint24","name":"protocolFee","type":"uint24"}],"name":"ProtocolFeeUpdated","type":"event"},{"anonymous":false,"inputs":[{"indexed":true,"internalType":"PoolId","name":"id","type":"bytes32"},{"indexed":true,"internalType":"address","name":"sender","type":"address"},{"indexed":false,"internalType":"int128","name":"amount0","type":"int128"},{"indexed":false,"internalType":"int128","name":"amount1","type":"int128"},{"indexed":false,"internalType":"uint160","name":"sqrtPriceX96","type":"uint160"},{"indexed":false,"internalType":"uint128","name":"liquidity","type":"uint128"},{"indexed":false,"internalType":"int24","name":"tick","type":"int24"},{"indexed":false,"internalType":"uint24","name":"fee","type":"uint24"}],"name":"Swap","type":"event"},{"anonymous":false,"inputs":[{"indexed":false,"internalType":"address","name":"caller","type":"address"},{"indexed":true,"internalType":"address","name":"from","type":"address"},{"indexed":true,"internalType":"address","name":"to","type":"address"},{"indexed":true,"internalType":"uint256","name":"id","type":"uint256"},{"indexed":false,"internalType":"uint256","name":"amount","type":"uint256"}],"name":"Transfer","type":"event"},{"inputs":[{"internalType":"address","name":"owner","type":"address"},{"internalType":"address","name":"spender","type":"address"},{"internalType":"uint256","name":"id","type":"uint256"}],"name":"allowance","outputs":[{"internalType":"uint256","name":"","type":"uint256"}],"stateMutability":"pure","type":"function"},{"inputs":[{"internalType":"address","name":"spender","type":"address"},{"internalType":"uint256","name":"id","type":"uint256"},{"internalType":"uint256","name":"amount","type":"uint256"}],"name":"approve","outputs":[{"internalType":"bool","name":"","type":"bool"}],"stateMutability":"pure","type":"function"},{"inputs":[{"internalType":"address","name":"account","type":"address"},{"internalType":"uint256","name":"id","type":"uint256"}],"name":"balanceOf","outputs":[{"internalType":"uint256","name":"","type":"uint256"}],"stateMutability":"pure","type":"function"},{"inputs":[{"internalType":"address","name":"from","type":"address"},{"internalType":"uint256","name":"id","type":"uint256"},{"internalType":"uint256","name":"amount","type":"uint256"}],"name":"burn","outputs":[],"stateMutability":"nonpayable","type":"function"},{"inputs":[{"internalType":"Currency","name":"currency","type":"address"},{"internalType":"uint256","name":"amount","type":"uint256"}],"name":"clear","outputs":[],"stateMutability":"nonpayable","type":"function"},{"inputs":[{"internalType":"address","name":"recipient","type":"address"},{"internalType":"Currency","name":"currency","type":"address"},{"internalType":"uint256","name":"amount","type":"uint256"}],"name":"collectProtocolFees","outputs":[{"internalType":"uint256","name":"","type":"uint256"}],"stateMutability":"pure","type":"function"},{"inputs":[{"components":[{"internalType":"Currency","name":"currency0","type":"address"},{"internalType":"Currency","name":"currency1","type":"address"},{"internalType":"uint24","name":"fee","type":"uint24"},{"internalType":"int24","name":"tickSpacing","type":"int24"},{"internalType":"contract IHooks","name":"hooks","type":"address"}],"internalType":"struct PoolKey","name":"key","type":"tuple"},{"internalType":"uint256","name":"amount0","type":"uint256"},{"internalType":"uint256","name":"amount1","type":"uint256"},{"internalType":"bytes","name":"hookData","type":"bytes"}],"name":"donate","outputs":[{"internalType":"BalanceDelta","name":"","type":"int256"}],"stateMutability":"nonpayable","type":"function"},{"inputs":[{"internalType":"bytes32","name":"slot","type":"bytes32"}],"name":"extsload","outputs":[{"internalType":"bytes32","name":"","type":"bytes32"}],"stateMutability":"pure","type":"function"},{"inputs":[{"internalType":"bytes32","name":"startSlot","type":"bytes32"},{"internalType":"uint256","name":"nSlots","type":"uint256"}],"name":"extsload","outputs":[{"internalType":"bytes32[]","name":"","type":"bytes32[]"}],"stateMutability":"pure","type":"function"},{"inputs":[{"internalType":"bytes32[]","name":"slots","type":"bytes32[]"}],"name":"extsload","outputs":[{"internalType":"bytes32[]","name":"","type":"bytes32[]"}],"stateMutability":"pure","type":"function"},{"inputs":[{"internalType":"bytes32[]","name":"slots","type":"bytes32[]"}],"name":"exttload","outputs":[{"internalType":"bytes32[]","name":"","type":"bytes32[]"}],"stateMutability":"pure","type":"function"},{"inputs":[{"internalType":"bytes32","name":"slot","type":"bytes32"}],"name":"exttload","outputs":[{"internalType":"bytes32","name":"","type":"bytes32"}],"stateMutability":"pure","type":"function"},{"inputs":[{"components":[{"internalType":"Currency","name":"currency0","type":"address"},{"internalType":"Currency","name":"currency1","type":"address"},{"internalType":"uint24","name":"fee","type":"uint24"},{"internalType":"int24","name":"tickSpacing","type":"int24"},{"internalType":"contract IHooks","name":"hooks","type":"address"}],"internalType":"struct PoolKey","name":"key","type":"tuple"},{"internalType":"uint160","name":"sqrtPriceX96","type":"uint160"}],"name":"initialize","outputs":[{"internalType":"int24","name":"","type":"int24"}],"stateMutability":"nonpayable","type":"function"},{"inputs":[{"internalType":"address","name":"owner","type":"address"},{"internalType":"address","name":"operator","type":"address"}],"name":"isOperator","outputs":[{"internalType":"bool","name":"","type":"bool"}],"stateMutability":"pure","type":"function"},{"inputs":[{"internalType":"bytes","name":"_data","type":"bytes"}],"name":"lock","outputs":[{"internalType":"bytes","name":"","type":"bytes"}],"stateMutability":"pure","type":"function"},{"inputs":[{"internalType":"address","name":"to","type":"address"},{"internalType":"uint256","name":"id","type":"uint256"},{"internalType":"uint256","name":"amount","type":"uint256"}],"name":"mint","outputs":[],"stateMutability":"nonpayable","type":"function"},{"inputs":[{"components":[{"internalType":"Currency","name":"currency0","type":"address"},{"internalType":"Currency","name":"currency1","type":"address"},{"internalType":"uint24","name":"fee","type":"uint24"},{"internalType":"int24","name":"tickSpacing","type":"int24"},{"internalType":"contract IHooks","name":"hooks","type":"address"}],"internalType":"struct PoolKey","name":"key","type":"tuple"},{"components":[{"internalType":"int24","name":"tickLower","type":"int24"},{"internalType":"int24","name":"tickUpper","type":"int24"},{"internalType":"int256","name":"liquidityDelta","type":"int256"},{"internalType":"bytes32","name":"salt","type":"bytes32"}],"internalType":"struct IPoolManager.ModifyLiquidityParams","name":"params","type":"tuple"},{"internalType":"bytes","name":"hookData","type":"bytes"}],"name":"modifyLiquidity","outputs":[{"internalType":"BalanceDelta","name":"","type":"int256"},{"internalType":"BalanceDelta","name":"","type":"int256"}],"stateMutability":"nonpayable","type":"function"},{"inputs":[],"name":"protocolFeeController","outputs":[{"internalType":"address","name":"","type":"address"}],"stateMutability":"pure","type":"function"},{"inputs":[{"internalType":"Currency","name":"currency","type":"address"}],"name":"protocolFeesAccrued","outputs":[{"internalType":"uint256","name":"","type":"uint256"}],"stateMutability":"pure","type":"function"},{"inputs":[{"internalType":"address","name":"operator","type":"address"},{"internalType":"bool","name":"approved","type":"bool"}],"name":"setOperator","outputs":[{"internalType":"bool","name":"","type":"bool"}],"stateMutability":"pure","type":"function"},{"inputs":[{"components":[{"internalType":"Currency","name":"currency0","type":"address"},{"internalType":"Currency","name":"currency1","type":"address"},{"internalType":"uint24","name":"fee","type":"uint24"},{"internalType":"int24","name":"tickSpacing","type":"int24"},{"internalType":"contract IHooks","name":"hooks","type":"address"}],"internalType":"struct PoolKey","name":"key","type":"tuple"},{"internalType":"uint24","name":"newProtocolFee","type":"uint24"}],"name":"setProtocolFee","outputs":[],"stateMutability":"nonpayable","type":"function"},{"inputs":[{"internalType":"address","name":"controller","type":"address"}],"name":"setProtocolFeeController","outputs":[],"stateMutability":"nonpayable","type":"function"},{"inputs":[],"name":"settle","outputs":[{"internalType":"uint256","name":"","type":"uint256"}],"stateMutability":"payable","type":"function"},{"inputs":[{"internalType":"address","name":"recipient","type":"address"}],"name":"settleFor","outputs":[{"internalType":"uint256","name":"","type":"uint256"}],"stateMutability":"payable","type":"function"},{"inputs":[{"components":[{"internalType":"Currency","name":"currency0","type":"address"},{"internalType":"Currency","name":"currency1","type":"address"},{"internalType":"uint24","name":"fee","type":"uint24"},{"internalType":"int24","name":"tickSpacing","type":"int24"},{"internalType":"contract IHooks","name":"hooks","type":"address"}],"internalType":"struct PoolKey","name":"key","type":"tuple"},{"components":[{"internalType":"bool","name":"zeroForOne","type":"bool"},{"internalType":"int256","name":"amountSpecified","type":"int256"},{"internalType":"uint160","name":"sqrtPriceLimitX96","type":"uint160"}],"internalType":"struct IPoolManager.SwapParams","name":"params","type":"tuple"},{"internalType":"bytes","name":"hookData","type":"bytes"}],"name":"swap","outputs":[{"internalType":"BalanceDelta","name":"","type":"int256"}],"stateMutability":"nonpayable","type":"function"},{"inputs":[{"internalType":"Currency","name":"currency","type":"address"}],"name":"sync","outputs":[],"stateMutability":"nonpayable","type":"function"},{"inputs":[{"internalType":"Currency","name":"currency","type":"address"},{"internalType":"address","name":"to","type":"address"},{"internalType":"uint256","name":"amount","type":"uint256"}],"name":"take","outputs":[],"stateMutability":"nonpayable","type":"function"},{"inputs":[{"internalType":"address","name":"to","type":"address"},{"internalType":"uint256","name":"id","type":"uint256"},{"internalType":"uint256","name":"amount","type":"uint256"}],"name":"transfer","outputs":[{"internalType":"bool","name":"","type":"bool"}],"stateMutability":"pure","type":"function"},{"inputs":[{"internalType":"address","name":"from","type":"address"},{"internalType":"address","name":"to","type":"address"},{"internalType":"uint256","name":"id","type":"uint256"},{"internalType":"uint256","name":"amount","type":"uint256"}],"name":"transferFrom","outputs":[{"internalType":"bool","name":"","type":"bool"}],"stateMutability":"pure","type":"function"},{"inputs":[{"internalType":"bytes","name":"data","type":"bytes"}],"name":"unlock","outputs":[{"internalType":"bytes","name":"","type":"bytes"}],"stateMutability":"nonpayable","type":"function"},{"inputs":[{"components":[{"internalType":"Currency","name":"currency0","type":"address"},{"internalType":"Currency","name":"currency1","type":"address"},{"internalType":"uint24","name":"fee","type":"uint24"},{"internalType":"int24","name":"tickSpacing","type":"int24"},{"internalType":"contract IHooks","name":"hooks","type":"address"}],"internalType":"struct PoolKey","name":"key","type":"tuple"},{"internalType":"uint24","name":"newDynamicLPFee","type":"uint24"}],"name":"updateDynamicLPFee","outputs":[],"stateMutability":"nonpayable","type":"function"},{"inputs":[{"internalType":"address","name":"_hookAddress","type":"address"}],"name":"validateHookAddress","outputs":[{"internalType":"bool","name":"","type":"bool"}],"stateMutability":"pure","type":"function"}],"evm":{"bytecode":{"linkReferences":{},"object":"60808060405234610016576108b4908161001c8239f35b600080fdfe608060408181526004918236101561001657600080fd5b600092833560e01c918262fdd58e1461057457508163095bcdb61461049e5781630b0d9c091461055157816311da60b41461053b578163156e29f61461052c5781631e2eaeaf1461027e578163234266d7146104ed5781632d7713891461030557816335fd631a146104bd5781633dd45adb146104a3578163426a84931461049e57816348c8949114610361578163527596511461037f578163558a72971461046e578163598af9e7146103425781635a6bcfda146103bc5781636276cbbe146103845781637e87ce7d1461037f57816380f0b44c1461036657816381548319146103615781638161b8741461034257816397e8cd4e146103235781639bf6645f1461029e578163a584119414610305578163b630571a146102d1578163b6363cf2146102a3578163dbd035ff1461029e578163f02de3b214610283578163f135baaa1461027e578163f3cd914c146101cd57508063f5298aca146101b55763fe99049a1461018457600080fd5b346101b15760803660031901126101b1576020906101a0610596565b506101a96105b1565b505160018152f35b5080fd5b82346101ca576101c4366105c7565b50505080f35b80fd5b8383346101b1576101203660031901126101b1576101ea3661065f565b5060603660a31901126101b157805167ffffffffffffffff90606081018281118282101761026b57835260a435801515810361026757815260c435602082015260e435906001600160a01b038216820361026757830152610104359081116102635760209361025b913691016106e9565b505051908152f35b8280fd5b8480fd5b634e487b7160e01b855260418652602485fd5b61060d565b5050346101b157816003193601126101b15751908152602090f35b610819565b5050346101b157806003193601126101b157906020916102c1610596565b506102ca6105b1565b5051908152f35b5050346101b15760203660031901126101b1576020906bffffffffffffffffffffffff6102fc610596565b16159051908152f35b83346101ca5760203660031901126101ca5761031f610596565b5080f35b5050346101b15760203660031901126101b157906020916102ca610596565b5050346101b15760603660031901126101b157906020916102c1610596565b610753565b5050346101b1573660031901126101ca5761031f610596565b6107ee565b5050346101b15760c03660031901126101b1576103a03661065f565b5060a4356001600160a01b038116036101b15751908152602090f35b839150346101b1576101403660031901126101b1576103da3661065f565b5060803660a31901126101b157825167ffffffffffffffff90608081018281118282101761045b57855260a4358060020b810361026757815260c4358060020b810361026757602082015260e43585820152606061010435910152610124359081116102635761044c913691016106e9565b50508151908082526020820152f35b634e487b7160e01b855260418452602485fd5b5050346101b157806003193601126101b157610488610596565b50602435801515036101b1576020905160018152f35b6105f1565b505060203660031901126101b157906020916102ca610596565b5050346101b157806003193601126101b157906104e9916104dc610629565b9182525191829182610717565b0390f35b8383346101b1576101003660031901126101b15761050a3661065f565b5060e43567ffffffffffffffff81116102635760209361025b913691016106e9565b83346101ca576101c4366105c7565b5050816003193601126101b15751908152602090f35b83346101ca5760603660031901126101ca5761056b610596565b5061031f6105b1565b84908434610263573660031901126101b157602091610591610596565b508152f35b600435906001600160a01b03821682036105ac57565b600080fd5b602435906001600160a01b03821682036105ac57565b60609060031901126105ac576004356001600160a01b03811681036105ac57906024359060443590565b346105ac576105ff366105c7565b505050602060405160018152f35b346105ac5760203660031901126105ac57602060405160008152f35b604051906020820182811067ffffffffffffffff82111761064957604052565b634e487b7160e01b600052604160045260246000fd5b60a09060031901126105ac576040519060a0820182811067ffffffffffffffff821117610649576040526001600160a01b038260043582811681036105ac57815260243582811681036105ac57602082015260443562ffffff811681036105ac5760408201526064358060020b81036105ac57606082015260843591821682036105ac5760800152565b9181601f840112156105ac5782359167ffffffffffffffff83116105ac57602083818601950101116105ac57565b602090602060408183019282815285518094520193019160005b82811061073f575050505090565b835185529381019392810192600101610731565b346105ac576020806003193601126105ac5767ffffffffffffffff6004358181116105ac576107869036906004016106e9565b505060408051909183820190811182821017610649578293919352600083528151928184928352815191828285015260005b8381106107d8575050600083830185015250601f01601f19168101030190f35b81810183015187820187015286945082016107b8565b346105ac5760c03660031901126105ac576108083661065f565b5060a43562ffffff8116036105ac57005b346105ac5760203660031901126105ac5767ffffffffffffffff6004358181116105ac57366023820112156105ac5780600401359182116105ac57602490369260051b0101116105ac576104e961086e610629565b600081526040519182918261071756fea2646970667358221220d58b8b88b384489d7b93941eeedb4fbc7dc55d6386c56fa754bc6b95765c53cb64736f6c63430008180033","opcodes":"PUSH1 0x80 DUP1 PUSH1 0x40 MSTORE CALLVALUE PUSH2 0x16 JUMPI PUSH2 0x8B4 SWAP1 DUP2 PUSH2 0x1C DUP3 CODECOPY RETURN JUMPDEST PUSH1 0x0 DUP1 REVERT INVALID PUSH1 0x80 PUSH1 0x40 DUP2 DUP2 MSTORE PUSH1 0x4 SWAP2 DUP3 CALLDATASIZE LT ISZERO PUSH2 0x16 JUMPI PUSH1 0x0 DUP1 REVERT JUMPDEST PUSH1 0x0 SWAP3 DUP4 CALLDATALOAD PUSH1 0xE0 SHR SWAP2 DUP3 PUSH3 0xFDD58E EQ PUSH2 0x574 JUMPI POP DUP2 PUSH4 0x95BCDB6 EQ PUSH2 0x49E JUMPI DUP2 PUSH4 0xB0D9C09 EQ PUSH2 0x551 JUMPI DUP2 PUSH4 0x11DA60B4 EQ PUSH2 0x53B JUMPI DUP2 PUSH4 0x156E29F6 EQ PUSH2 0x52C JUMPI DUP2 PUSH4 0x1E2EAEAF EQ PUSH2 0x27E JUMPI DUP2 PUSH4 0x234266D7 EQ PUSH2 0x4ED JUMPI DUP2 PUSH4 0x2D771389 EQ PUSH2 0x305 JUMPI DUP2 PUSH4 0x35FD631A EQ PUSH2 0x4BD JUMPI DUP2 PUSH4 0x3DD45ADB EQ PUSH2 0x4A3 JUMPI DUP2 PUSH4 0x426A8493 EQ PUSH2 0x49E JUMPI DUP2 PUSH4 0x48C89491 EQ PUSH2 0x361 JUMPI DUP2 PUSH4 0x52759651 EQ PUSH2 0x37F JUMPI DUP2 PUSH4 0x558A7297 EQ PUSH2 0x46E JUMPI DUP2 PUSH4 0x598AF9E7 EQ PUSH2 0x342 JUMPI DUP2 PUSH4 0x5A6BCFDA EQ PUSH2 0x3BC JUMPI DUP2 PUSH4 0x6276CBBE EQ PUSH2 0x384 JUMPI DUP2 PUSH4 0x7E87CE7D EQ PUSH2 0x37F JUMPI DUP2 PUSH4 0x80F0B44C EQ PUSH2 0x366 JUMPI DUP2 PUSH4 0x81548319 EQ PUSH2 0x361 JUMPI DUP2 PUSH4 0x8161B874 EQ PUSH2 0x342 JUMPI DUP2 PUSH4 0x97E8CD4E EQ PUSH2 0x323 JUMPI DUP2 PUSH4 0x9BF6645F EQ PUSH2 0x29E JUMPI DUP2 PUSH4 0xA5841194 EQ PUSH2 0x305 JUMPI DUP2 PUSH4 0xB630571A EQ PUSH2 0x2D1 JUMPI DUP2 PUSH4 0xB6363CF2 EQ PUSH2 0x2A3 JUMPI DUP2 PUSH4 0xDBD035FF EQ PUSH2 0x29E JUMPI DUP2 PUSH4 0xF02DE3B2 EQ PUSH2 0x283 JUMPI DUP2 PUSH4 0xF135BAAA EQ PUSH2 0x27E JUMPI DUP2 PUSH4 0xF3CD914C EQ PUSH2 0x1CD JUMPI POP DUP1 PUSH4 0xF5298ACA EQ PUSH2 0x1B5 JUMPI PUSH4 0xFE99049A EQ PUSH2 0x184 JUMPI PUSH1 0x0 DUP1 REVERT JUMPDEST CALLVALUE PUSH2 0x1B1 JUMPI PUSH1 0x80 CALLDATASIZE PUSH1 0x3 NOT ADD SLT PUSH2 0x1B1 JUMPI PUSH1 0x20 SWAP1 PUSH2 0x1A0 PUSH2 0x596 JUMP JUMPDEST POP PUSH2 0x1A9 PUSH2 0x5B1 JUMP JUMPDEST POP MLOAD PUSH1 0x1 DUP2 MSTORE RETURN JUMPDEST POP DUP1 REVERT JUMPDEST DUP3 CALLVALUE PUSH2 0x1CA JUMPI PUSH2 0x1C4 CALLDATASIZE PUSH2 0x5C7 JUMP JUMPDEST POP POP POP DUP1 RETURN JUMPDEST DUP1 REVERT JUMPDEST DUP4 DUP4 CALLVALUE PUSH2 0x1B1 JUMPI PUSH2 0x120 CALLDATASIZE PUSH1 0x3 NOT ADD SLT PUSH2 0x1B1 JUMPI PUSH2 0x1EA CALLDATASIZE PUSH2 0x65F JUMP JUMPDEST POP PUSH1 0x60 CALLDATASIZE PUSH1 0xA3 NOT ADD SLT PUSH2 0x1B1 JUMPI DUP1 MLOAD PUSH8 0xFFFFFFFFFFFFFFFF SWAP1 PUSH1 0x60 DUP2 ADD DUP3 DUP2 GT DUP3 DUP3 LT OR PUSH2 0x26B JUMPI DUP4 MSTORE PUSH1 0xA4 CALLDATALOAD DUP1 ISZERO ISZERO DUP2 SUB PUSH2 0x267 JUMPI DUP2 MSTORE PUSH1 0xC4 CALLDATALOAD PUSH1 0x20 DUP3 ADD MSTORE PUSH1 0xE4 CALLDATALOAD SWAP1 PUSH1 0x1 PUSH1 0x1 PUSH1 0xA0 SHL SUB DUP3 AND DUP3 SUB PUSH2 0x267 JUMPI DUP4 ADD MSTORE PUSH2 0x104 CALLDATALOAD SWAP1 DUP2 GT PUSH2 0x263 JUMPI PUSH1 0x20 SWAP4 PUSH2 0x25B SWAP2 CALLDATASIZE SWAP2 ADD PUSH2 0x6E9 JUMP JUMPDEST POP POP MLOAD SWAP1 DUP2 MSTORE RETURN JUMPDEST DUP3 DUP1 REVERT JUMPDEST DUP5 DUP1 REVERT JUMPDEST PUSH4 0x4E487B71 PUSH1 0xE0 SHL DUP6 MSTORE PUSH1 0x41 DUP7 MSTORE PUSH1 0x24 DUP6 REVERT JUMPDEST PUSH2 0x60D JUMP JUMPDEST POP POP CALLVALUE PUSH2 0x1B1 JUMPI DUP2 PUSH1 0x3 NOT CALLDATASIZE ADD SLT PUSH2 0x1B1 JUMPI MLOAD SWAP1 DUP2 MSTORE PUSH1 0x20 SWAP1 RETURN JUMPDEST PUSH2 0x819 JUMP JUMPDEST POP POP CALLVALUE PUSH2 0x1B1 JUMPI DUP1 PUSH1 0x3 NOT CALLDATASIZE ADD SLT PUSH2 0x1B1 JUMPI SWAP1 PUSH1 0x20 SWAP2 PUSH2 0x2C1 PUSH2 0x596 JUMP JUMPDEST POP PUSH2 0x2CA PUSH2 0x5B1 JUMP JUMPDEST POP MLOAD SWAP1 DUP2 MSTORE RETURN JUMPDEST POP POP CALLVALUE PUSH2 0x1B1 JUMPI PUSH1 0x20 CALLDATASIZE PUSH1 0x3 NOT ADD SLT PUSH2 0x1B1 JUMPI PUSH1 0x20 SWAP1 PUSH12 0xFFFFFFFFFFFFFFFFFFFFFFFF PUSH2 0x2FC PUSH2 0x596 JUMP JUMPDEST AND ISZERO SWAP1 MLOAD SWAP1 DUP2 MSTORE RETURN JUMPDEST DUP4 CALLVALUE PUSH2 0x1CA JUMPI PUSH1 0x20 CALLDATASIZE PUSH1 0x3 NOT ADD SLT PUSH2 0x1CA JUMPI PUSH2 0x31F PUSH2 0x596 JUMP JUMPDEST POP DUP1 RETURN JUMPDEST POP POP CALLVALUE PUSH2 0x1B1 JUMPI PUSH1 0x20 CALLDATASIZE PUSH1 0x3 NOT ADD SLT PUSH2 0x1B1 JUMPI SWAP1 PUSH1 0x20 SWAP2 PUSH2 0x2CA PUSH2 0x596 JUMP JUMPDEST POP POP CALLVALUE PUSH2 0x1B1 JUMPI PUSH1 0x60 CALLDATASIZE PUSH1 0x3 NOT ADD SLT PUSH2 0x1B1 JUMPI SWAP1 PUSH1 0x20 SWAP2 PUSH2 0x2C1 PUSH2 0x596 JUMP JUMPDEST PUSH2 0x753 JUMP JUMPDEST POP POP CALLVALUE PUSH2 0x1B1 JUMPI CALLDATASIZE PUSH1 0x3 NOT ADD SLT PUSH2 0x1CA JUMPI PUSH2 0x31F PUSH2 0x596 JUMP JUMPDEST PUSH2 0x7EE JUMP JUMPDEST POP POP CALLVALUE PUSH2 0x1B1 JUMPI PUSH1 0xC0 CALLDATASIZE PUSH1 0x3 NOT ADD SLT PUSH2 0x1B1 JUMPI PUSH2 0x3A0 CALLDATASIZE PUSH2 0x65F JUMP JUMPDEST POP PUSH1 0xA4 CALLDATALOAD PUSH1 0x1 PUSH1 0x1 PUSH1 0xA0 SHL SUB DUP2 AND SUB PUSH2 0x1B1 JUMPI MLOAD SWAP1 DUP2 MSTORE PUSH1 0x20 SWAP1 RETURN JUMPDEST DUP4 SWAP2 POP CALLVALUE PUSH2 0x1B1 JUMPI PUSH2 0x140 CALLDATASIZE PUSH1 0x3 NOT ADD SLT PUSH2 0x1B1 JUMPI PUSH2 0x3DA CALLDATASIZE PUSH2 0x65F JUMP JUMPDEST POP PUSH1 0x80 CALLDATASIZE PUSH1 0xA3 NOT ADD SLT PUSH2 0x1B1 JUMPI DUP3 MLOAD PUSH8 0xFFFFFFFFFFFFFFFF SWAP1 PUSH1 0x80 DUP2 ADD DUP3 DUP2 GT DUP3 DUP3 LT OR PUSH2 0x45B JUMPI DUP6 MSTORE PUSH1 0xA4 CALLDATALOAD DUP1 PUSH1 0x2 SIGNEXTEND DUP2 SUB PUSH2 0x267 JUMPI DUP2 MSTORE PUSH1 0xC4 CALLDATALOAD DUP1 PUSH1 0x2 SIGNEXTEND DUP2 SUB PUSH2 0x267 JUMPI PUSH1 0x20 DUP3 ADD MSTORE PUSH1 0xE4 CALLDATALOAD DUP6 DUP3 ADD MSTORE PUSH1 0x60 PUSH2 0x104 CALLDATALOAD SWAP2 ADD MSTORE PUSH2 0x124 CALLDATALOAD SWAP1 DUP2 GT PUSH2 0x263 JUMPI PUSH2 0x44C SWAP2 CALLDATASIZE SWAP2 ADD PUSH2 0x6E9 JUMP JUMPDEST POP POP DUP2 MLOAD SWAP1 DUP1 DUP3 MSTORE PUSH1 0x20 DUP3 ADD MSTORE RETURN JUMPDEST PUSH4 0x4E487B71 PUSH1 0xE0 SHL DUP6 MSTORE PUSH1 0x41 DUP5 MSTORE PUSH1 0x24 DUP6 REVERT JUMPDEST POP POP CALLVALUE PUSH2 0x1B1 JUMPI DUP1 PUSH1 0x3 NOT CALLDATASIZE ADD SLT PUSH2 0x1B1 JUMPI PUSH2 0x488 PUSH2 0x596 JUMP JUMPDEST POP PUSH1 0x24 CALLDATALOAD DUP1 ISZERO ISZERO SUB PUSH2 0x1B1 JUMPI PUSH1 0x20 SWAP1 MLOAD PUSH1 0x1 DUP2 MSTORE RETURN JUMPDEST PUSH2 0x5F1 JUMP JUMPDEST POP POP PUSH1 0x20 CALLDATASIZE PUSH1 0x3 NOT ADD SLT PUSH2 0x1B1 JUMPI SWAP1 PUSH1 0x20 SWAP2 PUSH2 0x2CA PUSH2 0x596 JUMP JUMPDEST POP POP CALLVALUE PUSH2 0x1B1 JUMPI DUP1 PUSH1 0x3 NOT CALLDATASIZE ADD SLT PUSH2 0x1B1 JUMPI SWAP1 PUSH2 0x4E9 SWAP2 PUSH2 0x4DC PUSH2 0x629 JUMP JUMPDEST SWAP2 DUP3 MSTORE MLOAD SWAP2 DUP3 SWAP2 DUP3 PUSH2 0x717 JUMP JUMPDEST SUB SWAP1 RETURN JUMPDEST DUP4 DUP4 CALLVALUE PUSH2 0x1B1 JUMPI PUSH2 0x100 CALLDATASIZE PUSH1 0x3 NOT ADD SLT PUSH2 0x1B1 JUMPI PUSH2 0x50A CALLDATASIZE PUSH2 0x65F JUMP JUMPDEST POP PUSH1 0xE4 CALLDATALOAD PUSH8 0xFFFFFFFFFFFFFFFF DUP2 GT PUSH2 0x263 JUMPI PUSH1 0x20 SWAP4 PUSH2 0x25B SWAP2 CALLDATASIZE SWAP2 ADD PUSH2 0x6E9 JUMP JUMPDEST DUP4 CALLVALUE PUSH2 0x1CA JUMPI PUSH2 0x1C4 CALLDATASIZE PUSH2 0x5C7 JUMP JUMPDEST POP POP DUP2 PUSH1 0x3 NOT CALLDATASIZE ADD SLT PUSH2 0x1B1 JUMPI MLOAD SWAP1 DUP2 MSTORE PUSH1 0x20 SWAP1 RETURN JUMPDEST DUP4 CALLVALUE PUSH2 0x1CA JUMPI PUSH1 0x60 CALLDATASIZE PUSH1 0x3 NOT ADD SLT PUSH2 0x1CA JUMPI PUSH2 0x56B PUSH2 0x596 JUMP JUMPDEST POP PUSH2 0x31F PUSH2 0x5B1 JUMP JUMPDEST DUP5 SWAP1 DUP5 CALLVALUE PUSH2 0x263 JUMPI CALLDATASIZE PUSH1 0x3 NOT ADD SLT PUSH2 0x1B1 JUMPI PUSH1 0x20 SWAP2 PUSH2 0x591 PUSH2 0x596 JUMP JUMPDEST POP DUP2 MSTORE RETURN JUMPDEST PUSH1 0x4 CALLDATALOAD SWAP1 PUSH1 0x1 PUSH1 0x1 PUSH1 0xA0 SHL SUB DUP3 AND DUP3 SUB PUSH2 0x5AC JUMPI JUMP JUMPDEST PUSH1 0x0 DUP1 REVERT JUMPDEST PUSH1 0x24 CALLDATALOAD SWAP1 PUSH1 0x1 PUSH1 0x1 PUSH1 0xA0 SHL SUB DUP3 AND DUP3 SUB PUSH2 0x5AC JUMPI JUMP JUMPDEST PUSH1 0x60 SWAP1 PUSH1 0x3 NOT ADD SLT PUSH2 0x5AC JUMPI PUSH1 0x4 CALLDATALOAD PUSH1 0x1 PUSH1 0x1 PUSH1 0xA0 SHL SUB DUP2 AND DUP2 SUB PUSH2 0x5AC JUMPI SWAP1 PUSH1 0x24 CALLDATALOAD SWAP1 PUSH1 0x44 CALLDATALOAD SWAP1 JUMP JUMPDEST CALLVALUE PUSH2 0x5AC JUMPI PUSH2 0x5FF CALLDATASIZE PUSH2 0x5C7 JUMP JUMPDEST POP POP POP PUSH1 0x20 PUSH1 0x40 MLOAD PUSH1 0x1 DUP2 MSTORE RETURN JUMPDEST CALLVALUE PUSH2 0x5AC JUMPI PUSH1 0x20 CALLDATASIZE PUSH1 0x3 NOT ADD SLT PUSH2 0x5AC JUMPI PUSH1 0x20 PUSH1 0x40 MLOAD PUSH1 0x0 DUP2 MSTORE RETURN JUMPDEST PUSH1 0x40 MLOAD SWAP1 PUSH1 0x20 DUP3 ADD DUP3 DUP2 LT PUSH8 0xFFFFFFFFFFFFFFFF DUP3 GT OR PUSH2 0x649 JUMPI PUSH1 0x40 MSTORE JUMP JUMPDEST PUSH4 0x4E487B71 PUSH1 0xE0 SHL PUSH1 0x0 MSTORE PUSH1 0x41 PUSH1 0x4 MSTORE PUSH1 0x24 PUSH1 0x0 REVERT JUMPDEST PUSH1 0xA0 SWAP1 PUSH1 0x3 NOT ADD SLT PUSH2 0x5AC JUMPI PUSH1 0x40 MLOAD SWAP1 PUSH1 0xA0 DUP3 ADD DUP3 DUP2 LT PUSH8 0xFFFFFFFFFFFFFFFF DUP3 GT OR PUSH2 0x649 JUMPI PUSH1 0x40 MSTORE PUSH1 0x1 PUSH1 0x1 PUSH1 0xA0 SHL SUB DUP3 PUSH1 0x4 CALLDATALOAD DUP3 DUP2 AND DUP2 SUB PUSH2 0x5AC JUMPI DUP2 MSTORE PUSH1 0x24 CALLDATALOAD DUP3 DUP2 AND DUP2 SUB PUSH2 0x5AC JUMPI PUSH1 0x20 DUP3 ADD MSTORE PUSH1 0x44 CALLDATALOAD PUSH3 0xFFFFFF DUP2 AND DUP2 SUB PUSH2 0x5AC JUMPI PUSH1 0x40 DUP3 ADD MSTORE PUSH1 0x64 CALLDATALOAD DUP1 PUSH1 0x2 SIGNEXTEND DUP2 SUB PUSH2 0x5AC JUMPI PUSH1 0x60 DUP3 ADD MSTORE PUSH1 0x84 CALLDATALOAD SWAP2 DUP3 AND DUP3 SUB PUSH2 0x5AC JUMPI PUSH1 0x80 ADD MSTORE JUMP JUMPDEST SWAP2 DUP2 PUSH1 0x1F DUP5 ADD SLT ISZERO PUSH2 0x5AC JUMPI DUP3 CALLDATALOAD SWAP2 PUSH8 0xFFFFFFFFFFFFFFFF DUP4 GT PUSH2 0x5AC JUMPI PUSH1 0x20 DUP4 DUP2 DUP7 ADD SWAP6 ADD ADD GT PUSH2 0x5AC JUMPI JUMP JUMPDEST PUSH1 0x20 SWAP1 PUSH1 0x20 PUSH1 0x40 DUP2 DUP4 ADD SWAP3 DUP3 DUP2 MSTORE DUP6 MLOAD DUP1 SWAP5 MSTORE ADD SWAP4 ADD SWAP2 PUSH1 0x0 JUMPDEST DUP3 DUP2 LT PUSH2 0x73F JUMPI POP POP POP POP SWAP1 JUMP JUMPDEST DUP4 MLOAD DUP6 MSTORE SWAP4 DUP2 ADD SWAP4 SWAP3 DUP2 ADD SWAP3 PUSH1 0x1 ADD PUSH2 0x731 JUMP JUMPDEST CALLVALUE PUSH2 0x5AC JUMPI PUSH1 0x20 DUP1 PUSH1 0x3 NOT CALLDATASIZE ADD SLT PUSH2 0x5AC JUMPI PUSH8 0xFFFFFFFFFFFFFFFF PUSH1 0x4 CALLDATALOAD DUP2 DUP2 GT PUSH2 0x5AC JUMPI PUSH2 0x786 SWAP1 CALLDATASIZE SWAP1 PUSH1 0x4 ADD PUSH2 0x6E9 JUMP JUMPDEST POP POP PUSH1 0x40 DUP1 MLOAD SWAP1 SWAP2 DUP4 DUP3 ADD SWAP1 DUP2 GT DUP3 DUP3 LT OR PUSH2 0x649 JUMPI DUP3 SWAP4 SWAP2 SWAP4 MSTORE PUSH1 0x0 DUP4 MSTORE DUP2 MLOAD SWAP3 DUP2 DUP5 SWAP3 DUP4 MSTORE DUP2 MLOAD SWAP2 DUP3 DUP3 DUP6 ADD MSTORE PUSH1 0x0 JUMPDEST DUP4 DUP2 LT PUSH2 0x7D8 JUMPI POP POP PUSH1 0x0 DUP4 DUP4 ADD DUP6 ADD MSTORE POP PUSH1 0x1F ADD PUSH1 0x1F NOT AND DUP2 ADD SUB ADD SWAP1 RETURN JUMPDEST DUP2 DUP2 ADD DUP4 ADD MLOAD DUP8 DUP3 ADD DUP8 ADD MSTORE DUP7 SWAP5 POP DUP3 ADD PUSH2 0x7B8 JUMP JUMPDEST CALLVALUE PUSH2 0x5AC JUMPI PUSH1 0xC0 CALLDATASIZE PUSH1 0x3 NOT ADD SLT PUSH2 0x5AC JUMPI PUSH2 0x808 CALLDATASIZE PUSH2 0x65F JUMP JUMPDEST POP PUSH1 0xA4 CALLDATALOAD PUSH3 0xFFFFFF DUP2 AND SUB PUSH2 0x5AC JUMPI STOP JUMPDEST CALLVALUE PUSH2 0x5AC JUMPI PUSH1 0x20 CALLDATASIZE PUSH1 0x3 NOT ADD SLT PUSH2 0x5AC JUMPI PUSH8 0xFFFFFFFFFFFFFFFF PUSH1 0x4 CALLDATALOAD DUP2 DUP2 GT PUSH2 0x5AC JUMPI CALLDATASIZE PUSH1 0x23 DUP3 ADD SLT ISZERO PUSH2 0x5AC JUMPI DUP1 PUSH1 0x4 ADD CALLDATALOAD SWAP2 DUP3 GT PUSH2 0x5AC JUMPI PUSH1 0x24 SWAP1 CALLDATASIZE SWAP3 PUSH1 0x5 SHL ADD ADD GT PUSH2 0x5AC JUMPI PUSH2 0x4E9 PUSH2 0x86E PUSH2 0x629 JUMP JUMPDEST PUSH1 0x0 DUP2 MSTORE PUSH1 0x40 MLOAD SWAP2 DUP3 SWAP2 DUP3 PUSH2 0x717 JUMP INVALID LOG2 PUSH5 0x6970667358 0x22 SLT KECCAK256 0xD5 DUP12 DUP12 DUP9 0xB3 DUP5 BASEFEE SWAP14 PUSH28 0x93941EEEDB4FBC7DC55D6386C56FA754BC6B95765C53CB64736F6C63 NUMBER STOP ADDMOD XOR STOP CALLER "},"methodIdentifiers":{"allowance(address,address,uint256)":"598af9e7","approve(address,uint256,uint256)":"426a8493","balanceOf(address,uint256)":"00fdd58e","burn(address,uint256,uint256)":"f5298aca","clear(address,uint256)":"80f0b44c","collectProtocolFees(address,address,uint256)":"8161b874","donate((address,address,uint24,int24,address),uint256,uint256,bytes)":"234266d7","extsload(bytes32)":"1e2eaeaf","extsload(bytes32,uint256)":"35fd631a","extsload(bytes32[])":"dbd035ff","exttload(bytes32)":"f135baaa","exttload(bytes32[])":"9bf6645f","initialize((address,address,uint24,int24,address),uint160)":"6276cbbe","isOperator(address,address)":"b6363cf2","lock(bytes)":"81548319","mint(address,uint256,uint256)":"156e29f6","modifyLiquidity((address,address,uint24,int24,address),(int24,int24,int256,bytes32),bytes)":"5a6bcfda","protocolFeeController()":"f02de3b2","protocolFeesAccrued(address)":"97e8cd4e","setOperator(address,bool)":"558a7297","setProtocolFee((address,address,uint24,int24,address),uint24)":"7e87ce7d","setProtocolFeeController(address)":"2d771389","settle()":"11da60b4","settleFor(address)":"3dd45adb","swap((address,address,uint24,int24,address),(bool,int256,uint160),bytes)":"f3cd914c","sync(address)":"a5841194","take(address,address,uint256)":"0b0d9c09","transfer(address,uint256,uint256)":"095bcdb6","transferFrom(address,address,uint256,uint256)":"fe99049a","unlock(bytes)":"48c89491","updateDynamicLPFee((address,address,uint24,int24,address),uint24)":"52759651","validateHookAddress(address)":"b630571a"}}}}}