{"contracts/hooks/YieldOptimizerHook.sol":{"YieldOptimizerHook":{"abi":[{"inputs":[{"internalType":"contract IPoolManager","name":"_poolManager","type":"address"}],"stateMutability":"nonpayable","type":"constructor"},{"inputs":[],"name":"HookNotImplemented","type":"error"},{"inputs":[],"name":"InvalidPool","type":"error"},{"inputs":[],"name":"LockFailure","type":"error"},{"inputs":[],"name":"NotPoolManager","type":"error"},{"inputs":[],"name":"NotSelf","type":"error"},{"anonymous":false,"inputs":[{"indexed":true,"internalType":"address","name":"user","type":"address"},{"indexed":true,"internalType":"address","name":"token","type":"address"},{"indexed":false,"internalType":"uint256","name":"amount","type":"uint256"}],"name":"Deposit","type":"event"},{"anonymous":false,"inputs":[{"indexed":true,"internalType":"address","name":"user","type":"address"},{"indexed":false,"internalType":"address","name":"tokenIn","type":"address"},{"indexed":false,"internalType":"address","name":"tokenOut","type":"address"},{"indexed":false,"internalType":"uint256","name":"amountIn","type":"uint256"},{"indexed":false,"internalType":"uint256","name":"amountOut","type":"uint256"},{"indexed":false,"internalType":"uint256","name":"gasSaved","type":"uint256"}],"name":"OptimizedSwap","type":"event"},{"anonymous":false,"inputs":[{"indexed":true,"internalType":"address","name":"user","type":"address"},{"indexed":true,"internalType":"address","name":"token","type":"address"},{"indexed":false,"internalType":"uint256","name":"amount","type":"uint256"}],"name":"Withdrawal","type":"event"},{"anonymous":false,"inputs":[{"indexed":true,"internalType":"address","name":"pool","type":"address"},{"indexed":false,"internalType":"uint256","name":"timestamp","type":"uint256"},{"indexed":false,"internalType":"uint256","name":"currentYield","type":"uint256"}],"name":"YieldTracked","type":"event"},{"inputs":[],"name":"REBALANCE_THRESHOLD","outputs":[{"internalType":"uint256","name":"","type":"uint256"}],"stateMutability":"view","type":"function"},{"inputs":[{"internalType":"address","name":"","type":"address"},{"components":[{"internalType":"Currency","name":"currency0","type":"address"},{"internalType":"Currency","name":"currency1","type":"address"},{"internalType":"uint24","name":"fee","type":"uint24"},{"internalType":"int24","name":"tickSpacing","type":"int24"},{"internalType":"contract IHooks","name":"hooks","type":"address"}],"internalType":"struct PoolKey","name":"","type":"tuple"},{"components":[{"internalType":"int24","name":"tickLower","type":"int24"},{"internalType":"int24","name":"tickUpper","type":"int24"},{"internalType":"int256","name":"liquidityDelta","type":"int256"},{"internalType":"bytes32","name":"salt","type":"bytes32"}],"internalType":"struct IPoolManager.ModifyLiquidityParams","name":"","type":"tuple"},{"internalType":"BalanceDelta","name":"","type":"int256"},{"internalType":"BalanceDelta","name":"","type":"int256"},{"internalType":"bytes","name":"","type":"bytes"}],"name":"afterAddLiquidity","outputs":[{"internalType":"bytes4","name":"","type":"bytes4"},{"internalType":"BalanceDelta","name":"","type":"int256"}],"stateMutability":"nonpayable","type":"function"},{"inputs":[{"internalType":"address","name":"","type":"address"},{"components":[{"internalType":"Currency","name":"currency0","type":"address"},{"internalType":"Currency","name":"currency1","type":"address"},{"internalType":"uint24","name":"fee","type":"uint24"},{"internalType":"int24","name":"tickSpacing","type":"int24"},{"internalType":"contract IHooks","name":"hooks","type":"address"}],"internalType":"struct PoolKey","name":"","type":"tuple"},{"internalType":"uint256","name":"","type":"uint256"},{"internalType":"uint256","name":"","type":"uint256"},{"internalType":"bytes","name":"","type":"bytes"}],"name":"afterDonate","outputs":[{"internalType":"bytes4","name":"","type":"bytes4"}],"stateMutability":"nonpayable","type":"function"},{"inputs":[{"internalType":"address","name":"","type":"address"},{"components":[{"internalType":"Currency","name":"currency0","type":"address"},{"internalType":"Currency","name":"currency1","type":"address"},{"internalType":"uint24","name":"fee","type":"uint24"},{"internalType":"int24","name":"tickSpacing","type":"int24"},{"internalType":"contract IHooks","name":"hooks","type":"address"}],"internalType":"struct PoolKey","name":"","type":"tuple"},{"internalType":"uint160","name":"","type":"uint160"},{"internalType":"int24","name":"","type":"int24"}],"name":"afterInitialize","outputs":[{"internalType":"bytes4","name":"","type":"bytes4"}],"stateMutability":"nonpayable","type":"function"},{"inputs":[{"internalType":"address","name":"","type":"address"},{"components":[{"internalType":"Currency","name":"currency0","type":"address"},{"internalType":"Currency","name":"currency1","type":"address"},{"internalType":"uint24","name":"fee","type":"uint24"},{"internalType":"int24","name":"tickSpacing","type":"int24"},{"internalType":"contract IHooks","name":"hooks","type":"address"}],"internalType":"struct PoolKey","name":"","type":"tuple"},{"components":[{"internalType":"int24","name":"tickLower","type":"int24"},{"internalType":"int24","name":"tickUpper","type":"int24"},{"internalType":"int256","name":"liquidityDelta","type":"int256"},{"internalType":"bytes32","name":"salt","type":"bytes32"}],"internalType":"struct IPoolManager.ModifyLiquidityParams","name":"","type":"tuple"},{"internalType":"BalanceDelta","name":"","type":"int256"},{"internalType":"BalanceDelta","name":"","type":"int256"},{"internalType":"bytes","name":"","type":"bytes"}],"name":"afterRemoveLiquidity","outputs":[{"internalType":"bytes4","name":"","type":"bytes4"},{"internalType":"BalanceDelta","name":"","type":"int256"}],"stateMutability":"nonpayable","type":"function"},{"inputs":[{"internalType":"address","name":"sender","type":"address"},{"components":[{"internalType":"Currency","name":"currency0","type":"address"},{"internalType":"Currency","name":"currency1","type":"address"},{"internalType":"uint24","name":"fee","type":"uint24"},{"internalType":"int24","name":"tickSpacing","type":"int24"},{"internalType":"contract IHooks","name":"hooks","type":"address"}],"internalType":"struct PoolKey","name":"key","type":"tuple"},{"components":[{"internalType":"bool","name":"zeroForOne","type":"bool"},{"internalType":"int256","name":"amountSpecified","type":"int256"},{"internalType":"uint160","name":"sqrtPriceLimitX96","type":"uint160"}],"internalType":"struct IPoolManager.SwapParams","name":"params","type":"tuple"},{"internalType":"BalanceDelta","name":"delta","type":"int256"},{"internalType":"bytes","name":"hookData","type":"bytes"}],"name":"afterSwap","outputs":[{"internalType":"bytes4","name":"","type":"bytes4"},{"internalType":"int128","name":"","type":"int128"}],"stateMutability":"nonpayable","type":"function"},{"inputs":[{"internalType":"address","name":"","type":"address"},{"components":[{"internalType":"Currency","name":"currency0","type":"address"},{"internalType":"Currency","name":"currency1","type":"address"},{"internalType":"uint24","name":"fee","type":"uint24"},{"internalType":"int24","name":"tickSpacing","type":"int24"},{"internalType":"contract IHooks","name":"hooks","type":"address"}],"internalType":"struct PoolKey","name":"","type":"tuple"},{"components":[{"internalType":"int24","name":"tickLower","type":"int24"},{"internalType":"int24","name":"tickUpper","type":"int24"},{"internalType":"int256","name":"liquidityDelta","type":"int256"},{"internalType":"bytes32","name":"salt","type":"bytes32"}],"internalType":"struct IPoolManager.ModifyLiquidityParams","name":"","type":"tuple"},{"internalType":"bytes","name":"","type":"bytes"}],"name":"beforeAddLiquidity","outputs":[{"internalType":"bytes4","name":"","type":"bytes4"}],"stateMutability":"nonpayable","type":"function"},{"inputs":[{"internalType":"address","name":"","type":"address"},{"components":[{"internalType":"Currency","name":"currency0","type":"address"},{"internalType":"Currency","name":"currency1","type":"address"},{"internalType":"uint24","name":"fee","type":"uint24"},{"internalType":"int24","name":"tickSpacing","type":"int24"},{"internalType":"contract IHooks","name":"hooks","type":"address"}],"internalType":"struct PoolKey","name":"","type":"tuple"},{"internalType":"uint256","name":"","type":"uint256"},{"internalType":"uint256","name":"","type":"uint256"},{"internalType":"bytes","name":"","type":"bytes"}],"name":"beforeDonate","outputs":[{"internalType":"bytes4","name":"","type":"bytes4"}],"stateMutability":"nonpayable","type":"function"},{"inputs":[{"internalType":"address","name":"","type":"address"},{"components":[{"internalType":"Currency","name":"currency0","type":"address"},{"internalType":"Currency","name":"currency1","type":"address"},{"internalType":"uint24","name":"fee","type":"uint24"},{"internalType":"int24","name":"tickSpacing","type":"int24"},{"internalType":"contract IHooks","name":"hooks","type":"address"}],"internalType":"struct PoolKey","name":"","type":"tuple"},{"internalType":"uint160","name":"","type":"uint160"}],"name":"beforeInitialize","outputs":[{"internalType":"bytes4","name":"","type":"bytes4"}],"stateMutability":"nonpayable","type":"function"},{"inputs":[{"internalType":"address","name":"","type":"address"},{"components":[{"internalType":"Currency","name":"currency0","type":"address"},{"internalType":"Currency","name":"currency1","type":"address"},{"internalType":"uint24","name":"fee","type":"uint24"},{"internalType":"int24","name":"tickSpacing","type":"int24"},{"internalType":"contract IHooks","name":"hooks","type":"address"}],"internalType":"struct PoolKey","name":"","type":"tuple"},{"components":[{"internalType":"int24","name":"tickLower","type":"int24"},{"internalType":"int24","name":"tickUpper","type":"int24"},{"internalType":"int256","name":"liquidityDelta","type":"int256"},{"internalType":"bytes32","name":"salt","type":"bytes32"}],"internalType":"struct IPoolManager.ModifyLiquidityParams","name":"","type":"tuple"},{"internalType":"bytes","name":"","type":"bytes"}],"name":"beforeRemoveLiquidity","outputs":[{"internalType":"bytes4","name":"","type":"bytes4"}],"stateMutability":"nonpayable","type":"function"},{"inputs":[{"internalType":"address","name":"sender","type":"address"},{"components":[{"internalType":"Currency","name":"currency0","type":"address"},{"internalType":"Currency","name":"currency1","type":"address"},{"internalType":"uint24","name":"fee","type":"uint24"},{"internalType":"int24","name":"tickSpacing","type":"int24"},{"internalType":"contract IHooks","name":"hooks","type":"address"}],"internalType":"struct PoolKey","name":"key","type":"tuple"},{"components":[{"internalType":"bool","name":"zeroForOne","type":"bool"},{"internalType":"int256","name":"amountSpecified","type":"int256"},{"internalType":"uint160","name":"sqrtPriceLimitX96","type":"uint160"}],"internalType":"struct IPoolManager.SwapParams","name":"params","type":"tuple"},{"internalType":"bytes","name":"hookData","type":"bytes"}],"name":"beforeSwap","outputs":[{"internalType":"bytes4","name":"","type":"bytes4"},{"internalType":"BeforeSwapDelta","name":"","type":"int256"},{"internalType":"uint24","name":"","type":"uint24"}],"stateMutability":"nonpayable","type":"function"},{"inputs":[{"internalType":"address","name":"token","type":"address"},{"internalType":"uint256","name":"amount","type":"uint256"}],"name":"deposit","outputs":[],"stateMutability":"nonpayable","type":"function"},{"inputs":[],"name":"getHookPermissions","outputs":[{"components":[{"internalType":"bool","name":"beforeInitialize","type":"bool"},{"internalType":"bool","name":"afterInitialize","type":"bool"},{"internalType":"bool","name":"beforeAddLiquidity","type":"bool"},{"internalType":"bool","name":"afterAddLiquidity","type":"bool"},{"internalType":"bool","name":"beforeRemoveLiquidity","type":"bool"},{"internalType":"bool","name":"afterRemoveLiquidity","type":"bool"},{"internalType":"bool","name":"beforeSwap","type":"bool"},{"internalType":"bool","name":"afterSwap","type":"bool"},{"internalType":"bool","name":"beforeDonate","type":"bool"},{"internalType":"bool","name":"afterDonate","type":"bool"},{"internalType":"bool","name":"beforeSwapReturnDelta","type":"bool"},{"internalType":"bool","name":"afterSwapReturnDelta","type":"bool"},{"internalType":"bool","name":"afterAddLiquidityReturnDelta","type":"bool"},{"internalType":"bool","name":"afterRemoveLiquidityReturnDelta","type":"bool"}],"internalType":"struct Hooks.Permissions","name":"","type":"tuple"}],"stateMutability":"pure","type":"function"},{"inputs":[{"internalType":"address","name":"","type":"address"}],"name":"lastYieldUpdate","outputs":[{"internalType":"uint256","name":"","type":"uint256"}],"stateMutability":"view","type":"function"},{"inputs":[{"internalType":"address","name":"tokenIn","type":"address"},{"internalType":"address","name":"tokenOut","type":"address"},{"internalType":"uint256","name":"amountIn","type":"uint256"},{"internalType":"uint256","name":"minAmountOut","type":"uint256"}],"name":"optimizedSwap","outputs":[{"internalType":"uint256","name":"amountOut","type":"uint256"}],"stateMutability":"nonpayable","type":"function"},{"inputs":[],"name":"poolManager","outputs":[{"internalType":"contract IPoolManager","name":"","type":"address"}],"stateMutability":"view","type":"function"},{"inputs":[{"internalType":"address","name":"","type":"address"}],"name":"poolYields","outputs":[{"internalType":"uint256","name":"","type":"uint256"}],"stateMutability":"view","type":"function"},{"inputs":[{"internalType":"address","name":"","type":"address"}],"name":"totalDeposits","outputs":[{"internalType":"uint256","name":"","type":"uint256"}],"stateMutability":"view","type":"function"},{"inputs":[{"internalType":"bytes","name":"data","type":"bytes"}],"name":"unlockCallback","outputs":[{"internalType":"bytes","name":"","type":"bytes"}],"stateMutability":"nonpayable","type":"function"},{"inputs":[{"internalType":"address","name":"","type":"address"},{"internalType":"address","name":"","type":"address"}],"name":"userDeposits","outputs":[{"internalType":"uint256","name":"","type":"uint256"}],"stateMutability":"view","type":"function"},{"inputs":[{"internalType":"address","name":"token","type":"address"},{"internalType":"uint256","name":"amount","type":"uint256"}],"name":"withdraw","outputs":[],"stateMutability":"nonpayable","type":"function"}],"evm":{"bytecode":{"linkReferences":{},"object":"60a0346200029357601f620013eb38819003918201601f19168301916001600160401b0383118484101762000298578084926020946040528339810103126200029357516001600160a01b0381168103620002935760805262000061620002ae565b6000908181528160208201528160408201528160608201528160808201528160a08201528160c08201528160e082015281610100918183820152610120828183015282610140818185015281610160818187015281610180938185890152816101a08099015281620000d2620002ae565b978189528160208a01528160408a01528160608a01528160808a01528160a08a0152600160c08a0152600160e08a0152818c8a015288015286015284015282015201526120003016159081159162000284575b811562000275575b811562000266575b811562000257575b81156200024a575b50801562000239575b801562000228575b80156200021b575b80156200020e575b801562000201575b8015620001f4575b8015620001e7575b8015620001da575b620001c75760405161111b9081620002d082396080518181816101ed0152818161034c015281816106e1015281816107810152818161098b01526110200152f35b630732d7b560e51b815230600452602490fd5b5060013016151562000186565b506002301615156200017e565b5060043016151562000176565b506008301615156200016e565b5060103016151562000166565b506020301615156200015e565b506040301615156001141562000156565b50608030161515600114156200014e565b9050301615153862000145565b3061020016151591506200013d565b30610400161515915062000135565b3061080016151591506200012d565b30611000161515915062000125565b600080fd5b634e487b7160e01b600052604160045260246000fd5b604051906101c082016001600160401b03811183821017620002985760405256fe6080806040526004908136101561001557600080fd5b60003560e01c90816307a79efd14610ae15750806321d0ee7014610adc578063259982e514610adc578063436d803914610a8b57806347e7ef241461090d578063575e24b4146108275780636c2bbe7e1461074a5780636fe7e6eb146107db57806391dd73461461074f5780639f063efc1461074a578063b47b2fb1146105a5578063b6a8b0fa146102f2578063be5e5b041461056b578063c4e833ce146103d2578063c85b967d146103b5578063d3bf3b6a1461037b578063dc4c90d314610336578063dc98354e146102f7578063e1b4af69146102f2578063e9403256146102b85763f3fef3a31461010857600080fd5b346102b35760403660031901126102b357610121610bae565b60243590336000526020906000825260406000209360018060a01b0391828116958660005284528460406000205410610278576101e993926000926101ce8793338652858752604086208a875287526040862061017f868254610d88565b90558986526001875260408620610197868254610d88565b905560408051338982019081526001600160a01b03909316602084015290820195909552849060600103601f198101855284610ddd565b836040518097819582946348c8949160e01b84528301610d0c565b03927f0000000000000000000000000000000000000000000000000000000000000000165af191821561026c577f2717ead6b9200dd235aad468c9809ea400fe33ac69b5bfaa6d3e90fc922b639892610249575b506040519283523392a3005b610265903d806000833e61025d8183610ddd565b810190610e19565b503861023d565b6040513d6000823e3d90fd5b60405162461bcd60e51b81528083018590526014602482015273496e73756666696369656e742062616c616e636560601b6044820152606490fd5b600080fd5b346102b35760203660031901126102b3576001600160a01b036102d9610bae565b1660005260016020526020604060002054604051908152f35b610d38565b50346102b35760e03660031901126102b357610311610bae565b5060a03660231901126102b357610326610cd3565b50604051630a85dc2960e01b8152fd5b346102b35760003660031901126102b3576040517f00000000000000000000000000000000000000000000000000000000000000006001600160a01b03168152602090f35b346102b35760203660031901126102b3576001600160a01b0361039c610bae565b1660005260036020526020604060002054604051908152f35b346102b35760003660031901126102b35760206040516101f48152f35b346102b35760003660031901126102b35760006101a06040516103f481610dab565b8281528260208201528260408201528260608201528260808201528260a08201528260c08201528260e0820152826101008201528261012082015282610140820152826101608201528261018082015201526101c060405161045581610dab565b6000815260006020820152600060408201526000606082015260006080820152600060a0820152600160c0820152600160e08201526000610100820152600061012082015260006101408201526000610160820152600061018082015260006101a08201526101a0604051916000835260208101511515602084015260408101511515604084015260608101511515606084015260808101511515608084015260a0810151151560a084015260c0810151151560c084015260e0810151151560e084015261010081015115156101008401526101208101511515610120840152610140810151151561014084015261016081015115156101608401526101808101511515610180840152015115156101a0820152f35b346102b35760203660031901126102b3576001600160a01b0361058c610bae565b1660005260026020526020604060002054604051908152f35b50346102b3576101603660031901126102b3576105c0610bae565b5060a03660231901126102b35760603660c31901126102b3576001600160401b03610144358181116102b3576105f99036908401610bda565b50506101f461060e610609610efe565b610f8d565b1161062b575b6040805163b47b2fb160e01b815260006020820152f35b604051916001600160a01b0390602435808316908190036102b35760208501526044358281168091036102b357604085015260643562ffffff81168091036102b35760608501526084358060020b8091036102b357608085015260a4358281168091036102b35760a08501526101243560c085015260c0845260e084019284841090841117610735575060408290526348c8949160e01b82526000908290818360df19876106dc8160e48101610d0c565b0301927f0000000000000000000000000000000000000000000000000000000000000000165af1801561026c57156106145760e061072d923d90816000853e6107258285610ddd565b010190610e19565b503880610614565b604190634e487b7160e01b6000525260246000fd5b610c77565b50346102b35760203660031901126102b35780356001600160401b0381116102b35761077e9036908301610bda565b917f00000000000000000000000000000000000000000000000000000000000000006001600160a01b031633036107cc576107c86107bc8484610e87565b60405191829182610d0c565b0390f35b60405163570c108560e11b8152fd5b50346102b3576101003660031901126102b3576107f6610bae565b5060a03660231901126102b35761080b610cd3565b5060e4358060020b036102b357604051630a85dc2960e01b8152fd5b50346102b3576101403660031901126102b357610842610bae565b5060a03660231901126102b35760603660c31901126102b35761012435906001600160401b0382116102b35761087a91369101610bda565b5050610884610efe565b61088d81610f8d565b90816108b3575b60606040516315d7892d60e21b81526000602082015260006040820152f35b60407f36432ac94639517df0d8aa67d05b399e0bd10b8995ab185354d427ac7ecb5a449160018060a01b03169283600052600360205280826000205560026020524282600020558151904282526020820152a23880610894565b50346102b35760403660031901126102b357610927610bae565b90602435908115610a4757604080513360208201526001600160a01b03858116928201929092526060808201859052815290916109859160009161096c608083610ddd565b6040516348c8949160e01b815293849283928301610d0c565b038183867f0000000000000000000000000000000000000000000000000000000000000000165af1801561026c57610a2c575b5033600052600060205260406000209216918260005260205260406000206109e1828254610e7a565b905581600052600160205260406000206109fc828254610e7a565b90556040519081527f5548c837ab068cf56a2c2479df0882a4922fd203edb7517321831d95078c5f6260203392a3005b610a40903d806000833e61025d8183610ddd565b50386109b8565b60649060206040519162461bcd60e51b8352820152601d60248201527f416d6f756e74206d7573742062652067726561746572207468616e20300000006044820152fd5b346102b35760403660031901126102b357610aa4610bae565b610aac610bc4565b9060018060a01b038091166000526000602052604060002091166000526020526020604060002054604051908152f35b610c07565b82346102b35760803660031901126102b357610afb610bae565b90610b04610bc4565b925a91606435610b77575050610b1b905a90610d88565b906040519260018060a01b03809216845216602083015260443560408301526000606083015260808201527fe6a26d825aa8b05ec8e05df82f6de35714568b70615123b327b207202f702eeb60a03392a2602060405160008152f35b62461bcd60e51b82526020908201526013602482015272125b9cdd59999a58da595b9d081bdd5d1c1d5d606a1b6044820152606490fd5b600435906001600160a01b03821682036102b357565b602435906001600160a01b03821682036102b357565b9181601f840112156102b3578235916001600160401b0383116102b357602083818601950101116102b357565b346102b3576101603660031901126102b3576004356001600160a01b038116036102b35760a03660231901126102b35760803660c31901126102b357610144356001600160401b0381116102b357610c63903690600401610bda565b5050604051630a85dc2960e01b8152600490fd5b346102b3576101a03660031901126102b3576004356001600160a01b038116036102b35760a03660231901126102b35760803660c31901126102b357610184356001600160401b0381116102b357610c63903690600401610bda565b60c435906001600160a01b03821682036102b357565b60005b838110610cfc5750506000910152565b8181015183820152602001610cec565b60409160208252610d2c8151809281602086015260208686019101610ce9565b601f01601f1916010190565b346102b3576101203660031901126102b3576004356001600160a01b038116036102b35760a03660231901126102b357610104356001600160401b0381116102b357610c63903690600401610bda565b91908203918211610d9557565b634e487b7160e01b600052601160045260246000fd5b6101c081019081106001600160401b03821117610dc757604052565b634e487b7160e01b600052604160045260246000fd5b90601f801991011681019081106001600160401b03821117610dc757604052565b6001600160401b038111610dc757601f01601f191660200190565b6020818303126102b3578051906001600160401b0382116102b3570181601f820112156102b3578051610e4b81610dfe565b92610e596040519485610ddd565b818452602082840101116102b357610e779160208085019101610ce9565b90565b91908201809211610d9557565b6040519291839181908337810160009384928284809452039082305af13d15610ef5573d610eb481610dfe565b90610ec26040519283610ddd565b8152809360203d92013e5b610ef35750805115610ee157602081519101fd5b6040516314815f4760e31b8152600490fd5b565b60609250610ecd565b60405160208101906001600160a01b03602435818116908190036102b35783526044358181168091036102b357604083015260643562ffffff81168091036102b35760608301526084358060020b8091036102b357608083015260a4359081168091036102b35760a082015260a0815260c081018181106001600160401b03821117610dc75760405251902090565b6001600160a01b03908116600081815260026020526040808220549192909180156110dd57610fbc9042610d88565b81845260016020528284205494835191836020840152848301528560608301526060825260808201908282106001600160401b038311176110c9578185526348c8949160e01b8252859082908183607f198761101b8160848101610d0c565b0301927f0000000000000000000000000000000000000000000000000000000000000000165af180156110bf576110a1575b505082526003602052812054906127109182810292818404149015171561108d57821561107957500490565b634e487b7160e01b81526012600452602490fd5b634e487b7160e01b81526011600452602490fd5b60806110b7923d908188853e6107258285610ddd565b50388061104d565b84513d87823e3d90fd5b634e487b7160e01b86526041600452602486fd5b50505090509056fea264697066735822122090681808f29bf3cfc01c49dd5132d709906ae9dbbc58807b6dff760ef299678564736f6c63430008180033","opcodes":"PUSH1 0xA0 CALLVALUE PUSH3 0x293 JUMPI PUSH1 0x1F PUSH3 0x13EB CODESIZE DUP2 SWAP1 SUB SWAP2 DUP3 ADD PUSH1 0x1F NOT AND DUP4 ADD SWAP2 PUSH1 0x1 PUSH1 0x1 PUSH1 0x40 SHL SUB DUP4 GT DUP5 DUP5 LT OR PUSH3 0x298 JUMPI DUP1 DUP5 SWAP3 PUSH1 0x20 SWAP5 PUSH1 0x40 MSTORE DUP4 CODECOPY DUP2 ADD SUB SLT PUSH3 0x293 JUMPI MLOAD PUSH1 0x1 PUSH1 0x1 PUSH1 0xA0 SHL SUB DUP2 AND DUP2 SUB PUSH3 0x293 JUMPI PUSH1 0x80 MSTORE PUSH3 0x61 PUSH3 0x2AE JUMP JUMPDEST PUSH1 0x0 SWAP1 DUP2 DUP2 MSTORE DUP2 PUSH1 0x20 DUP3 ADD MSTORE DUP2 PUSH1 0x40 DUP3 ADD MSTORE DUP2 PUSH1 0x60 DUP3 ADD MSTORE DUP2 PUSH1 0x80 DUP3 ADD MSTORE DUP2 PUSH1 0xA0 DUP3 ADD MSTORE DUP2 PUSH1 0xC0 DUP3 ADD MSTORE DUP2 PUSH1 0xE0 DUP3 ADD MSTORE DUP2 PUSH2 0x100 SWAP2 DUP2 DUP4 DUP3 ADD MSTORE PUSH2 0x120 DUP3 DUP2 DUP4 ADD MSTORE DUP3 PUSH2 0x140 DUP2 DUP2 DUP6 ADD MSTORE DUP2 PUSH2 0x160 DUP2 DUP2 DUP8 ADD MSTORE DUP2 PUSH2 0x180 SWAP4 DUP2 DUP6 DUP10 ADD MSTORE DUP2 PUSH2 0x1A0 DUP1 SWAP10 ADD MSTORE DUP2 PUSH3 0xD2 PUSH3 0x2AE JUMP JUMPDEST SWAP8 DUP2 DUP10 MSTORE DUP2 PUSH1 0x20 DUP11 ADD MSTORE DUP2 PUSH1 0x40 DUP11 ADD MSTORE DUP2 PUSH1 0x60 DUP11 ADD MSTORE DUP2 PUSH1 0x80 DUP11 ADD MSTORE DUP2 PUSH1 0xA0 DUP11 ADD MSTORE PUSH1 0x1 PUSH1 0xC0 DUP11 ADD MSTORE PUSH1 0x1 PUSH1 0xE0 DUP11 ADD MSTORE DUP2 DUP13 DUP11 ADD MSTORE DUP9 ADD MSTORE DUP7 ADD MSTORE DUP5 ADD MSTORE DUP3 ADD MSTORE ADD MSTORE PUSH2 0x2000 ADDRESS AND ISZERO SWAP1 DUP2 ISZERO SWAP2 PUSH3 0x284 JUMPI JUMPDEST DUP2 ISZERO PUSH3 0x275 JUMPI JUMPDEST DUP2 ISZERO PUSH3 0x266 JUMPI JUMPDEST DUP2 ISZERO PUSH3 0x257 JUMPI JUMPDEST DUP2 ISZERO PUSH3 0x24A JUMPI JUMPDEST POP DUP1 ISZERO PUSH3 0x239 JUMPI JUMPDEST DUP1 ISZERO PUSH3 0x228 JUMPI JUMPDEST DUP1 ISZERO PUSH3 0x21B JUMPI JUMPDEST DUP1 ISZERO PUSH3 0x20E JUMPI JUMPDEST DUP1 ISZERO PUSH3 0x201 JUMPI JUMPDEST DUP1 ISZERO PUSH3 0x1F4 JUMPI JUMPDEST DUP1 ISZERO PUSH3 0x1E7 JUMPI JUMPDEST DUP1 ISZERO PUSH3 0x1DA JUMPI JUMPDEST PUSH3 0x1C7 JUMPI PUSH1 0x40 MLOAD PUSH2 0x111B SWAP1 DUP2 PUSH3 0x2D0 DUP3 CODECOPY PUSH1 0x80 MLOAD DUP2 DUP2 DUP2 PUSH2 0x1ED ADD MSTORE DUP2 DUP2 PUSH2 0x34C ADD MSTORE DUP2 DUP2 PUSH2 0x6E1 ADD MSTORE DUP2 DUP2 PUSH2 0x781 ADD MSTORE DUP2 DUP2 PUSH2 0x98B ADD MSTORE PUSH2 0x1020 ADD MSTORE RETURN JUMPDEST PUSH4 0x732D7B5 PUSH1 0xE5 SHL DUP2 MSTORE ADDRESS PUSH1 0x4 MSTORE PUSH1 0x24 SWAP1 REVERT JUMPDEST POP PUSH1 0x1 ADDRESS AND ISZERO ISZERO PUSH3 0x186 JUMP JUMPDEST POP PUSH1 0x2 ADDRESS AND ISZERO ISZERO PUSH3 0x17E JUMP JUMPDEST POP PUSH1 0x4 ADDRESS AND ISZERO ISZERO PUSH3 0x176 JUMP JUMPDEST POP PUSH1 0x8 ADDRESS AND ISZERO ISZERO PUSH3 0x16E JUMP JUMPDEST POP PUSH1 0x10 ADDRESS AND ISZERO ISZERO PUSH3 0x166 JUMP JUMPDEST POP PUSH1 0x20 ADDRESS AND ISZERO ISZERO PUSH3 0x15E JUMP JUMPDEST POP PUSH1 0x40 ADDRESS AND ISZERO ISZERO PUSH1 0x1 EQ ISZERO PUSH3 0x156 JUMP JUMPDEST POP PUSH1 0x80 ADDRESS AND ISZERO ISZERO PUSH1 0x1 EQ ISZERO PUSH3 0x14E JUMP JUMPDEST SWAP1 POP ADDRESS AND ISZERO ISZERO CODESIZE PUSH3 0x145 JUMP JUMPDEST ADDRESS PUSH2 0x200 AND ISZERO ISZERO SWAP2 POP PUSH3 0x13D JUMP JUMPDEST ADDRESS PUSH2 0x400 AND ISZERO ISZERO SWAP2 POP PUSH3 0x135 JUMP JUMPDEST ADDRESS PUSH2 0x800 AND ISZERO ISZERO SWAP2 POP PUSH3 0x12D JUMP JUMPDEST ADDRESS PUSH2 0x1000 AND ISZERO ISZERO SWAP2 POP PUSH3 0x125 JUMP JUMPDEST PUSH1 0x0 DUP1 REVERT JUMPDEST PUSH4 0x4E487B71 PUSH1 0xE0 SHL PUSH1 0x0 MSTORE PUSH1 0x41 PUSH1 0x4 MSTORE PUSH1 0x24 PUSH1 0x0 REVERT JUMPDEST PUSH1 0x40 MLOAD SWAP1 PUSH2 0x1C0 DUP3 ADD PUSH1 0x1 PUSH1 0x1 PUSH1 0x40 SHL SUB DUP2 GT DUP4 DUP3 LT OR PUSH3 0x298 JUMPI PUSH1 0x40 MSTORE JUMP INVALID PUSH1 0x80 DUP1 PUSH1 0x40 MSTORE PUSH1 0x4 SWAP1 DUP2 CALLDATASIZE LT ISZERO PUSH2 0x15 JUMPI PUSH1 0x0 DUP1 REVERT JUMPDEST PUSH1 0x0 CALLDATALOAD PUSH1 0xE0 SHR SWAP1 DUP2 PUSH4 0x7A79EFD EQ PUSH2 0xAE1 JUMPI POP DUP1 PUSH4 0x21D0EE70 EQ PUSH2 0xADC JUMPI DUP1 PUSH4 0x259982E5 EQ PUSH2 0xADC JUMPI DUP1 PUSH4 0x436D8039 EQ PUSH2 0xA8B JUMPI DUP1 PUSH4 0x47E7EF24 EQ PUSH2 0x90D JUMPI DUP1 PUSH4 0x575E24B4 EQ PUSH2 0x827 JUMPI DUP1 PUSH4 0x6C2BBE7E EQ PUSH2 0x74A JUMPI DUP1 PUSH4 0x6FE7E6EB EQ PUSH2 0x7DB JUMPI DUP1 PUSH4 0x91DD7346 EQ PUSH2 0x74F JUMPI DUP1 PUSH4 0x9F063EFC EQ PUSH2 0x74A JUMPI DUP1 PUSH4 0xB47B2FB1 EQ PUSH2 0x5A5 JUMPI DUP1 PUSH4 0xB6A8B0FA EQ PUSH2 0x2F2 JUMPI DUP1 PUSH4 0xBE5E5B04 EQ PUSH2 0x56B JUMPI DUP1 PUSH4 0xC4E833CE EQ PUSH2 0x3D2 JUMPI DUP1 PUSH4 0xC85B967D EQ PUSH2 0x3B5 JUMPI DUP1 PUSH4 0xD3BF3B6A EQ PUSH2 0x37B JUMPI DUP1 PUSH4 0xDC4C90D3 EQ PUSH2 0x336 JUMPI DUP1 PUSH4 0xDC98354E EQ PUSH2 0x2F7 JUMPI DUP1 PUSH4 0xE1B4AF69 EQ PUSH2 0x2F2 JUMPI DUP1 PUSH4 0xE9403256 EQ PUSH2 0x2B8 JUMPI PUSH4 0xF3FEF3A3 EQ PUSH2 0x108 JUMPI PUSH1 0x0 DUP1 REVERT JUMPDEST CALLVALUE PUSH2 0x2B3 JUMPI PUSH1 0x40 CALLDATASIZE PUSH1 0x3 NOT ADD SLT PUSH2 0x2B3 JUMPI PUSH2 0x121 PUSH2 0xBAE JUMP JUMPDEST PUSH1 0x24 CALLDATALOAD SWAP1 CALLER PUSH1 0x0 MSTORE PUSH1 0x20 SWAP1 PUSH1 0x0 DUP3 MSTORE PUSH1 0x40 PUSH1 0x0 KECCAK256 SWAP4 PUSH1 0x1 DUP1 PUSH1 0xA0 SHL SUB SWAP2 DUP3 DUP2 AND SWAP6 DUP7 PUSH1 0x0 MSTORE DUP5 MSTORE DUP5 PUSH1 0x40 PUSH1 0x0 KECCAK256 SLOAD LT PUSH2 0x278 JUMPI PUSH2 0x1E9 SWAP4 SWAP3 PUSH1 0x0 SWAP3 PUSH2 0x1CE DUP8 SWAP4 CALLER DUP7 MSTORE DUP6 DUP8 MSTORE PUSH1 0x40 DUP7 KECCAK256 DUP11 DUP8 MSTORE DUP8 MSTORE PUSH1 0x40 DUP7 KECCAK256 PUSH2 0x17F DUP7 DUP3 SLOAD PUSH2 0xD88 JUMP JUMPDEST SWAP1 SSTORE DUP10 DUP7 MSTORE PUSH1 0x1 DUP8 MSTORE PUSH1 0x40 DUP7 KECCAK256 PUSH2 0x197 DUP7 DUP3 SLOAD PUSH2 0xD88 JUMP JUMPDEST SWAP1 SSTORE PUSH1 0x40 DUP1 MLOAD CALLER DUP10 DUP3 ADD SWAP1 DUP2 MSTORE PUSH1 0x1 PUSH1 0x1 PUSH1 0xA0 SHL SUB SWAP1 SWAP4 AND PUSH1 0x20 DUP5 ADD MSTORE SWAP1 DUP3 ADD SWAP6 SWAP1 SWAP6 MSTORE DUP5 SWAP1 PUSH1 0x60 ADD SUB PUSH1 0x1F NOT DUP2 ADD DUP6 MSTORE DUP5 PUSH2 0xDDD JUMP JUMPDEST DUP4 PUSH1 0x40 MLOAD DUP1 SWAP8 DUP2 SWAP6 DUP3 SWAP5 PUSH4 0x48C89491 PUSH1 0xE0 SHL DUP5 MSTORE DUP4 ADD PUSH2 0xD0C JUMP JUMPDEST SUB SWAP3 PUSH32 0x0 AND GAS CALL SWAP2 DUP3 ISZERO PUSH2 0x26C JUMPI PUSH32 0x2717EAD6B9200DD235AAD468C9809EA400FE33AC69B5BFAA6D3E90FC922B6398 SWAP3 PUSH2 0x249 JUMPI JUMPDEST POP PUSH1 0x40 MLOAD SWAP3 DUP4 MSTORE CALLER SWAP3 LOG3 STOP JUMPDEST PUSH2 0x265 SWAP1 RETURNDATASIZE DUP1 PUSH1 0x0 DUP4 RETURNDATACOPY PUSH2 0x25D DUP2 DUP4 PUSH2 0xDDD JUMP JUMPDEST DUP2 ADD SWAP1 PUSH2 0xE19 JUMP JUMPDEST POP CODESIZE PUSH2 0x23D JUMP JUMPDEST PUSH1 0x40 MLOAD RETURNDATASIZE PUSH1 0x0 DUP3 RETURNDATACOPY RETURNDATASIZE SWAP1 REVERT JUMPDEST PUSH1 0x40 MLOAD PUSH3 0x461BCD PUSH1 0xE5 SHL DUP2 MSTORE DUP1 DUP4 ADD DUP6 SWAP1 MSTORE PUSH1 0x14 PUSH1 0x24 DUP3 ADD MSTORE PUSH20 0x496E73756666696369656E742062616C616E6365 PUSH1 0x60 SHL PUSH1 0x44 DUP3 ADD MSTORE PUSH1 0x64 SWAP1 REVERT JUMPDEST PUSH1 0x0 DUP1 REVERT JUMPDEST CALLVALUE PUSH2 0x2B3 JUMPI PUSH1 0x20 CALLDATASIZE PUSH1 0x3 NOT ADD SLT PUSH2 0x2B3 JUMPI PUSH1 0x1 PUSH1 0x1 PUSH1 0xA0 SHL SUB PUSH2 0x2D9 PUSH2 0xBAE JUMP JUMPDEST AND PUSH1 0x0 MSTORE PUSH1 0x1 PUSH1 0x20 MSTORE PUSH1 0x20 PUSH1 0x40 PUSH1 0x0 KECCAK256 SLOAD PUSH1 0x40 MLOAD SWAP1 DUP2 MSTORE RETURN JUMPDEST PUSH2 0xD38 JUMP JUMPDEST POP CALLVALUE PUSH2 0x2B3 JUMPI PUSH1 0xE0 CALLDATASIZE PUSH1 0x3 NOT ADD SLT PUSH2 0x2B3 JUMPI PUSH2 0x311 PUSH2 0xBAE JUMP JUMPDEST POP PUSH1 0xA0 CALLDATASIZE PUSH1 0x23 NOT ADD SLT PUSH2 0x2B3 JUMPI PUSH2 0x326 PUSH2 0xCD3 JUMP JUMPDEST POP PUSH1 0x40 MLOAD PUSH4 0xA85DC29 PUSH1 0xE0 SHL DUP2 MSTORE REVERT JUMPDEST CALLVALUE PUSH2 0x2B3 JUMPI PUSH1 0x0 CALLDATASIZE PUSH1 0x3 NOT ADD SLT PUSH2 0x2B3 JUMPI PUSH1 0x40 MLOAD PUSH32 0x0 PUSH1 0x1 PUSH1 0x1 PUSH1 0xA0 SHL SUB AND DUP2 MSTORE PUSH1 0x20 SWAP1 RETURN JUMPDEST CALLVALUE PUSH2 0x2B3 JUMPI PUSH1 0x20 CALLDATASIZE PUSH1 0x3 NOT ADD SLT PUSH2 0x2B3 JUMPI PUSH1 0x1 PUSH1 0x1 PUSH1 0xA0 SHL SUB PUSH2 0x39C PUSH2 0xBAE JUMP JUMPDEST AND PUSH1 0x0 MSTORE PUSH1 0x3 PUSH1 0x20 MSTORE PUSH1 0x20 PUSH1 0x40 PUSH1 0x0 KECCAK256 SLOAD PUSH1 0x40 MLOAD SWAP1 DUP2 MSTORE RETURN JUMPDEST CALLVALUE PUSH2 0x2B3 JUMPI PUSH1 0x0 CALLDATASIZE PUSH1 0x3 NOT ADD SLT PUSH2 0x2B3 JUMPI PUSH1 0x20 PUSH1 0x40 MLOAD PUSH2 0x1F4 DUP2 MSTORE RETURN JUMPDEST CALLVALUE PUSH2 0x2B3 JUMPI PUSH1 0x0 CALLDATASIZE PUSH1 0x3 NOT ADD SLT PUSH2 0x2B3 JUMPI PUSH1 0x0 PUSH2 0x1A0 PUSH1 0x40 MLOAD PUSH2 0x3F4 DUP2 PUSH2 0xDAB JUMP JUMPDEST DUP3 DUP2 MSTORE DUP3 PUSH1 0x20 DUP3 ADD MSTORE DUP3 PUSH1 0x40 DUP3 ADD MSTORE DUP3 PUSH1 0x60 DUP3 ADD MSTORE DUP3 PUSH1 0x80 DUP3 ADD MSTORE DUP3 PUSH1 0xA0 DUP3 ADD MSTORE DUP3 PUSH1 0xC0 DUP3 ADD MSTORE DUP3 PUSH1 0xE0 DUP3 ADD MSTORE DUP3 PUSH2 0x100 DUP3 ADD MSTORE DUP3 PUSH2 0x120 DUP3 ADD MSTORE DUP3 PUSH2 0x140 DUP3 ADD MSTORE DUP3 PUSH2 0x160 DUP3 ADD MSTORE DUP3 PUSH2 0x180 DUP3 ADD MSTORE ADD MSTORE PUSH2 0x1C0 PUSH1 0x40 MLOAD PUSH2 0x455 DUP2 PUSH2 0xDAB JUMP JUMPDEST PUSH1 0x0 DUP2 MSTORE PUSH1 0x0 PUSH1 0x20 DUP3 ADD MSTORE PUSH1 0x0 PUSH1 0x40 DUP3 ADD MSTORE PUSH1 0x0 PUSH1 0x60 DUP3 ADD MSTORE PUSH1 0x0 PUSH1 0x80 DUP3 ADD MSTORE PUSH1 0x0 PUSH1 0xA0 DUP3 ADD MSTORE PUSH1 0x1 PUSH1 0xC0 DUP3 ADD MSTORE PUSH1 0x1 PUSH1 0xE0 DUP3 ADD MSTORE PUSH1 0x0 PUSH2 0x100 DUP3 ADD MSTORE PUSH1 0x0 PUSH2 0x120 DUP3 ADD MSTORE PUSH1 0x0 PUSH2 0x140 DUP3 ADD MSTORE PUSH1 0x0 PUSH2 0x160 DUP3 ADD MSTORE PUSH1 0x0 PUSH2 0x180 DUP3 ADD MSTORE PUSH1 0x0 PUSH2 0x1A0 DUP3 ADD MSTORE PUSH2 0x1A0 PUSH1 0x40 MLOAD SWAP2 PUSH1 0x0 DUP4 MSTORE PUSH1 0x20 DUP2 ADD MLOAD ISZERO ISZERO PUSH1 0x20 DUP5 ADD MSTORE PUSH1 0x40 DUP2 ADD MLOAD ISZERO ISZERO PUSH1 0x40 DUP5 ADD MSTORE PUSH1 0x60 DUP2 ADD MLOAD ISZERO ISZERO PUSH1 0x60 DUP5 ADD MSTORE PUSH1 0x80 DUP2 ADD MLOAD ISZERO ISZERO PUSH1 0x80 DUP5 ADD MSTORE PUSH1 0xA0 DUP2 ADD MLOAD ISZERO ISZERO PUSH1 0xA0 DUP5 ADD MSTORE PUSH1 0xC0 DUP2 ADD MLOAD ISZERO ISZERO PUSH1 0xC0 DUP5 ADD MSTORE PUSH1 0xE0 DUP2 ADD MLOAD ISZERO ISZERO PUSH1 0xE0 DUP5 ADD MSTORE PUSH2 0x100 DUP2 ADD MLOAD ISZERO ISZERO PUSH2 0x100 DUP5 ADD MSTORE PUSH2 0x120 DUP2 ADD MLOAD ISZERO ISZERO PUSH2 0x120 DUP5 ADD MSTORE PUSH2 0x140 DUP2 ADD MLOAD ISZERO ISZERO PUSH2 0x140 DUP5 ADD MSTORE PUSH2 0x160 DUP2 ADD MLOAD ISZERO ISZERO PUSH2 0x160 DUP5 ADD MSTORE PUSH2 0x180 DUP2 ADD MLOAD ISZERO ISZERO PUSH2 0x180 DUP5 ADD MSTORE ADD MLOAD ISZERO ISZERO PUSH2 0x1A0 DUP3 ADD MSTORE RETURN JUMPDEST CALLVALUE PUSH2 0x2B3 JUMPI PUSH1 0x20 CALLDATASIZE PUSH1 0x3 NOT ADD SLT PUSH2 0x2B3 JUMPI PUSH1 0x1 PUSH1 0x1 PUSH1 0xA0 SHL SUB PUSH2 0x58C PUSH2 0xBAE JUMP JUMPDEST AND PUSH1 0x0 MSTORE PUSH1 0x2 PUSH1 0x20 MSTORE PUSH1 0x20 PUSH1 0x40 PUSH1 0x0 KECCAK256 SLOAD PUSH1 0x40 MLOAD SWAP1 DUP2 MSTORE RETURN JUMPDEST POP CALLVALUE PUSH2 0x2B3 JUMPI PUSH2 0x160 CALLDATASIZE PUSH1 0x3 NOT ADD SLT PUSH2 0x2B3 JUMPI PUSH2 0x5C0 PUSH2 0xBAE JUMP JUMPDEST POP PUSH1 0xA0 CALLDATASIZE PUSH1 0x23 NOT ADD SLT PUSH2 0x2B3 JUMPI PUSH1 0x60 CALLDATASIZE PUSH1 0xC3 NOT ADD SLT PUSH2 0x2B3 JUMPI PUSH1 0x1 PUSH1 0x1 PUSH1 0x40 SHL SUB PUSH2 0x144 CALLDATALOAD DUP2 DUP2 GT PUSH2 0x2B3 JUMPI PUSH2 0x5F9 SWAP1 CALLDATASIZE SWAP1 DUP5 ADD PUSH2 0xBDA JUMP JUMPDEST POP POP PUSH2 0x1F4 PUSH2 0x60E PUSH2 0x609 PUSH2 0xEFE JUMP JUMPDEST PUSH2 0xF8D JUMP JUMPDEST GT PUSH2 0x62B JUMPI JUMPDEST PUSH1 0x40 DUP1 MLOAD PUSH4 0xB47B2FB1 PUSH1 0xE0 SHL DUP2 MSTORE PUSH1 0x0 PUSH1 0x20 DUP3 ADD MSTORE RETURN JUMPDEST PUSH1 0x40 MLOAD SWAP2 PUSH1 0x1 PUSH1 0x1 PUSH1 0xA0 SHL SUB SWAP1 PUSH1 0x24 CALLDATALOAD DUP1 DUP4 AND SWAP1 DUP2 SWAP1 SUB PUSH2 0x2B3 JUMPI PUSH1 0x20 DUP6 ADD MSTORE PUSH1 0x44 CALLDATALOAD DUP3 DUP2 AND DUP1 SWAP2 SUB PUSH2 0x2B3 JUMPI PUSH1 0x40 DUP6 ADD MSTORE PUSH1 0x64 CALLDATALOAD PUSH3 0xFFFFFF DUP2 AND DUP1 SWAP2 SUB PUSH2 0x2B3 JUMPI PUSH1 0x60 DUP6 ADD MSTORE PUSH1 0x84 CALLDATALOAD DUP1 PUSH1 0x2 SIGNEXTEND DUP1 SWAP2 SUB PUSH2 0x2B3 JUMPI PUSH1 0x80 DUP6 ADD MSTORE PUSH1 0xA4 CALLDATALOAD DUP3 DUP2 AND DUP1 SWAP2 SUB PUSH2 0x2B3 JUMPI PUSH1 0xA0 DUP6 ADD MSTORE PUSH2 0x124 CALLDATALOAD PUSH1 0xC0 DUP6 ADD MSTORE PUSH1 0xC0 DUP5 MSTORE PUSH1 0xE0 DUP5 ADD SWAP3 DUP5 DUP5 LT SWAP1 DUP5 GT OR PUSH2 0x735 JUMPI POP PUSH1 0x40 DUP3 SWAP1 MSTORE PUSH4 0x48C89491 PUSH1 0xE0 SHL DUP3 MSTORE PUSH1 0x0 SWAP1 DUP3 SWAP1 DUP2 DUP4 PUSH1 0xDF NOT DUP8 PUSH2 0x6DC DUP2 PUSH1 0xE4 DUP2 ADD PUSH2 0xD0C JUMP JUMPDEST SUB ADD SWAP3 PUSH32 0x0 AND GAS CALL DUP1 ISZERO PUSH2 0x26C JUMPI ISZERO PUSH2 0x614 JUMPI PUSH1 0xE0 PUSH2 0x72D SWAP3 RETURNDATASIZE SWAP1 DUP2 PUSH1 0x0 DUP6 RETURNDATACOPY PUSH2 0x725 DUP3 DUP6 PUSH2 0xDDD JUMP JUMPDEST ADD ADD SWAP1 PUSH2 0xE19 JUMP JUMPDEST POP CODESIZE DUP1 PUSH2 0x614 JUMP JUMPDEST PUSH1 0x41 SWAP1 PUSH4 0x4E487B71 PUSH1 0xE0 SHL PUSH1 0x0 MSTORE MSTORE PUSH1 0x24 PUSH1 0x0 REVERT JUMPDEST PUSH2 0xC77 JUMP JUMPDEST POP CALLVALUE PUSH2 0x2B3 JUMPI PUSH1 0x20 CALLDATASIZE PUSH1 0x3 NOT ADD SLT PUSH2 0x2B3 JUMPI DUP1 CALLDATALOAD PUSH1 0x1 PUSH1 0x1 PUSH1 0x40 SHL SUB DUP2 GT PUSH2 0x2B3 JUMPI PUSH2 0x77E SWAP1 CALLDATASIZE SWAP1 DUP4 ADD PUSH2 0xBDA JUMP JUMPDEST SWAP2 PUSH32 0x0 PUSH1 0x1 PUSH1 0x1 PUSH1 0xA0 SHL SUB AND CALLER SUB PUSH2 0x7CC JUMPI PUSH2 0x7C8 PUSH2 0x7BC DUP5 DUP5 PUSH2 0xE87 JUMP JUMPDEST PUSH1 0x40 MLOAD SWAP2 DUP3 SWAP2 DUP3 PUSH2 0xD0C JUMP JUMPDEST SUB SWAP1 RETURN JUMPDEST PUSH1 0x40 MLOAD PUSH4 0x570C1085 PUSH1 0xE1 SHL DUP2 MSTORE REVERT JUMPDEST POP CALLVALUE PUSH2 0x2B3 JUMPI PUSH2 0x100 CALLDATASIZE PUSH1 0x3 NOT ADD SLT PUSH2 0x2B3 JUMPI PUSH2 0x7F6 PUSH2 0xBAE JUMP JUMPDEST POP PUSH1 0xA0 CALLDATASIZE PUSH1 0x23 NOT ADD SLT PUSH2 0x2B3 JUMPI PUSH2 0x80B PUSH2 0xCD3 JUMP JUMPDEST POP PUSH1 0xE4 CALLDATALOAD DUP1 PUSH1 0x2 SIGNEXTEND SUB PUSH2 0x2B3 JUMPI PUSH1 0x40 MLOAD PUSH4 0xA85DC29 PUSH1 0xE0 SHL DUP2 MSTORE REVERT JUMPDEST POP CALLVALUE PUSH2 0x2B3 JUMPI PUSH2 0x140 CALLDATASIZE PUSH1 0x3 NOT ADD SLT PUSH2 0x2B3 JUMPI PUSH2 0x842 PUSH2 0xBAE JUMP JUMPDEST POP PUSH1 0xA0 CALLDATASIZE PUSH1 0x23 NOT ADD SLT PUSH2 0x2B3 JUMPI PUSH1 0x60 CALLDATASIZE PUSH1 0xC3 NOT ADD SLT PUSH2 0x2B3 JUMPI PUSH2 0x124 CALLDATALOAD SWAP1 PUSH1 0x1 PUSH1 0x1 PUSH1 0x40 SHL SUB DUP3 GT PUSH2 0x2B3 JUMPI PUSH2 0x87A SWAP2 CALLDATASIZE SWAP2 ADD PUSH2 0xBDA JUMP JUMPDEST POP POP PUSH2 0x884 PUSH2 0xEFE JUMP JUMPDEST PUSH2 0x88D DUP2 PUSH2 0xF8D JUMP JUMPDEST SWAP1 DUP2 PUSH2 0x8B3 JUMPI JUMPDEST PUSH1 0x60 PUSH1 0x40 MLOAD PUSH4 0x15D7892D PUSH1 0xE2 SHL DUP2 MSTORE PUSH1 0x0 PUSH1 0x20 DUP3 ADD MSTORE PUSH1 0x0 PUSH1 0x40 DUP3 ADD MSTORE RETURN JUMPDEST PUSH1 0x40 PUSH32 0x36432AC94639517DF0D8AA67D05B399E0BD10B8995AB185354D427AC7ECB5A44 SWAP2 PUSH1 0x1 DUP1 PUSH1 0xA0 SHL SUB AND SWAP3 DUP4 PUSH1 0x0 MSTORE PUSH1 0x3 PUSH1 0x20 MSTORE DUP1 DUP3 PUSH1 0x0 KECCAK256 SSTORE PUSH1 0x2 PUSH1 0x20 MSTORE TIMESTAMP DUP3 PUSH1 0x0 KECCAK256 SSTORE DUP2 MLOAD SWAP1 TIMESTAMP DUP3 MSTORE PUSH1 0x20 DUP3 ADD MSTORE LOG2 CODESIZE DUP1 PUSH2 0x894 JUMP JUMPDEST POP CALLVALUE PUSH2 0x2B3 JUMPI PUSH1 0x40 CALLDATASIZE PUSH1 0x3 NOT ADD SLT PUSH2 0x2B3 JUMPI PUSH2 0x927 PUSH2 0xBAE JUMP JUMPDEST SWAP1 PUSH1 0x24 CALLDATALOAD SWAP1 DUP2 ISZERO PUSH2 0xA47 JUMPI PUSH1 0x40 DUP1 MLOAD CALLER PUSH1 0x20 DUP3 ADD MSTORE PUSH1 0x1 PUSH1 0x1 PUSH1 0xA0 SHL SUB DUP6 DUP2 AND SWAP3 DUP3 ADD SWAP3 SWAP1 SWAP3 MSTORE PUSH1 0x60 DUP1 DUP3 ADD DUP6 SWAP1 MSTORE DUP2 MSTORE SWAP1 SWAP2 PUSH2 0x985 SWAP2 PUSH1 0x0 SWAP2 PUSH2 0x96C PUSH1 0x80 DUP4 PUSH2 0xDDD JUMP JUMPDEST PUSH1 0x40 MLOAD PUSH4 0x48C89491 PUSH1 0xE0 SHL DUP2 MSTORE SWAP4 DUP5 SWAP3 DUP4 SWAP3 DUP4 ADD PUSH2 0xD0C JUMP JUMPDEST SUB DUP2 DUP4 DUP7 PUSH32 0x0 AND GAS CALL DUP1 ISZERO PUSH2 0x26C JUMPI PUSH2 0xA2C JUMPI JUMPDEST POP CALLER PUSH1 0x0 MSTORE PUSH1 0x0 PUSH1 0x20 MSTORE PUSH1 0x40 PUSH1 0x0 KECCAK256 SWAP3 AND SWAP2 DUP3 PUSH1 0x0 MSTORE PUSH1 0x20 MSTORE PUSH1 0x40 PUSH1 0x0 KECCAK256 PUSH2 0x9E1 DUP3 DUP3 SLOAD PUSH2 0xE7A JUMP JUMPDEST SWAP1 SSTORE DUP2 PUSH1 0x0 MSTORE PUSH1 0x1 PUSH1 0x20 MSTORE PUSH1 0x40 PUSH1 0x0 KECCAK256 PUSH2 0x9FC DUP3 DUP3 SLOAD PUSH2 0xE7A JUMP JUMPDEST SWAP1 SSTORE PUSH1 0x40 MLOAD SWAP1 DUP2 MSTORE PUSH32 0x5548C837AB068CF56A2C2479DF0882A4922FD203EDB7517321831D95078C5F62 PUSH1 0x20 CALLER SWAP3 LOG3 STOP JUMPDEST PUSH2 0xA40 SWAP1 RETURNDATASIZE DUP1 PUSH1 0x0 DUP4 RETURNDATACOPY PUSH2 0x25D DUP2 DUP4 PUSH2 0xDDD JUMP JUMPDEST POP CODESIZE PUSH2 0x9B8 JUMP JUMPDEST PUSH1 0x64 SWAP1 PUSH1 0x20 PUSH1 0x40 MLOAD SWAP2 PUSH3 0x461BCD PUSH1 0xE5 SHL DUP4 MSTORE DUP3 ADD MSTORE PUSH1 0x1D PUSH1 0x24 DUP3 ADD MSTORE PUSH32 0x416D6F756E74206D7573742062652067726561746572207468616E2030000000 PUSH1 0x44 DUP3 ADD MSTORE REVERT JUMPDEST CALLVALUE PUSH2 0x2B3 JUMPI PUSH1 0x40 CALLDATASIZE PUSH1 0x3 NOT ADD SLT PUSH2 0x2B3 JUMPI PUSH2 0xAA4 PUSH2 0xBAE JUMP JUMPDEST PUSH2 0xAAC PUSH2 0xBC4 JUMP JUMPDEST SWAP1 PUSH1 0x1 DUP1 PUSH1 0xA0 SHL SUB DUP1 SWAP2 AND PUSH1 0x0 MSTORE PUSH1 0x0 PUSH1 0x20 MSTORE PUSH1 0x40 PUSH1 0x0 KECCAK256 SWAP2 AND PUSH1 0x0 MSTORE PUSH1 0x20 MSTORE PUSH1 0x20 PUSH1 0x40 PUSH1 0x0 KECCAK256 SLOAD PUSH1 0x40 MLOAD SWAP1 DUP2 MSTORE RETURN JUMPDEST PUSH2 0xC07 JUMP JUMPDEST DUP3 CALLVALUE PUSH2 0x2B3 JUMPI PUSH1 0x80 CALLDATASIZE PUSH1 0x3 NOT ADD SLT PUSH2 0x2B3 JUMPI PUSH2 0xAFB PUSH2 0xBAE JUMP JUMPDEST SWAP1 PUSH2 0xB04 PUSH2 0xBC4 JUMP JUMPDEST SWAP3 GAS SWAP2 PUSH1 0x64 CALLDATALOAD PUSH2 0xB77 JUMPI POP POP PUSH2 0xB1B SWAP1 GAS SWAP1 PUSH2 0xD88 JUMP JUMPDEST SWAP1 PUSH1 0x40 MLOAD SWAP3 PUSH1 0x1 DUP1 PUSH1 0xA0 SHL SUB DUP1 SWAP3 AND DUP5 MSTORE AND PUSH1 0x20 DUP4 ADD MSTORE PUSH1 0x44 CALLDATALOAD PUSH1 0x40 DUP4 ADD MSTORE PUSH1 0x0 PUSH1 0x60 DUP4 ADD MSTORE PUSH1 0x80 DUP3 ADD MSTORE PUSH32 0xE6A26D825AA8B05EC8E05DF82F6DE35714568B70615123B327B207202F702EEB PUSH1 0xA0 CALLER SWAP3 LOG2 PUSH1 0x20 PUSH1 0x40 MLOAD PUSH1 0x0 DUP2 MSTORE RETURN JUMPDEST PUSH3 0x461BCD PUSH1 0xE5 SHL DUP3 MSTORE PUSH1 0x20 SWAP1 DUP3 ADD MSTORE PUSH1 0x13 PUSH1 0x24 DUP3 ADD MSTORE PUSH19 0x125B9CDD59999A58DA595B9D081BDD5D1C1D5D PUSH1 0x6A SHL PUSH1 0x44 DUP3 ADD MSTORE PUSH1 0x64 SWAP1 REVERT JUMPDEST PUSH1 0x4 CALLDATALOAD SWAP1 PUSH1 0x1 PUSH1 0x1 PUSH1 0xA0 SHL SUB DUP3 AND DUP3 SUB PUSH2 0x2B3 JUMPI JUMP JUMPDEST PUSH1 0x24 CALLDATALOAD SWAP1 PUSH1 0x1 PUSH1 0x1 PUSH1 0xA0 SHL SUB DUP3 AND DUP3 SUB PUSH2 0x2B3 JUMPI JUMP JUMPDEST SWAP2 DUP2 PUSH1 0x1F DUP5 ADD SLT ISZERO PUSH2 0x2B3 JUMPI DUP3 CALLDATALOAD SWAP2 PUSH1 0x1 PUSH1 0x1 PUSH1 0x40 SHL SUB DUP4 GT PUSH2 0x2B3 JUMPI PUSH1 0x20 DUP4 DUP2 DUP7 ADD SWAP6 ADD ADD GT PUSH2 0x2B3 JUMPI JUMP JUMPDEST CALLVALUE PUSH2 0x2B3 JUMPI PUSH2 0x160 CALLDATASIZE PUSH1 0x3 NOT ADD SLT PUSH2 0x2B3 JUMPI PUSH1 0x4 CALLDATALOAD PUSH1 0x1 PUSH1 0x1 PUSH1 0xA0 SHL SUB DUP2 AND SUB PUSH2 0x2B3 JUMPI PUSH1 0xA0 CALLDATASIZE PUSH1 0x23 NOT ADD SLT PUSH2 0x2B3 JUMPI PUSH1 0x80 CALLDATASIZE PUSH1 0xC3 NOT ADD SLT PUSH2 0x2B3 JUMPI PUSH2 0x144 CALLDATALOAD PUSH1 0x1 PUSH1 0x1 PUSH1 0x40 SHL SUB DUP2 GT PUSH2 0x2B3 JUMPI PUSH2 0xC63 SWAP1 CALLDATASIZE SWAP1 PUSH1 0x4 ADD PUSH2 0xBDA JUMP JUMPDEST POP POP PUSH1 0x40 MLOAD PUSH4 0xA85DC29 PUSH1 0xE0 SHL DUP2 MSTORE PUSH1 0x4 SWAP1 REVERT JUMPDEST CALLVALUE PUSH2 0x2B3 JUMPI PUSH2 0x1A0 CALLDATASIZE PUSH1 0x3 NOT ADD SLT PUSH2 0x2B3 JUMPI PUSH1 0x4 CALLDATALOAD PUSH1 0x1 PUSH1 0x1 PUSH1 0xA0 SHL SUB DUP2 AND SUB PUSH2 0x2B3 JUMPI PUSH1 0xA0 CALLDATASIZE PUSH1 0x23 NOT ADD SLT PUSH2 0x2B3 JUMPI PUSH1 0x80 CALLDATASIZE PUSH1 0xC3 NOT ADD SLT PUSH2 0x2B3 JUMPI PUSH2 0x184 CALLDATALOAD PUSH1 0x1 PUSH1 0x1 PUSH1 0x40 SHL SUB DUP2 GT PUSH2 0x2B3 JUMPI PUSH2 0xC63 SWAP1 CALLDATASIZE SWAP1 PUSH1 0x4 ADD PUSH2 0xBDA JUMP JUMPDEST PUSH1 0xC4 CALLDATALOAD SWAP1 PUSH1 0x1 PUSH1 0x1 PUSH1 0xA0 SHL SUB DUP3 AND DUP3 SUB PUSH2 0x2B3 JUMPI JUMP JUMPDEST PUSH1 0x0 JUMPDEST DUP4 DUP2 LT PUSH2 0xCFC JUMPI POP POP PUSH1 0x0 SWAP2 ADD MSTORE JUMP JUMPDEST DUP2 DUP2 ADD MLOAD DUP4 DUP3 ADD MSTORE PUSH1 0x20 ADD PUSH2 0xCEC JUMP JUMPDEST PUSH1 0x40 SWAP2 PUSH1 0x20 DUP3 MSTORE PUSH2 0xD2C DUP2 MLOAD DUP1 SWAP3 DUP2 PUSH1 0x20 DUP7 ADD MSTORE PUSH1 0x20 DUP7 DUP7 ADD SWAP2 ADD PUSH2 0xCE9 JUMP JUMPDEST PUSH1 0x1F ADD PUSH1 0x1F NOT AND ADD ADD SWAP1 JUMP JUMPDEST CALLVALUE PUSH2 0x2B3 JUMPI PUSH2 0x120 CALLDATASIZE PUSH1 0x3 NOT ADD SLT PUSH2 0x2B3 JUMPI PUSH1 0x4 CALLDATALOAD PUSH1 0x1 PUSH1 0x1 PUSH1 0xA0 SHL SUB DUP2 AND SUB PUSH2 0x2B3 JUMPI PUSH1 0xA0 CALLDATASIZE PUSH1 0x23 NOT ADD SLT PUSH2 0x2B3 JUMPI PUSH2 0x104 CALLDATALOAD PUSH1 0x1 PUSH1 0x1 PUSH1 0x40 SHL SUB DUP2 GT PUSH2 0x2B3 JUMPI PUSH2 0xC63 SWAP1 CALLDATASIZE SWAP1 PUSH1 0x4 ADD PUSH2 0xBDA JUMP JUMPDEST SWAP2 SWAP1 DUP3 SUB SWAP2 DUP3 GT PUSH2 0xD95 JUMPI JUMP JUMPDEST PUSH4 0x4E487B71 PUSH1 0xE0 SHL PUSH1 0x0 MSTORE PUSH1 0x11 PUSH1 0x4 MSTORE PUSH1 0x24 PUSH1 0x0 REVERT JUMPDEST PUSH2 0x1C0 DUP2 ADD SWAP1 DUP2 LT PUSH1 0x1 PUSH1 0x1 PUSH1 0x40 SHL SUB DUP3 GT OR PUSH2 0xDC7 JUMPI PUSH1 0x40 MSTORE JUMP JUMPDEST PUSH4 0x4E487B71 PUSH1 0xE0 SHL PUSH1 0x0 MSTORE PUSH1 0x41 PUSH1 0x4 MSTORE PUSH1 0x24 PUSH1 0x0 REVERT JUMPDEST SWAP1 PUSH1 0x1F DUP1 NOT SWAP2 ADD AND DUP2 ADD SWAP1 DUP2 LT PUSH1 0x1 PUSH1 0x1 PUSH1 0x40 SHL SUB DUP3 GT OR PUSH2 0xDC7 JUMPI PUSH1 0x40 MSTORE JUMP JUMPDEST PUSH1 0x1 PUSH1 0x1 PUSH1 0x40 SHL SUB DUP2 GT PUSH2 0xDC7 JUMPI PUSH1 0x1F ADD PUSH1 0x1F NOT AND PUSH1 0x20 ADD SWAP1 JUMP JUMPDEST PUSH1 0x20 DUP2 DUP4 SUB SLT PUSH2 0x2B3 JUMPI DUP1 MLOAD SWAP1 PUSH1 0x1 PUSH1 0x1 PUSH1 0x40 SHL SUB DUP3 GT PUSH2 0x2B3 JUMPI ADD DUP2 PUSH1 0x1F DUP3 ADD SLT ISZERO PUSH2 0x2B3 JUMPI DUP1 MLOAD PUSH2 0xE4B DUP2 PUSH2 0xDFE JUMP JUMPDEST SWAP3 PUSH2 0xE59 PUSH1 0x40 MLOAD SWAP5 DUP6 PUSH2 0xDDD JUMP JUMPDEST DUP2 DUP5 MSTORE PUSH1 0x20 DUP3 DUP5 ADD ADD GT PUSH2 0x2B3 JUMPI PUSH2 0xE77 SWAP2 PUSH1 0x20 DUP1 DUP6 ADD SWAP2 ADD PUSH2 0xCE9 JUMP JUMPDEST SWAP1 JUMP JUMPDEST SWAP2 SWAP1 DUP3 ADD DUP1 SWAP3 GT PUSH2 0xD95 JUMPI JUMP JUMPDEST PUSH1 0x40 MLOAD SWAP3 SWAP2 DUP4 SWAP2 DUP2 SWAP1 DUP4 CALLDATACOPY DUP2 ADD PUSH1 0x0 SWAP4 DUP5 SWAP3 DUP3 DUP5 DUP1 SWAP5 MSTORE SUB SWAP1 DUP3 ADDRESS GAS CALL RETURNDATASIZE ISZERO PUSH2 0xEF5 JUMPI RETURNDATASIZE PUSH2 0xEB4 DUP2 PUSH2 0xDFE JUMP JUMPDEST SWAP1 PUSH2 0xEC2 PUSH1 0x40 MLOAD SWAP3 DUP4 PUSH2 0xDDD JUMP JUMPDEST DUP2 MSTORE DUP1 SWAP4 PUSH1 0x20 RETURNDATASIZE SWAP3 ADD RETURNDATACOPY JUMPDEST PUSH2 0xEF3 JUMPI POP DUP1 MLOAD ISZERO PUSH2 0xEE1 JUMPI PUSH1 0x20 DUP2 MLOAD SWAP2 ADD REVERT JUMPDEST PUSH1 0x40 MLOAD PUSH4 0x14815F47 PUSH1 0xE3 SHL DUP2 MSTORE PUSH1 0x4 SWAP1 REVERT JUMPDEST JUMP JUMPDEST PUSH1 0x60 SWAP3 POP PUSH2 0xECD JUMP JUMPDEST PUSH1 0x40 MLOAD PUSH1 0x20 DUP2 ADD SWAP1 PUSH1 0x1 PUSH1 0x1 PUSH1 0xA0 SHL SUB PUSH1 0x24 CALLDATALOAD DUP2 DUP2 AND SWAP1 DUP2 SWAP1 SUB PUSH2 0x2B3 JUMPI DUP4 MSTORE PUSH1 0x44 CALLDATALOAD DUP2 DUP2 AND DUP1 SWAP2 SUB PUSH2 0x2B3 JUMPI PUSH1 0x40 DUP4 ADD MSTORE PUSH1 0x64 CALLDATALOAD PUSH3 0xFFFFFF DUP2 AND DUP1 SWAP2 SUB PUSH2 0x2B3 JUMPI PUSH1 0x60 DUP4 ADD MSTORE PUSH1 0x84 CALLDATALOAD DUP1 PUSH1 0x2 SIGNEXTEND DUP1 SWAP2 SUB PUSH2 0x2B3 JUMPI PUSH1 0x80 DUP4 ADD MSTORE PUSH1 0xA4 CALLDATALOAD SWAP1 DUP2 AND DUP1 SWAP2 SUB PUSH2 0x2B3 JUMPI PUSH1 0xA0 DUP3 ADD MSTORE PUSH1 0xA0 DUP2 MSTORE PUSH1 0xC0 DUP2 ADD DUP2 DUP2 LT PUSH1 0x1 PUSH1 0x1 PUSH1 0x40 SHL SUB DUP3 GT OR PUSH2 0xDC7 JUMPI PUSH1 0x40 MSTORE MLOAD SWAP1 KECCAK256 SWAP1 JUMP JUMPDEST PUSH1 0x1 PUSH1 0x1 PUSH1 0xA0 SHL SUB SWAP1 DUP2 AND PUSH1 0x0 DUP2 DUP2 MSTORE PUSH1 0x2 PUSH1 0x20 MSTORE PUSH1 0x40 DUP1 DUP3 KECCAK256 SLOAD SWAP2 SWAP3 SWAP1 SWAP2 DUP1 ISZERO PUSH2 0x10DD JUMPI PUSH2 0xFBC SWAP1 TIMESTAMP PUSH2 0xD88 JUMP JUMPDEST DUP2 DUP5 MSTORE PUSH1 0x1 PUSH1 0x20 MSTORE DUP3 DUP5 KECCAK256 SLOAD SWAP5 DUP4 MLOAD SWAP2 DUP4 PUSH1 0x20 DUP5 ADD MSTORE DUP5 DUP4 ADD MSTORE DUP6 PUSH1 0x60 DUP4 ADD MSTORE PUSH1 0x60 DUP3 MSTORE PUSH1 0x80 DUP3 ADD SWAP1 DUP3 DUP3 LT PUSH1 0x1 PUSH1 0x1 PUSH1 0x40 SHL SUB DUP4 GT OR PUSH2 0x10C9 JUMPI DUP2 DUP6 MSTORE PUSH4 0x48C89491 PUSH1 0xE0 SHL DUP3 MSTORE DUP6 SWAP1 DUP3 SWAP1 DUP2 DUP4 PUSH1 0x7F NOT DUP8 PUSH2 0x101B DUP2 PUSH1 0x84 DUP2 ADD PUSH2 0xD0C JUMP JUMPDEST SUB ADD SWAP3 PUSH32 0x0 AND GAS CALL DUP1 ISZERO PUSH2 0x10BF JUMPI PUSH2 0x10A1 JUMPI JUMPDEST POP POP DUP3 MSTORE PUSH1 0x3 PUSH1 0x20 MSTORE DUP2 KECCAK256 SLOAD SWAP1 PUSH2 0x2710 SWAP2 DUP3 DUP2 MUL SWAP3 DUP2 DUP5 DIV EQ SWAP1 ISZERO OR ISZERO PUSH2 0x108D JUMPI DUP3 ISZERO PUSH2 0x1079 JUMPI POP DIV SWAP1 JUMP JUMPDEST PUSH4 0x4E487B71 PUSH1 0xE0 SHL DUP2 MSTORE PUSH1 0x12 PUSH1 0x4 MSTORE PUSH1 0x24 SWAP1 REVERT JUMPDEST PUSH4 0x4E487B71 PUSH1 0xE0 SHL DUP2 MSTORE PUSH1 0x11 PUSH1 0x4 MSTORE PUSH1 0x24 SWAP1 REVERT JUMPDEST PUSH1 0x80 PUSH2 0x10B7 SWAP3 RETURNDATASIZE SWAP1 DUP2 DUP9 DUP6 RETURNDATACOPY PUSH2 0x725 DUP3 DUP6 PUSH2 0xDDD JUMP JUMPDEST POP CODESIZE DUP1 PUSH2 0x104D JUMP JUMPDEST DUP5 MLOAD RETURNDATASIZE DUP8 DUP3 RETURNDATACOPY RETURNDATASIZE SWAP1 REVERT JUMPDEST PUSH4 0x4E487B71 PUSH1 0xE0 SHL DUP7 MSTORE PUSH1 0x41 PUSH1 0x4 MSTORE PUSH1 0x24 DUP7 REVERT JUMPDEST POP POP POP SWAP1 POP SWAP1 JUMP INVALID LOG2 PUSH5 0x6970667358 0x22 SLT KECCAK256 SWAP1 PUSH9 0x1808F29BF3CFC01C49 0xDD MLOAD ORIGIN 0xD7 MULMOD SWAP1 PUSH11 0xE9DBBC58807B6DFF760EF2 SWAP10 PUSH8 0x8564736F6C634300 ADDMOD XOR STOP CALLER "},"methodIdentifiers":{"REBALANCE_THRESHOLD()":"c85b967d","afterAddLiquidity(address,(address,address,uint24,int24,address),(int24,int24,int256,bytes32),int256,int256,bytes)":"9f063efc","afterDonate(address,(address,address,uint24,int24,address),uint256,uint256,bytes)":"e1b4af69","afterInitialize(address,(address,address,uint24,int24,address),uint160,int24)":"6fe7e6eb","afterRemoveLiquidity(address,(address,address,uint24,int24,address),(int24,int24,int256,bytes32),int256,int256,bytes)":"6c2bbe7e","afterSwap(address,(address,address,uint24,int24,address),(bool,int256,uint160),int256,bytes)":"b47b2fb1","beforeAddLiquidity(address,(address,address,uint24,int24,address),(int24,int24,int256,bytes32),bytes)":"259982e5","beforeDonate(address,(address,address,uint24,int24,address),uint256,uint256,bytes)":"b6a8b0fa","beforeInitialize(address,(address,address,uint24,int24,address),uint160)":"dc98354e","beforeRemoveLiquidity(address,(address,address,uint24,int24,address),(int24,int24,int256,bytes32),bytes)":"21d0ee70","beforeSwap(address,(address,address,uint24,int24,address),(bool,int256,uint160),bytes)":"575e24b4","deposit(address,uint256)":"47e7ef24","getHookPermissions()":"c4e833ce","lastYieldUpdate(address)":"be5e5b04","optimizedSwap(address,address,uint256,uint256)":"07a79efd","poolManager()":"dc4c90d3","poolYields(address)":"d3bf3b6a","totalDeposits(address)":"e9403256","unlockCallback(bytes)":"91dd7346","userDeposits(address,address)":"436d8039","withdraw(address,uint256)":"f3fef3a3"}}}}}