{
  "_format": "hh-sol-artifact-1",
  "contractName": "YieldOptimizerHook",
  "sourceName": "contracts/hooks/YieldOptimizerHook.sol",
  "abi": [
    {
      "inputs": [
        {
          "internalType": "contract IPoolManager",
          "name": "_poolManager",
          "type": "address"
        }
      ],
      "stateMutability": "nonpayable",
      "type": "constructor"
    },
    {
      "inputs": [],
      "name": "HookNotImplemented",
      "type": "error"
    },
    {
      "inputs": [],
      "name": "InvalidPool",
      "type": "error"
    },
    {
      "inputs": [],
      "name": "LockFailure",
      "type": "error"
    },
    {
      "inputs": [],
      "name": "NotPoolManager",
      "type": "error"
    },
    {
      "inputs": [],
      "name": "NotSelf",
      "type": "error"
    },
    {
      "anonymous": false,
      "inputs": [
        {
          "indexed": true,
          "internalType": "address",
          "name": "user",
          "type": "address"
        },
        {
          "indexed": true,
          "internalType": "address",
          "name": "token",
          "type": "address"
        },
        {
          "indexed": false,
          "internalType": "uint256",
          "name": "amount",
          "type": "uint256"
        }
      ],
      "name": "Deposit",
      "type": "event"
    },
    {
      "anonymous": false,
      "inputs": [
        {
          "indexed": true,
          "internalType": "address",
          "name": "user",
          "type": "address"
        },
        {
          "indexed": false,
          "internalType": "address",
          "name": "tokenIn",
          "type": "address"
        },
        {
          "indexed": false,
          "internalType": "address",
          "name": "tokenOut",
          "type": "address"
        },
        {
          "indexed": false,
          "internalType": "uint256",
          "name": "amountIn",
          "type": "uint256"
        },
        {
          "indexed": false,
          "internalType": "uint256",
          "name": "amountOut",
          "type": "uint256"
        },
        {
          "indexed": false,
          "internalType": "uint256",
          "name": "gasSaved",
          "type": "uint256"
        }
      ],
      "name": "OptimizedSwap",
      "type": "event"
    },
    {
      "anonymous": false,
      "inputs": [
        {
          "indexed": true,
          "internalType": "address",
          "name": "user",
          "type": "address"
        },
        {
          "indexed": true,
          "internalType": "address",
          "name": "token",
          "type": "address"
        },
        {
          "indexed": false,
          "internalType": "uint256",
          "name": "amount",
          "type": "uint256"
        }
      ],
      "name": "Withdrawal",
      "type": "event"
    },
    {
      "anonymous": false,
      "inputs": [
        {
          "indexed": true,
          "internalType": "address",
          "name": "pool",
          "type": "address"
        },
        {
          "indexed": false,
          "internalType": "uint256",
          "name": "timestamp",
          "type": "uint256"
        },
        {
          "indexed": false,
          "internalType": "uint256",
          "name": "currentYield",
          "type": "uint256"
        }
      ],
      "name": "YieldTracked",
      "type": "event"
    },
    {
      "inputs": [],
      "name": "REBALANCE_THRESHOLD",
      "outputs": [
        {
          "internalType": "uint256",
          "name": "",
          "type": "uint256"
        }
      ],
      "stateMutability": "view",
      "type": "function"
    },
    {
      "inputs": [
        {
          "internalType": "address",
          "name": "",
          "type": "address"
        },
        {
          "components": [
            {
              "internalType": "Currency",
              "name": "currency0",
              "type": "address"
            },
            {
              "internalType": "Currency",
              "name": "currency1",
              "type": "address"
            },
            {
              "internalType": "uint24",
              "name": "fee",
              "type": "uint24"
            },
            {
              "internalType": "int24",
              "name": "tickSpacing",
              "type": "int24"
            },
            {
              "internalType": "contract IHooks",
              "name": "hooks",
              "type": "address"
            }
          ],
          "internalType": "struct PoolKey",
          "name": "",
          "type": "tuple"
        },
        {
          "components": [
            {
              "internalType": "int24",
              "name": "tickLower",
              "type": "int24"
            },
            {
              "internalType": "int24",
              "name": "tickUpper",
              "type": "int24"
            },
            {
              "internalType": "int256",
              "name": "liquidityDelta",
              "type": "int256"
            },
            {
              "internalType": "bytes32",
              "name": "salt",
              "type": "bytes32"
            }
          ],
          "internalType": "struct IPoolManager.ModifyLiquidityParams",
          "name": "",
          "type": "tuple"
        },
        {
          "internalType": "BalanceDelta",
          "name": "",
          "type": "int256"
        },
        {
          "internalType": "BalanceDelta",
          "name": "",
          "type": "int256"
        },
        {
          "internalType": "bytes",
          "name": "",
          "type": "bytes"
        }
      ],
      "name": "afterAddLiquidity",
      "outputs": [
        {
          "internalType": "bytes4",
          "name": "",
          "type": "bytes4"
        },
        {
          "internalType": "BalanceDelta",
          "name": "",
          "type": "int256"
        }
      ],
      "stateMutability": "nonpayable",
      "type": "function"
    },
    {
      "inputs": [
        {
          "internalType": "address",
          "name": "",
          "type": "address"
        },
        {
          "components": [
            {
              "internalType": "Currency",
              "name": "currency0",
              "type": "address"
            },
            {
              "internalType": "Currency",
              "name": "currency1",
              "type": "address"
            },
            {
              "internalType": "uint24",
              "name": "fee",
              "type": "uint24"
            },
            {
              "internalType": "int24",
              "name": "tickSpacing",
              "type": "int24"
            },
            {
              "internalType": "contract IHooks",
              "name": "hooks",
              "type": "address"
            }
          ],
          "internalType": "struct PoolKey",
          "name": "",
          "type": "tuple"
        },
        {
          "internalType": "uint256",
          "name": "",
          "type": "uint256"
        },
        {
          "internalType": "uint256",
          "name": "",
          "type": "uint256"
        },
        {
          "internalType": "bytes",
          "name": "",
          "type": "bytes"
        }
      ],
      "name": "afterDonate",
      "outputs": [
        {
          "internalType": "bytes4",
          "name": "",
          "type": "bytes4"
        }
      ],
      "stateMutability": "nonpayable",
      "type": "function"
    },
    {
      "inputs": [
        {
          "internalType": "address",
          "name": "",
          "type": "address"
        },
        {
          "components": [
            {
              "internalType": "Currency",
              "name": "currency0",
              "type": "address"
            },
            {
              "internalType": "Currency",
              "name": "currency1",
              "type": "address"
            },
            {
              "internalType": "uint24",
              "name": "fee",
              "type": "uint24"
            },
            {
              "internalType": "int24",
              "name": "tickSpacing",
              "type": "int24"
            },
            {
              "internalType": "contract IHooks",
              "name": "hooks",
              "type": "address"
            }
          ],
          "internalType": "struct PoolKey",
          "name": "",
          "type": "tuple"
        },
        {
          "internalType": "uint160",
          "name": "",
          "type": "uint160"
        },
        {
          "internalType": "int24",
          "name": "",
          "type": "int24"
        }
      ],
      "name": "afterInitialize",
      "outputs": [
        {
          "internalType": "bytes4",
          "name": "",
          "type": "bytes4"
        }
      ],
      "stateMutability": "nonpayable",
      "type": "function"
    },
    {
      "inputs": [
        {
          "internalType": "address",
          "name": "",
          "type": "address"
        },
        {
          "components": [
            {
              "internalType": "Currency",
              "name": "currency0",
              "type": "address"
            },
            {
              "internalType": "Currency",
              "name": "currency1",
              "type": "address"
            },
            {
              "internalType": "uint24",
              "name": "fee",
              "type": "uint24"
            },
            {
              "internalType": "int24",
              "name": "tickSpacing",
              "type": "int24"
            },
            {
              "internalType": "contract IHooks",
              "name": "hooks",
              "type": "address"
            }
          ],
          "internalType": "struct PoolKey",
          "name": "",
          "type": "tuple"
        },
        {
          "components": [
            {
              "internalType": "int24",
              "name": "tickLower",
              "type": "int24"
            },
            {
              "internalType": "int24",
              "name": "tickUpper",
              "type": "int24"
            },
            {
              "internalType": "int256",
              "name": "liquidityDelta",
              "type": "int256"
            },
            {
              "internalType": "bytes32",
              "name": "salt",
              "type": "bytes32"
            }
          ],
          "internalType": "struct IPoolManager.ModifyLiquidityParams",
          "name": "",
          "type": "tuple"
        },
        {
          "internalType": "BalanceDelta",
          "name": "",
          "type": "int256"
        },
        {
          "internalType": "BalanceDelta",
          "name": "",
          "type": "int256"
        },
        {
          "internalType": "bytes",
          "name": "",
          "type": "bytes"
        }
      ],
      "name": "afterRemoveLiquidity",
      "outputs": [
        {
          "internalType": "bytes4",
          "name": "",
          "type": "bytes4"
        },
        {
          "internalType": "BalanceDelta",
          "name": "",
          "type": "int256"
        }
      ],
      "stateMutability": "nonpayable",
      "type": "function"
    },
    {
      "inputs": [
        {
          "internalType": "address",
          "name": "sender",
          "type": "address"
        },
        {
          "components": [
            {
              "internalType": "Currency",
              "name": "currency0",
              "type": "address"
            },
            {
              "internalType": "Currency",
              "name": "currency1",
              "type": "address"
            },
            {
              "internalType": "uint24",
              "name": "fee",
              "type": "uint24"
            },
            {
              "internalType": "int24",
              "name": "tickSpacing",
              "type": "int24"
            },
            {
              "internalType": "contract IHooks",
              "name": "hooks",
              "type": "address"
            }
          ],
          "internalType": "struct PoolKey",
          "name": "key",
          "type": "tuple"
        },
        {
          "components": [
            {
              "internalType": "bool",
              "name": "zeroForOne",
              "type": "bool"
            },
            {
              "internalType": "int256",
              "name": "amountSpecified",
              "type": "int256"
            },
            {
              "internalType": "uint160",
              "name": "sqrtPriceLimitX96",
              "type": "uint160"
            }
          ],
          "internalType": "struct IPoolManager.SwapParams",
          "name": "params",
          "type": "tuple"
        },
        {
          "internalType": "BalanceDelta",
          "name": "delta",
          "type": "int256"
        },
        {
          "internalType": "bytes",
          "name": "hookData",
          "type": "bytes"
        }
      ],
      "name": "afterSwap",
      "outputs": [
        {
          "internalType": "bytes4",
          "name": "",
          "type": "bytes4"
        },
        {
          "internalType": "int128",
          "name": "",
          "type": "int128"
        }
      ],
      "stateMutability": "nonpayable",
      "type": "function"
    },
    {
      "inputs": [
        {
          "internalType": "address",
          "name": "",
          "type": "address"
        },
        {
          "components": [
            {
              "internalType": "Currency",
              "name": "currency0",
              "type": "address"
            },
            {
              "internalType": "Currency",
              "name": "currency1",
              "type": "address"
            },
            {
              "internalType": "uint24",
              "name": "fee",
              "type": "uint24"
            },
            {
              "internalType": "int24",
              "name": "tickSpacing",
              "type": "int24"
            },
            {
              "internalType": "contract IHooks",
              "name": "hooks",
              "type": "address"
            }
          ],
          "internalType": "struct PoolKey",
          "name": "",
          "type": "tuple"
        },
        {
          "components": [
            {
              "internalType": "int24",
              "name": "tickLower",
              "type": "int24"
            },
            {
              "internalType": "int24",
              "name": "tickUpper",
              "type": "int24"
            },
            {
              "internalType": "int256",
              "name": "liquidityDelta",
              "type": "int256"
            },
            {
              "internalType": "bytes32",
              "name": "salt",
              "type": "bytes32"
            }
          ],
          "internalType": "struct IPoolManager.ModifyLiquidityParams",
          "name": "",
          "type": "tuple"
        },
        {
          "internalType": "bytes",
          "name": "",
          "type": "bytes"
        }
      ],
      "name": "beforeAddLiquidity",
      "outputs": [
        {
          "internalType": "bytes4",
          "name": "",
          "type": "bytes4"
        }
      ],
      "stateMutability": "nonpayable",
      "type": "function"
    },
    {
      "inputs": [
        {
          "internalType": "address",
          "name": "",
          "type": "address"
        },
        {
          "components": [
            {
              "internalType": "Currency",
              "name": "currency0",
              "type": "address"
            },
            {
              "internalType": "Currency",
              "name": "currency1",
              "type": "address"
            },
            {
              "internalType": "uint24",
              "name": "fee",
              "type": "uint24"
            },
            {
              "internalType": "int24",
              "name": "tickSpacing",
              "type": "int24"
            },
            {
              "internalType": "contract IHooks",
              "name": "hooks",
              "type": "address"
            }
          ],
          "internalType": "struct PoolKey",
          "name": "",
          "type": "tuple"
        },
        {
          "internalType": "uint256",
          "name": "",
          "type": "uint256"
        },
        {
          "internalType": "uint256",
          "name": "",
          "type": "uint256"
        },
        {
          "internalType": "bytes",
          "name": "",
          "type": "bytes"
        }
      ],
      "name": "beforeDonate",
      "outputs": [
        {
          "internalType": "bytes4",
          "name": "",
          "type": "bytes4"
        }
      ],
      "stateMutability": "nonpayable",
      "type": "function"
    },
    {
      "inputs": [
        {
          "internalType": "address",
          "name": "",
          "type": "address"
        },
        {
          "components": [
            {
              "internalType": "Currency",
              "name": "currency0",
              "type": "address"
            },
            {
              "internalType": "Currency",
              "name": "currency1",
              "type": "address"
            },
            {
              "internalType": "uint24",
              "name": "fee",
              "type": "uint24"
            },
            {
              "internalType": "int24",
              "name": "tickSpacing",
              "type": "int24"
            },
            {
              "internalType": "contract IHooks",
              "name": "hooks",
              "type": "address"
            }
          ],
          "internalType": "struct PoolKey",
          "name": "",
          "type": "tuple"
        },
        {
          "internalType": "uint160",
          "name": "",
          "type": "uint160"
        }
      ],
      "name": "beforeInitialize",
      "outputs": [
        {
          "internalType": "bytes4",
          "name": "",
          "type": "bytes4"
        }
      ],
      "stateMutability": "nonpayable",
      "type": "function"
    },
    {
      "inputs": [
        {
          "internalType": "address",
          "name": "",
          "type": "address"
        },
        {
          "components": [
            {
              "internalType": "Currency",
              "name": "currency0",
              "type": "address"
            },
            {
              "internalType": "Currency",
              "name": "currency1",
              "type": "address"
            },
            {
              "internalType": "uint24",
              "name": "fee",
              "type": "uint24"
            },
            {
              "internalType": "int24",
              "name": "tickSpacing",
              "type": "int24"
            },
            {
              "internalType": "contract IHooks",
              "name": "hooks",
              "type": "address"
            }
          ],
          "internalType": "struct PoolKey",
          "name": "",
          "type": "tuple"
        },
        {
          "components": [
            {
              "internalType": "int24",
              "name": "tickLower",
              "type": "int24"
            },
            {
              "internalType": "int24",
              "name": "tickUpper",
              "type": "int24"
            },
            {
              "internalType": "int256",
              "name": "liquidityDelta",
              "type": "int256"
            },
            {
              "internalType": "bytes32",
              "name": "salt",
              "type": "bytes32"
            }
          ],
          "internalType": "struct IPoolManager.ModifyLiquidityParams",
          "name": "",
          "type": "tuple"
        },
        {
          "internalType": "bytes",
          "name": "",
          "type": "bytes"
        }
      ],
      "name": "beforeRemoveLiquidity",
      "outputs": [
        {
          "internalType": "bytes4",
          "name": "",
          "type": "bytes4"
        }
      ],
      "stateMutability": "nonpayable",
      "type": "function"
    },
    {
      "inputs": [
        {
          "internalType": "address",
          "name": "sender",
          "type": "address"
        },
        {
          "components": [
            {
              "internalType": "Currency",
              "name": "currency0",
              "type": "address"
            },
            {
              "internalType": "Currency",
              "name": "currency1",
              "type": "address"
            },
            {
              "internalType": "uint24",
              "name": "fee",
              "type": "uint24"
            },
            {
              "internalType": "int24",
              "name": "tickSpacing",
              "type": "int24"
            },
            {
              "internalType": "contract IHooks",
              "name": "hooks",
              "type": "address"
            }
          ],
          "internalType": "struct PoolKey",
          "name": "key",
          "type": "tuple"
        },
        {
          "components": [
            {
              "internalType": "bool",
              "name": "zeroForOne",
              "type": "bool"
            },
            {
              "internalType": "int256",
              "name": "amountSpecified",
              "type": "int256"
            },
            {
              "internalType": "uint160",
              "name": "sqrtPriceLimitX96",
              "type": "uint160"
            }
          ],
          "internalType": "struct IPoolManager.SwapParams",
          "name": "params",
          "type": "tuple"
        },
        {
          "internalType": "bytes",
          "name": "hookData",
          "type": "bytes"
        }
      ],
      "name": "beforeSwap",
      "outputs": [
        {
          "internalType": "bytes4",
          "name": "",
          "type": "bytes4"
        },
        {
          "internalType": "BeforeSwapDelta",
          "name": "",
          "type": "int256"
        },
        {
          "internalType": "uint24",
          "name": "",
          "type": "uint24"
        }
      ],
      "stateMutability": "nonpayable",
      "type": "function"
    },
    {
      "inputs": [
        {
          "internalType": "address",
          "name": "token",
          "type": "address"
        },
        {
          "internalType": "uint256",
          "name": "amount",
          "type": "uint256"
        }
      ],
      "name": "deposit",
      "outputs": [],
      "stateMutability": "nonpayable",
      "type": "function"
    },
    {
      "inputs": [],
      "name": "getHookPermissions",
      "outputs": [
        {
          "components": [
            {
              "internalType": "bool",
              "name": "beforeInitialize",
              "type": "bool"
            },
            {
              "internalType": "bool",
              "name": "afterInitialize",
              "type": "bool"
            },
            {
              "internalType": "bool",
              "name": "beforeAddLiquidity",
              "type": "bool"
            },
            {
              "internalType": "bool",
              "name": "afterAddLiquidity",
              "type": "bool"
            },
            {
              "internalType": "bool",
              "name": "beforeRemoveLiquidity",
              "type": "bool"
            },
            {
              "internalType": "bool",
              "name": "afterRemoveLiquidity",
              "type": "bool"
            },
            {
              "internalType": "bool",
              "name": "beforeSwap",
              "type": "bool"
            },
            {
              "internalType": "bool",
              "name": "afterSwap",
              "type": "bool"
            },
            {
              "internalType": "bool",
              "name": "beforeDonate",
              "type": "bool"
            },
            {
              "internalType": "bool",
              "name": "afterDonate",
              "type": "bool"
            },
            {
              "internalType": "bool",
              "name": "beforeSwapReturnDelta",
              "type": "bool"
            },
            {
              "internalType": "bool",
              "name": "afterSwapReturnDelta",
              "type": "bool"
            },
            {
              "internalType": "bool",
              "name": "afterAddLiquidityReturnDelta",
              "type": "bool"
            },
            {
              "internalType": "bool",
              "name": "afterRemoveLiquidityReturnDelta",
              "type": "bool"
            }
          ],
          "internalType": "struct Hooks.Permissions",
          "name": "",
          "type": "tuple"
        }
      ],
      "stateMutability": "pure",
      "type": "function"
    },
    {
      "inputs": [
        {
          "internalType": "address",
          "name": "",
          "type": "address"
        }
      ],
      "name": "lastYieldUpdate",
      "outputs": [
        {
          "internalType": "uint256",
          "name": "",
          "type": "uint256"
        }
      ],
      "stateMutability": "view",
      "type": "function"
    },
    {
      "inputs": [
        {
          "internalType": "address",
          "name": "tokenIn",
          "type": "address"
        },
        {
          "internalType": "address",
          "name": "tokenOut",
          "type": "address"
        },
        {
          "internalType": "uint256",
          "name": "amountIn",
          "type": "uint256"
        },
        {
          "internalType": "uint256",
          "name": "minAmountOut",
          "type": "uint256"
        }
      ],
      "name": "optimizedSwap",
      "outputs": [
        {
          "internalType": "uint256",
          "name": "amountOut",
          "type": "uint256"
        }
      ],
      "stateMutability": "nonpayable",
      "type": "function"
    },
    {
      "inputs": [],
      "name": "poolManager",
      "outputs": [
        {
          "internalType": "contract IPoolManager",
          "name": "",
          "type": "address"
        }
      ],
      "stateMutability": "view",
      "type": "function"
    },
    {
      "inputs": [
        {
          "internalType": "address",
          "name": "",
          "type": "address"
        }
      ],
      "name": "poolYields",
      "outputs": [
        {
          "internalType": "uint256",
          "name": "",
          "type": "uint256"
        }
      ],
      "stateMutability": "view",
      "type": "function"
    },
    {
      "inputs": [
        {
          "internalType": "address",
          "name": "",
          "type": "address"
        }
      ],
      "name": "totalDeposits",
      "outputs": [
        {
          "internalType": "uint256",
          "name": "",
          "type": "uint256"
        }
      ],
      "stateMutability": "view",
      "type": "function"
    },
    {
      "inputs": [
        {
          "internalType": "bytes",
          "name": "data",
          "type": "bytes"
        }
      ],
      "name": "unlockCallback",
      "outputs": [
        {
          "internalType": "bytes",
          "name": "",
          "type": "bytes"
        }
      ],
      "stateMutability": "nonpayable",
      "type": "function"
    },
    {
      "inputs": [
        {
          "internalType": "address",
          "name": "",
          "type": "address"
        },
        {
          "internalType": "address",
          "name": "",
          "type": "address"
        }
      ],
      "name": "userDeposits",
      "outputs": [
        {
          "internalType": "uint256",
          "name": "",
          "type": "uint256"
        }
      ],
      "stateMutability": "view",
      "type": "function"
    },
    {
      "inputs": [
        {
          "internalType": "address",
          "name": "token",
          "type": "address"
        },
        {
          "internalType": "uint256",
          "name": "amount",
          "type": "uint256"
        }
      ],
      "name": "withdraw",
      "outputs": [],
      "stateMutability": "nonpayable",
      "type": "function"
    }
  ],
  "bytecode": "0x60a0346200029357601f620013eb38819003918201601f19168301916001600160401b0383118484101762000298578084926020946040528339810103126200029357516001600160a01b0381168103620002935760805262000061620002ae565b6000908181528160208201528160408201528160608201528160808201528160a08201528160c08201528160e082015281610100918183820152610120828183015282610140818185015281610160818187015281610180938185890152816101a08099015281620000d2620002ae565b978189528160208a01528160408a01528160608a01528160808a01528160a08a0152600160c08a0152600160e08a0152818c8a015288015286015284015282015201526120003016159081159162000284575b811562000275575b811562000266575b811562000257575b81156200024a575b50801562000239575b801562000228575b80156200021b575b80156200020e575b801562000201575b8015620001f4575b8015620001e7575b8015620001da575b620001c75760405161111b9081620002d082396080518181816101ed0152818161034c015281816106e1015281816107810152818161098b01526110200152f35b630732d7b560e51b815230600452602490fd5b5060013016151562000186565b506002301615156200017e565b5060043016151562000176565b506008301615156200016e565b5060103016151562000166565b506020301615156200015e565b506040301615156001141562000156565b50608030161515600114156200014e565b9050301615153862000145565b3061020016151591506200013d565b30610400161515915062000135565b3061080016151591506200012d565b30611000161515915062000125565b600080fd5b634e487b7160e01b600052604160045260246000fd5b604051906101c082016001600160401b03811183821017620002985760405256fe6080806040526004908136101561001557600080fd5b60003560e01c90816307a79efd14610ae15750806321d0ee7014610adc578063259982e514610adc578063436d803914610a8b57806347e7ef241461090d578063575e24b4146108275780636c2bbe7e1461074a5780636fe7e6eb146107db57806391dd73461461074f5780639f063efc1461074a578063b47b2fb1146105a5578063b6a8b0fa146102f2578063be5e5b041461056b578063c4e833ce146103d2578063c85b967d146103b5578063d3bf3b6a1461037b578063dc4c90d314610336578063dc98354e146102f7578063e1b4af69146102f2578063e9403256146102b85763f3fef3a31461010857600080fd5b346102b35760403660031901126102b357610121610bae565b60243590336000526020906000825260406000209360018060a01b0391828116958660005284528460406000205410610278576101e993926000926101ce8793338652858752604086208a875287526040862061017f868254610d88565b90558986526001875260408620610197868254610d88565b905560408051338982019081526001600160a01b03909316602084015290820195909552849060600103601f198101855284610ddd565b836040518097819582946348c8949160e01b84528301610d0c565b03927f0000000000000000000000000000000000000000000000000000000000000000165af191821561026c577f2717ead6b9200dd235aad468c9809ea400fe33ac69b5bfaa6d3e90fc922b639892610249575b506040519283523392a3005b610265903d806000833e61025d8183610ddd565b810190610e19565b503861023d565b6040513d6000823e3d90fd5b60405162461bcd60e51b81528083018590526014602482015273496e73756666696369656e742062616c616e636560601b6044820152606490fd5b600080fd5b346102b35760203660031901126102b3576001600160a01b036102d9610bae565b1660005260016020526020604060002054604051908152f35b610d38565b50346102b35760e03660031901126102b357610311610bae565b5060a03660231901126102b357610326610cd3565b50604051630a85dc2960e01b8152fd5b346102b35760003660031901126102b3576040517f00000000000000000000000000000000000000000000000000000000000000006001600160a01b03168152602090f35b346102b35760203660031901126102b3576001600160a01b0361039c610bae565b1660005260036020526020604060002054604051908152f35b346102b35760003660031901126102b35760206040516101f48152f35b346102b35760003660031901126102b35760006101a06040516103f481610dab565b8281528260208201528260408201528260608201528260808201528260a08201528260c08201528260e0820152826101008201528261012082015282610140820152826101608201528261018082015201526101c060405161045581610dab565b6000815260006020820152600060408201526000606082015260006080820152600060a0820152600160c0820152600160e08201526000610100820152600061012082015260006101408201526000610160820152600061018082015260006101a08201526101a0604051916000835260208101511515602084015260408101511515604084015260608101511515606084015260808101511515608084015260a0810151151560a084015260c0810151151560c084015260e0810151151560e084015261010081015115156101008401526101208101511515610120840152610140810151151561014084015261016081015115156101608401526101808101511515610180840152015115156101a0820152f35b346102b35760203660031901126102b3576001600160a01b0361058c610bae565b1660005260026020526020604060002054604051908152f35b50346102b3576101603660031901126102b3576105c0610bae565b5060a03660231901126102b35760603660c31901126102b3576001600160401b03610144358181116102b3576105f99036908401610bda565b50506101f461060e610609610efe565b610f8d565b1161062b575b6040805163b47b2fb160e01b815260006020820152f35b604051916001600160a01b0390602435808316908190036102b35760208501526044358281168091036102b357604085015260643562ffffff81168091036102b35760608501526084358060020b8091036102b357608085015260a4358281168091036102b35760a08501526101243560c085015260c0845260e084019284841090841117610735575060408290526348c8949160e01b82526000908290818360df19876106dc8160e48101610d0c565b0301927f0000000000000000000000000000000000000000000000000000000000000000165af1801561026c57156106145760e061072d923d90816000853e6107258285610ddd565b010190610e19565b503880610614565b604190634e487b7160e01b6000525260246000fd5b610c77565b50346102b35760203660031901126102b35780356001600160401b0381116102b35761077e9036908301610bda565b917f00000000000000000000000000000000000000000000000000000000000000006001600160a01b031633036107cc576107c86107bc8484610e87565b60405191829182610d0c565b0390f35b60405163570c108560e11b8152fd5b50346102b3576101003660031901126102b3576107f6610bae565b5060a03660231901126102b35761080b610cd3565b5060e4358060020b036102b357604051630a85dc2960e01b8152fd5b50346102b3576101403660031901126102b357610842610bae565b5060a03660231901126102b35760603660c31901126102b35761012435906001600160401b0382116102b35761087a91369101610bda565b5050610884610efe565b61088d81610f8d565b90816108b3575b60606040516315d7892d60e21b81526000602082015260006040820152f35b60407f36432ac94639517df0d8aa67d05b399e0bd10b8995ab185354d427ac7ecb5a449160018060a01b03169283600052600360205280826000205560026020524282600020558151904282526020820152a23880610894565b50346102b35760403660031901126102b357610927610bae565b90602435908115610a4757604080513360208201526001600160a01b03858116928201929092526060808201859052815290916109859160009161096c608083610ddd565b6040516348c8949160e01b815293849283928301610d0c565b038183867f0000000000000000000000000000000000000000000000000000000000000000165af1801561026c57610a2c575b5033600052600060205260406000209216918260005260205260406000206109e1828254610e7a565b905581600052600160205260406000206109fc828254610e7a565b90556040519081527f5548c837ab068cf56a2c2479df0882a4922fd203edb7517321831d95078c5f6260203392a3005b610a40903d806000833e61025d8183610ddd565b50386109b8565b60649060206040519162461bcd60e51b8352820152601d60248201527f416d6f756e74206d7573742062652067726561746572207468616e20300000006044820152fd5b346102b35760403660031901126102b357610aa4610bae565b610aac610bc4565b9060018060a01b038091166000526000602052604060002091166000526020526020604060002054604051908152f35b610c07565b82346102b35760803660031901126102b357610afb610bae565b90610b04610bc4565b925a91606435610b77575050610b1b905a90610d88565b906040519260018060a01b03809216845216602083015260443560408301526000606083015260808201527fe6a26d825aa8b05ec8e05df82f6de35714568b70615123b327b207202f702eeb60a03392a2602060405160008152f35b62461bcd60e51b82526020908201526013602482015272125b9cdd59999a58da595b9d081bdd5d1c1d5d606a1b6044820152606490fd5b600435906001600160a01b03821682036102b357565b602435906001600160a01b03821682036102b357565b9181601f840112156102b3578235916001600160401b0383116102b357602083818601950101116102b357565b346102b3576101603660031901126102b3576004356001600160a01b038116036102b35760a03660231901126102b35760803660c31901126102b357610144356001600160401b0381116102b357610c63903690600401610bda565b5050604051630a85dc2960e01b8152600490fd5b346102b3576101a03660031901126102b3576004356001600160a01b038116036102b35760a03660231901126102b35760803660c31901126102b357610184356001600160401b0381116102b357610c63903690600401610bda565b60c435906001600160a01b03821682036102b357565b60005b838110610cfc5750506000910152565b8181015183820152602001610cec565b60409160208252610d2c8151809281602086015260208686019101610ce9565b601f01601f1916010190565b346102b3576101203660031901126102b3576004356001600160a01b038116036102b35760a03660231901126102b357610104356001600160401b0381116102b357610c63903690600401610bda565b91908203918211610d9557565b634e487b7160e01b600052601160045260246000fd5b6101c081019081106001600160401b03821117610dc757604052565b634e487b7160e01b600052604160045260246000fd5b90601f801991011681019081106001600160401b03821117610dc757604052565b6001600160401b038111610dc757601f01601f191660200190565b6020818303126102b3578051906001600160401b0382116102b3570181601f820112156102b3578051610e4b81610dfe565b92610e596040519485610ddd565b818452602082840101116102b357610e779160208085019101610ce9565b90565b91908201809211610d9557565b6040519291839181908337810160009384928284809452039082305af13d15610ef5573d610eb481610dfe565b90610ec26040519283610ddd565b8152809360203d92013e5b610ef35750805115610ee157602081519101fd5b6040516314815f4760e31b8152600490fd5b565b60609250610ecd565b60405160208101906001600160a01b03602435818116908190036102b35783526044358181168091036102b357604083015260643562ffffff81168091036102b35760608301526084358060020b8091036102b357608083015260a4359081168091036102b35760a082015260a0815260c081018181106001600160401b03821117610dc75760405251902090565b6001600160a01b03908116600081815260026020526040808220549192909180156110dd57610fbc9042610d88565b81845260016020528284205494835191836020840152848301528560608301526060825260808201908282106001600160401b038311176110c9578185526348c8949160e01b8252859082908183607f198761101b8160848101610d0c565b0301927f0000000000000000000000000000000000000000000000000000000000000000165af180156110bf576110a1575b505082526003602052812054906127109182810292818404149015171561108d57821561107957500490565b634e487b7160e01b81526012600452602490fd5b634e487b7160e01b81526011600452602490fd5b60806110b7923d908188853e6107258285610ddd565b50388061104d565b84513d87823e3d90fd5b634e487b7160e01b86526041600452602486fd5b50505090509056fea2646970667358221220769e6a5785dfcb03f17d97cdd7d1d384b8715819061d4cd25e9fe95d1012a23764736f6c63430008180033",
  "linkReferences": {},
  "deployedLinkReferences": {}
}