{
  "_format": "hh-sol-artifact-1",
  "contractName": "Create2Factory",
  "sourceName": "contracts/Create2Factory.sol",
  "abi": [
    {
      "anonymous": false,
      "inputs": [
        {
          "indexed": false,
          "internalType": "address",
          "name": "addr",
          "type": "address"
        },
        {
          "indexed": false,
          "internalType": "uint256",
          "name": "salt",
          "type": "uint256"
        }
      ],
      "name": "Deployed",
      "type": "event"
    },
    {
      "inputs": [
        {
          "internalType": "bytes32",
          "name": "salt",
          "type": "bytes32"
        },
        {
          "internalType": "bytes",
          "name": "bytecode",
          "type": "bytes"
        }
      ],
      "name": "computeAddress",
      "outputs": [
        {
          "internalType": "address",
          "name": "",
          "type": "address"
        }
      ],
      "stateMutability": "view",
      "type": "function"
    },
    {
      "inputs": [
        {
          "internalType": "bytes32",
          "name": "salt",
          "type": "bytes32"
        },
        {
          "internalType": "bytes",
          "name": "bytecode",
          "type": "bytes"
        }
      ],
      "name": "deploy",
      "outputs": [
        {
          "internalType": "address",
          "name": "",
          "type": "address"
        }
      ],
      "stateMutability": "nonpayable",
      "type": "function"
    }
  ],
  "bytecode": "0x608080604052346100165761021d908161001c8239f35b600080fdfe6080604052600436101561001257600080fd5b60003560e01c8063ca9ffe94146100375763cdcb760a1461003257600080fd5b610185565b346100b1576100ad61009361004b3661010f565b602081519101209060405191602083019160ff60f81b83523060601b60218501526035840152605583015260558252610083826100cc565b905190206001600160a01b031690565b6040516001600160a01b0390911681529081906020820190565b0390f35b600080fd5b634e487b7160e01b600052604160045260246000fd5b6080810190811067ffffffffffffffff8211176100e857604052565b6100b6565b90601f8019910116810190811067ffffffffffffffff8211176100e857604052565b9060406003198301126100b1576004359167ffffffffffffffff6024358181116100b157826023820112156100b15780600401359182116100e85760405192610162601f8401601f1916602001856100ed565b828452602483830101116100b15781600092602460209301838601378301015290565b346100b1576101933661010f565b805182916020016000f590813b156100b1577fb03c53b28e78a88e31607a27e1fa48234dce28d5d9d9ec7b295aeb02e674a1e1604060209381519060018060a01b03169384825285820152a1604051908152f3fea2646970667358221220bf57aaa4de15678bec6b8ed5b9d4ab40b69fdd72dc53ce2b02f5f0a22e79871764736f6c63430008180033",
  "linkReferences": {},
  "deployedLinkReferences": {}
}